{
	"contracts/06_GarageManager.sol": {
		"GarageManager": {
			"abi": [
				{
					"inputs": [
						{
							"internalType": "uint256",
							"name": "_index",
							"type": "uint256"
						}
					],
					"name": "BadCarIndex",
					"type": "error"
				},
				{
					"inputs": [
						{
							"internalType": "string",
							"name": "_make",
							"type": "string"
						},
						{
							"internalType": "string",
							"name": "_model",
							"type": "string"
						},
						{
							"internalType": "string",
							"name": "_color",
							"type": "string"
						},
						{
							"internalType": "uint256",
							"name": "_numberOfDoors",
							"type": "uint256"
						}
					],
					"name": "addCar",
					"outputs": [],
					"stateMutability": "nonpayable",
					"type": "function"
				},
				{
					"inputs": [
						{
							"internalType": "address",
							"name": "",
							"type": "address"
						},
						{
							"internalType": "uint256",
							"name": "",
							"type": "uint256"
						}
					],
					"name": "garage",
					"outputs": [
						{
							"internalType": "string",
							"name": "make",
							"type": "string"
						},
						{
							"internalType": "string",
							"name": "model",
							"type": "string"
						},
						{
							"internalType": "string",
							"name": "color",
							"type": "string"
						},
						{
							"internalType": "uint256",
							"name": "numberOfDoors",
							"type": "uint256"
						}
					],
					"stateMutability": "view",
					"type": "function"
				},
				{
					"inputs": [],
					"name": "getMyCars",
					"outputs": [
						{
							"components": [
								{
									"internalType": "string",
									"name": "make",
									"type": "string"
								},
								{
									"internalType": "string",
									"name": "model",
									"type": "string"
								},
								{
									"internalType": "string",
									"name": "color",
									"type": "string"
								},
								{
									"internalType": "uint256",
									"name": "numberOfDoors",
									"type": "uint256"
								}
							],
							"internalType": "struct GarageManager.Car[]",
							"name": "",
							"type": "tuple[]"
						}
					],
					"stateMutability": "view",
					"type": "function"
				},
				{
					"inputs": [
						{
							"internalType": "address",
							"name": "_user",
							"type": "address"
						}
					],
					"name": "getUserCars",
					"outputs": [
						{
							"components": [
								{
									"internalType": "string",
									"name": "make",
									"type": "string"
								},
								{
									"internalType": "string",
									"name": "model",
									"type": "string"
								},
								{
									"internalType": "string",
									"name": "color",
									"type": "string"
								},
								{
									"internalType": "uint256",
									"name": "numberOfDoors",
									"type": "uint256"
								}
							],
							"internalType": "struct GarageManager.Car[]",
							"name": "",
							"type": "tuple[]"
						}
					],
					"stateMutability": "view",
					"type": "function"
				},
				{
					"inputs": [],
					"name": "resetMyGarage",
					"outputs": [],
					"stateMutability": "nonpayable",
					"type": "function"
				},
				{
					"inputs": [
						{
							"internalType": "uint256",
							"name": "_index",
							"type": "uint256"
						},
						{
							"internalType": "string",
							"name": "_make",
							"type": "string"
						},
						{
							"internalType": "string",
							"name": "_model",
							"type": "string"
						},
						{
							"internalType": "string",
							"name": "_color",
							"type": "string"
						},
						{
							"internalType": "uint256",
							"name": "_numberOfDoors",
							"type": "uint256"
						}
					],
					"name": "updateCar",
					"outputs": [],
					"stateMutability": "nonpayable",
					"type": "function"
				}
			],
			"devdoc": {
				"kind": "dev",
				"methods": {},
				"version": 1
			},
			"evm": {
				"assembly": "    /* \"contracts/06_GarageManager.sol\":68:1733  contract GarageManager {... */\n  mstore(0x40, 0x80)\n  callvalue\n  dup1\n  iszero\n  tag_1\n  jumpi\n  revert(0x00, 0x00)\ntag_1:\n  pop\n  dataSize(sub_0)\n  dup1\n  dataOffset(sub_0)\n  0x00\n  codecopy\n  0x00\n  return\nstop\n\nsub_0: assembly {\n        /* \"contracts/06_GarageManager.sol\":68:1733  contract GarageManager {... */\n      mstore(0x40, 0x80)\n      callvalue\n      dup1\n      iszero\n      tag_1\n      jumpi\n      revert(0x00, 0x00)\n    tag_1:\n      pop\n      jumpi(tag_2, lt(calldatasize, 0x04))\n      shr(0xe0, calldataload(0x00))\n      dup1\n      0x2698286c\n      eq\n      tag_3\n      jumpi\n      dup1\n      0x341fa05d\n      eq\n      tag_4\n      jumpi\n      dup1\n      0x3ecd55a9\n      eq\n      tag_5\n      jumpi\n      dup1\n      0x4cd1ed3d\n      eq\n      tag_6\n      jumpi\n      dup1\n      0x6dcb7896\n      eq\n      tag_7\n      jumpi\n      dup1\n      0xd2d50bd8\n      eq\n      tag_8\n      jumpi\n    tag_2:\n      revert(0x00, 0x00)\n        /* \"contracts/06_GarageManager.sol\":782:894  function getUserCars(address _user) external view returns (Car[] memory) {... */\n    tag_3:\n      tag_9\n      0x04\n      dup1\n      calldatasize\n      sub\n      dup2\n      add\n      swap1\n      tag_10\n      swap2\n      swap1\n      tag_11\n      jump\t// in\n    tag_10:\n      tag_12\n      jump\t// in\n    tag_9:\n      mload(0x40)\n      tag_13\n      swap2\n      swap1\n      tag_14\n      jump\t// in\n    tag_13:\n      mload(0x40)\n      dup1\n      swap2\n      sub\n      swap1\n      return\n        /* \"contracts/06_GarageManager.sol\":672:774  function getMyCars() external view returns (Car[] memory) {... */\n    tag_4:\n      tag_15\n      tag_16\n      jump\t// in\n    tag_15:\n      mload(0x40)\n      tag_17\n      swap2\n      swap1\n      tag_14\n      jump\t// in\n    tag_17:\n      mload(0x40)\n      dup1\n      swap2\n      sub\n      swap1\n      return\n        /* \"contracts/06_GarageManager.sol\":261:300  mapping(address => Car[]) public garage */\n    tag_5:\n      tag_18\n      0x04\n      dup1\n      calldatasize\n      sub\n      dup2\n      add\n      swap1\n      tag_19\n      swap2\n      swap1\n      tag_20\n      jump\t// in\n    tag_19:\n      tag_21\n      jump\t// in\n    tag_18:\n      mload(0x40)\n      tag_22\n      swap5\n      swap4\n      swap3\n      swap2\n      swap1\n      tag_23\n      jump\t// in\n    tag_22:\n      mload(0x40)\n      dup1\n      swap2\n      sub\n      swap1\n      return\n        /* \"contracts/06_GarageManager.sol\":902:1644  function updateCar(... */\n    tag_6:\n      tag_24\n      0x04\n      dup1\n      calldatasize\n      sub\n      dup2\n      add\n      swap1\n      tag_25\n      swap2\n      swap1\n      tag_26\n      jump\t// in\n    tag_25:\n      tag_27\n      jump\t// in\n    tag_24:\n      stop\n        /* \"contracts/06_GarageManager.sol\":1652:1730  function resetMyGarage() external {... */\n    tag_7:\n      tag_28\n      tag_29\n      jump\t// in\n    tag_28:\n      stop\n        /* \"contracts/06_GarageManager.sol\":309:664  function addCar(... */\n    tag_8:\n      tag_30\n      0x04\n      dup1\n      calldatasize\n      sub\n      dup2\n      add\n      swap1\n      tag_31\n      swap2\n      swap1\n      tag_32\n      jump\t// in\n    tag_31:\n      tag_33\n      jump\t// in\n    tag_30:\n      stop\n        /* \"contracts/06_GarageManager.sol\":782:894  function getUserCars(address _user) external view returns (Car[] memory) {... */\n    tag_12:\n        /* \"contracts/06_GarageManager.sol\":841:853  Car[] memory */\n      0x60\n        /* \"contracts/06_GarageManager.sol\":873:879  garage */\n      0x00\n        /* \"contracts/06_GarageManager.sol\":873:886  garage[_user] */\n      0x00\n        /* \"contracts/06_GarageManager.sol\":880:885  _user */\n      dup4\n        /* \"contracts/06_GarageManager.sol\":873:886  garage[_user] */\n      0xffffffffffffffffffffffffffffffffffffffff\n      and\n      0xffffffffffffffffffffffffffffffffffffffff\n      and\n      dup2\n      mstore\n      0x20\n      add\n      swap1\n      dup2\n      mstore\n      0x20\n      add\n      0x00\n      keccak256\n        /* \"contracts/06_GarageManager.sol\":866:886  return garage[_user] */\n      dup1\n      sload\n      dup1\n      0x20\n      mul\n      0x20\n      add\n      mload(0x40)\n      swap1\n      dup2\n      add\n      0x40\n      mstore\n      dup1\n      swap3\n      swap2\n      swap1\n      dup2\n      dup2\n      mstore\n      0x20\n      add\n      0x00\n      swap1\n    tag_35:\n      dup3\n      dup3\n      lt\n      iszero\n      tag_36\n      jumpi\n      dup4\n      dup3\n      swap1\n      0x00\n      mstore\n      keccak256(0x00, 0x20)\n      swap1\n      0x04\n      mul\n      add\n      mload(0x40)\n      dup1\n      0x80\n      add\n      0x40\n      mstore\n      swap1\n      dup2\n      0x00\n      dup3\n      add\n      dup1\n      sload\n      tag_38\n      swap1\n      tag_39\n      jump\t// in\n    tag_38:\n      dup1\n      0x1f\n      add\n      0x20\n      dup1\n      swap2\n      div\n      mul\n      0x20\n      add\n      mload(0x40)\n      swap1\n      dup2\n      add\n      0x40\n      mstore\n      dup1\n      swap3\n      swap2\n      swap1\n      dup2\n      dup2\n      mstore\n      0x20\n      add\n      dup3\n      dup1\n      sload\n      tag_40\n      swap1\n      tag_39\n      jump\t// in\n    tag_40:\n      dup1\n      iszero\n      tag_41\n      jumpi\n      dup1\n      0x1f\n      lt\n      tag_42\n      jumpi\n      0x0100\n      dup1\n      dup4\n      sload\n      div\n      mul\n      dup4\n      mstore\n      swap2\n      0x20\n      add\n      swap2\n      jump(tag_41)\n    tag_42:\n      dup3\n      add\n      swap2\n      swap1\n      0x00\n      mstore\n      keccak256(0x00, 0x20)\n      swap1\n    tag_43:\n      dup2\n      sload\n      dup2\n      mstore\n      swap1\n      0x01\n      add\n      swap1\n      0x20\n      add\n      dup1\n      dup4\n      gt\n      tag_43\n      jumpi\n      dup3\n      swap1\n      sub\n      0x1f\n      and\n      dup3\n      add\n      swap2\n    tag_41:\n      pop\n      pop\n      pop\n      pop\n      pop\n      dup2\n      mstore\n      0x20\n      add\n      0x01\n      dup3\n      add\n      dup1\n      sload\n      tag_44\n      swap1\n      tag_39\n      jump\t// in\n    tag_44:\n      dup1\n      0x1f\n      add\n      0x20\n      dup1\n      swap2\n      div\n      mul\n      0x20\n      add\n      mload(0x40)\n      swap1\n      dup2\n      add\n      0x40\n      mstore\n      dup1\n      swap3\n      swap2\n      swap1\n      dup2\n      dup2\n      mstore\n      0x20\n      add\n      dup3\n      dup1\n      sload\n      tag_45\n      swap1\n      tag_39\n      jump\t// in\n    tag_45:\n      dup1\n      iszero\n      tag_46\n      jumpi\n      dup1\n      0x1f\n      lt\n      tag_47\n      jumpi\n      0x0100\n      dup1\n      dup4\n      sload\n      div\n      mul\n      dup4\n      mstore\n      swap2\n      0x20\n      add\n      swap2\n      jump(tag_46)\n    tag_47:\n      dup3\n      add\n      swap2\n      swap1\n      0x00\n      mstore\n      keccak256(0x00, 0x20)\n      swap1\n    tag_48:\n      dup2\n      sload\n      dup2\n      mstore\n      swap1\n      0x01\n      add\n      swap1\n      0x20\n      add\n      dup1\n      dup4\n      gt\n      tag_48\n      jumpi\n      dup3\n      swap1\n      sub\n      0x1f\n      and\n      dup3\n      add\n      swap2\n    tag_46:\n      pop\n      pop\n      pop\n      pop\n      pop\n      dup2\n      mstore\n      0x20\n      add\n      0x02\n      dup3\n      add\n      dup1\n      sload\n      tag_49\n      swap1\n      tag_39\n      jump\t// in\n    tag_49:\n      dup1\n      0x1f\n      add\n      0x20\n      dup1\n      swap2\n      div\n      mul\n      0x20\n      add\n      mload(0x40)\n      swap1\n      dup2\n      add\n      0x40\n      mstore\n      dup1\n      swap3\n      swap2\n      swap1\n      dup2\n      dup2\n      mstore\n      0x20\n      add\n      dup3\n      dup1\n      sload\n      tag_50\n      swap1\n      tag_39\n      jump\t// in\n    tag_50:\n      dup1\n      iszero\n      tag_51\n      jumpi\n      dup1\n      0x1f\n      lt\n      tag_52\n      jumpi\n      0x0100\n      dup1\n      dup4\n      sload\n      div\n      mul\n      dup4\n      mstore\n      swap2\n      0x20\n      add\n      swap2\n      jump(tag_51)\n    tag_52:\n      dup3\n      add\n      swap2\n      swap1\n      0x00\n      mstore\n      keccak256(0x00, 0x20)\n      swap1\n    tag_53:\n      dup2\n      sload\n      dup2\n      mstore\n      swap1\n      0x01\n      add\n      swap1\n      0x20\n      add\n      dup1\n      dup4\n      gt\n      tag_53\n      jumpi\n      dup3\n      swap1\n      sub\n      0x1f\n      and\n      dup3\n      add\n      swap2\n    tag_51:\n      pop\n      pop\n      pop\n      pop\n      pop\n      dup2\n      mstore\n      0x20\n      add\n      0x03\n      dup3\n      add\n      sload\n      dup2\n      mstore\n      pop\n      pop\n      dup2\n      mstore\n      0x20\n      add\n      swap1\n      0x01\n      add\n      swap1\n      jump(tag_35)\n    tag_36:\n      pop\n      pop\n      pop\n      pop\n      swap1\n      pop\n        /* \"contracts/06_GarageManager.sol\":782:894  function getUserCars(address _user) external view returns (Car[] memory) {... */\n      swap2\n      swap1\n      pop\n      jump\t// out\n        /* \"contracts/06_GarageManager.sol\":672:774  function getMyCars() external view returns (Car[] memory) {... */\n    tag_16:\n        /* \"contracts/06_GarageManager.sol\":716:728  Car[] memory */\n      0x60\n        /* \"contracts/06_GarageManager.sol\":748:754  garage */\n      0x00\n        /* \"contracts/06_GarageManager.sol\":748:766  garage[msg.sender] */\n      0x00\n        /* \"contracts/06_GarageManager.sol\":755:765  msg.sender */\n      caller\n        /* \"contracts/06_GarageManager.sol\":748:766  garage[msg.sender] */\n      0xffffffffffffffffffffffffffffffffffffffff\n      and\n      0xffffffffffffffffffffffffffffffffffffffff\n      and\n      dup2\n      mstore\n      0x20\n      add\n      swap1\n      dup2\n      mstore\n      0x20\n      add\n      0x00\n      keccak256\n        /* \"contracts/06_GarageManager.sol\":741:766  return garage[msg.sender] */\n      dup1\n      sload\n      dup1\n      0x20\n      mul\n      0x20\n      add\n      mload(0x40)\n      swap1\n      dup2\n      add\n      0x40\n      mstore\n      dup1\n      swap3\n      swap2\n      swap1\n      dup2\n      dup2\n      mstore\n      0x20\n      add\n      0x00\n      swap1\n    tag_55:\n      dup3\n      dup3\n      lt\n      iszero\n      tag_56\n      jumpi\n      dup4\n      dup3\n      swap1\n      0x00\n      mstore\n      keccak256(0x00, 0x20)\n      swap1\n      0x04\n      mul\n      add\n      mload(0x40)\n      dup1\n      0x80\n      add\n      0x40\n      mstore\n      swap1\n      dup2\n      0x00\n      dup3\n      add\n      dup1\n      sload\n      tag_58\n      swap1\n      tag_39\n      jump\t// in\n    tag_58:\n      dup1\n      0x1f\n      add\n      0x20\n      dup1\n      swap2\n      div\n      mul\n      0x20\n      add\n      mload(0x40)\n      swap1\n      dup2\n      add\n      0x40\n      mstore\n      dup1\n      swap3\n      swap2\n      swap1\n      dup2\n      dup2\n      mstore\n      0x20\n      add\n      dup3\n      dup1\n      sload\n      tag_59\n      swap1\n      tag_39\n      jump\t// in\n    tag_59:\n      dup1\n      iszero\n      tag_60\n      jumpi\n      dup1\n      0x1f\n      lt\n      tag_61\n      jumpi\n      0x0100\n      dup1\n      dup4\n      sload\n      div\n      mul\n      dup4\n      mstore\n      swap2\n      0x20\n      add\n      swap2\n      jump(tag_60)\n    tag_61:\n      dup3\n      add\n      swap2\n      swap1\n      0x00\n      mstore\n      keccak256(0x00, 0x20)\n      swap1\n    tag_62:\n      dup2\n      sload\n      dup2\n      mstore\n      swap1\n      0x01\n      add\n      swap1\n      0x20\n      add\n      dup1\n      dup4\n      gt\n      tag_62\n      jumpi\n      dup3\n      swap1\n      sub\n      0x1f\n      and\n      dup3\n      add\n      swap2\n    tag_60:\n      pop\n      pop\n      pop\n      pop\n      pop\n      dup2\n      mstore\n      0x20\n      add\n      0x01\n      dup3\n      add\n      dup1\n      sload\n      tag_63\n      swap1\n      tag_39\n      jump\t// in\n    tag_63:\n      dup1\n      0x1f\n      add\n      0x20\n      dup1\n      swap2\n      div\n      mul\n      0x20\n      add\n      mload(0x40)\n      swap1\n      dup2\n      add\n      0x40\n      mstore\n      dup1\n      swap3\n      swap2\n      swap1\n      dup2\n      dup2\n      mstore\n      0x20\n      add\n      dup3\n      dup1\n      sload\n      tag_64\n      swap1\n      tag_39\n      jump\t// in\n    tag_64:\n      dup1\n      iszero\n      tag_65\n      jumpi\n      dup1\n      0x1f\n      lt\n      tag_66\n      jumpi\n      0x0100\n      dup1\n      dup4\n      sload\n      div\n      mul\n      dup4\n      mstore\n      swap2\n      0x20\n      add\n      swap2\n      jump(tag_65)\n    tag_66:\n      dup3\n      add\n      swap2\n      swap1\n      0x00\n      mstore\n      keccak256(0x00, 0x20)\n      swap1\n    tag_67:\n      dup2\n      sload\n      dup2\n      mstore\n      swap1\n      0x01\n      add\n      swap1\n      0x20\n      add\n      dup1\n      dup4\n      gt\n      tag_67\n      jumpi\n      dup3\n      swap1\n      sub\n      0x1f\n      and\n      dup3\n      add\n      swap2\n    tag_65:\n      pop\n      pop\n      pop\n      pop\n      pop\n      dup2\n      mstore\n      0x20\n      add\n      0x02\n      dup3\n      add\n      dup1\n      sload\n      tag_68\n      swap1\n      tag_39\n      jump\t// in\n    tag_68:\n      dup1\n      0x1f\n      add\n      0x20\n      dup1\n      swap2\n      div\n      mul\n      0x20\n      add\n      mload(0x40)\n      swap1\n      dup2\n      add\n      0x40\n      mstore\n      dup1\n      swap3\n      swap2\n      swap1\n      dup2\n      dup2\n      mstore\n      0x20\n      add\n      dup3\n      dup1\n      sload\n      tag_69\n      swap1\n      tag_39\n      jump\t// in\n    tag_69:\n      dup1\n      iszero\n      tag_70\n      jumpi\n      dup1\n      0x1f\n      lt\n      tag_71\n      jumpi\n      0x0100\n      dup1\n      dup4\n      sload\n      div\n      mul\n      dup4\n      mstore\n      swap2\n      0x20\n      add\n      swap2\n      jump(tag_70)\n    tag_71:\n      dup3\n      add\n      swap2\n      swap1\n      0x00\n      mstore\n      keccak256(0x00, 0x20)\n      swap1\n    tag_72:\n      dup2\n      sload\n      dup2\n      mstore\n      swap1\n      0x01\n      add\n      swap1\n      0x20\n      add\n      dup1\n      dup4\n      gt\n      tag_72\n      jumpi\n      dup3\n      swap1\n      sub\n      0x1f\n      and\n      dup3\n      add\n      swap2\n    tag_70:\n      pop\n      pop\n      pop\n      pop\n      pop\n      dup2\n      mstore\n      0x20\n      add\n      0x03\n      dup3\n      add\n      sload\n      dup2\n      mstore\n      pop\n      pop\n      dup2\n      mstore\n      0x20\n      add\n      swap1\n      0x01\n      add\n      swap1\n      jump(tag_55)\n    tag_56:\n      pop\n      pop\n      pop\n      pop\n      swap1\n      pop\n        /* \"contracts/06_GarageManager.sol\":672:774  function getMyCars() external view returns (Car[] memory) {... */\n      swap1\n      jump\t// out\n        /* \"contracts/06_GarageManager.sol\":261:300  mapping(address => Car[]) public garage */\n    tag_21:\n      mstore(0x20, 0x00)\n      dup2\n      0x00\n      mstore\n      keccak256(0x00, 0x40)\n      dup2\n      dup2\n      sload\n      dup2\n      lt\n      tag_73\n      jumpi\n      0x00\n      dup1\n      revert\n    tag_73:\n      swap1\n      0x00\n      mstore\n      keccak256(0x00, 0x20)\n      swap1\n      0x04\n      mul\n      add\n      0x00\n      swap2\n      pop\n      swap2\n      pop\n      pop\n      dup1\n      0x00\n      add\n      dup1\n      sload\n      tag_75\n      swap1\n      tag_39\n      jump\t// in\n    tag_75:\n      dup1\n      0x1f\n      add\n      0x20\n      dup1\n      swap2\n      div\n      mul\n      0x20\n      add\n      mload(0x40)\n      swap1\n      dup2\n      add\n      0x40\n      mstore\n      dup1\n      swap3\n      swap2\n      swap1\n      dup2\n      dup2\n      mstore\n      0x20\n      add\n      dup3\n      dup1\n      sload\n      tag_76\n      swap1\n      tag_39\n      jump\t// in\n    tag_76:\n      dup1\n      iszero\n      tag_77\n      jumpi\n      dup1\n      0x1f\n      lt\n      tag_78\n      jumpi\n      0x0100\n      dup1\n      dup4\n      sload\n      div\n      mul\n      dup4\n      mstore\n      swap2\n      0x20\n      add\n      swap2\n      jump(tag_77)\n    tag_78:\n      dup3\n      add\n      swap2\n      swap1\n      0x00\n      mstore\n      keccak256(0x00, 0x20)\n      swap1\n    tag_79:\n      dup2\n      sload\n      dup2\n      mstore\n      swap1\n      0x01\n      add\n      swap1\n      0x20\n      add\n      dup1\n      dup4\n      gt\n      tag_79\n      jumpi\n      dup3\n      swap1\n      sub\n      0x1f\n      and\n      dup3\n      add\n      swap2\n    tag_77:\n      pop\n      pop\n      pop\n      pop\n      pop\n      swap1\n      dup1\n      0x01\n      add\n      dup1\n      sload\n      tag_80\n      swap1\n      tag_39\n      jump\t// in\n    tag_80:\n      dup1\n      0x1f\n      add\n      0x20\n      dup1\n      swap2\n      div\n      mul\n      0x20\n      add\n      mload(0x40)\n      swap1\n      dup2\n      add\n      0x40\n      mstore\n      dup1\n      swap3\n      swap2\n      swap1\n      dup2\n      dup2\n      mstore\n      0x20\n      add\n      dup3\n      dup1\n      sload\n      tag_81\n      swap1\n      tag_39\n      jump\t// in\n    tag_81:\n      dup1\n      iszero\n      tag_82\n      jumpi\n      dup1\n      0x1f\n      lt\n      tag_83\n      jumpi\n      0x0100\n      dup1\n      dup4\n      sload\n      div\n      mul\n      dup4\n      mstore\n      swap2\n      0x20\n      add\n      swap2\n      jump(tag_82)\n    tag_83:\n      dup3\n      add\n      swap2\n      swap1\n      0x00\n      mstore\n      keccak256(0x00, 0x20)\n      swap1\n    tag_84:\n      dup2\n      sload\n      dup2\n      mstore\n      swap1\n      0x01\n      add\n      swap1\n      0x20\n      add\n      dup1\n      dup4\n      gt\n      tag_84\n      jumpi\n      dup3\n      swap1\n      sub\n      0x1f\n      and\n      dup3\n      add\n      swap2\n    tag_82:\n      pop\n      pop\n      pop\n      pop\n      pop\n      swap1\n      dup1\n      0x02\n      add\n      dup1\n      sload\n      tag_85\n      swap1\n      tag_39\n      jump\t// in\n    tag_85:\n      dup1\n      0x1f\n      add\n      0x20\n      dup1\n      swap2\n      div\n      mul\n      0x20\n      add\n      mload(0x40)\n      swap1\n      dup2\n      add\n      0x40\n      mstore\n      dup1\n      swap3\n      swap2\n      swap1\n      dup2\n      dup2\n      mstore\n      0x20\n      add\n      dup3\n      dup1\n      sload\n      tag_86\n      swap1\n      tag_39\n      jump\t// in\n    tag_86:\n      dup1\n      iszero\n      tag_87\n      jumpi\n      dup1\n      0x1f\n      lt\n      tag_88\n      jumpi\n      0x0100\n      dup1\n      dup4\n      sload\n      div\n      mul\n      dup4\n      mstore\n      swap2\n      0x20\n      add\n      swap2\n      jump(tag_87)\n    tag_88:\n      dup3\n      add\n      swap2\n      swap1\n      0x00\n      mstore\n      keccak256(0x00, 0x20)\n      swap1\n    tag_89:\n      dup2\n      sload\n      dup2\n      mstore\n      swap1\n      0x01\n      add\n      swap1\n      0x20\n      add\n      dup1\n      dup4\n      gt\n      tag_89\n      jumpi\n      dup3\n      swap1\n      sub\n      0x1f\n      and\n      dup3\n      add\n      swap2\n    tag_87:\n      pop\n      pop\n      pop\n      pop\n      pop\n      swap1\n      dup1\n      0x03\n      add\n      sload\n      swap1\n      pop\n      dup5\n      jump\t// out\n        /* \"contracts/06_GarageManager.sol\":902:1644  function updateCar(... */\n    tag_27:\n        /* \"contracts/06_GarageManager.sol\":1098:1116  Car[] storage cars */\n      0x00\n        /* \"contracts/06_GarageManager.sol\":1119:1125  garage */\n      0x00\n        /* \"contracts/06_GarageManager.sol\":1119:1137  garage[msg.sender] */\n      0x00\n        /* \"contracts/06_GarageManager.sol\":1126:1136  msg.sender */\n      caller\n        /* \"contracts/06_GarageManager.sol\":1119:1137  garage[msg.sender] */\n      0xffffffffffffffffffffffffffffffffffffffff\n      and\n      0xffffffffffffffffffffffffffffffffffffffff\n      and\n      dup2\n      mstore\n      0x20\n      add\n      swap1\n      dup2\n      mstore\n      0x20\n      add\n      0x00\n      keccak256\n        /* \"contracts/06_GarageManager.sol\":1098:1137  Car[] storage cars = garage[msg.sender] */\n      swap1\n      pop\n        /* \"contracts/06_GarageManager.sol\":1164:1168  cars */\n      dup1\n        /* \"contracts/06_GarageManager.sol\":1164:1175  cars.length */\n      dup1\n      sload\n      swap1\n      pop\n        /* \"contracts/06_GarageManager.sol\":1154:1160  _index */\n      dup10\n        /* \"contracts/06_GarageManager.sol\":1154:1175  _index >= cars.length */\n      lt\n        /* \"contracts/06_GarageManager.sol\":1150:1230  if (_index >= cars.length) {... */\n      tag_91\n      jumpi\n        /* \"contracts/06_GarageManager.sol\":1211:1217  _index */\n      dup9\n        /* \"contracts/06_GarageManager.sol\":1199:1218  BadCarIndex(_index) */\n      mload(0x40)\n      0x40c901ce00000000000000000000000000000000000000000000000000000000\n      dup2\n      mstore\n      0x04\n      add\n      tag_92\n      swap2\n      swap1\n      tag_93\n      jump\t// in\n    tag_92:\n      mload(0x40)\n      dup1\n      swap2\n      sub\n      swap1\n      revert\n        /* \"contracts/06_GarageManager.sol\":1150:1230  if (_index >= cars.length) {... */\n    tag_91:\n        /* \"contracts/06_GarageManager.sol\":1501:1506  _make */\n      dup8\n      dup8\n        /* \"contracts/06_GarageManager.sol\":1481:1485  cars */\n      dup3\n        /* \"contracts/06_GarageManager.sol\":1486:1492  _index */\n      dup12\n        /* \"contracts/06_GarageManager.sol\":1481:1493  cars[_index] */\n      dup2\n      sload\n      dup2\n      lt\n      tag_94\n      jumpi\n      tag_95\n      tag_96\n      jump\t// in\n    tag_95:\n    tag_94:\n      swap1\n      0x00\n      mstore\n      keccak256(0x00, 0x20)\n      swap1\n      0x04\n      mul\n      add\n        /* \"contracts/06_GarageManager.sol\":1481:1498  cars[_index].make */\n      0x00\n      add\n        /* \"contracts/06_GarageManager.sol\":1481:1506  cars[_index].make = _make */\n      swap2\n      dup3\n      tag_98\n      swap3\n      swap2\n      swap1\n      tag_99\n      jump\t// in\n    tag_98:\n      pop\n        /* \"contracts/06_GarageManager.sol\":1538:1544  _model */\n      dup6\n      dup6\n        /* \"contracts/06_GarageManager.sol\":1517:1521  cars */\n      dup3\n        /* \"contracts/06_GarageManager.sol\":1522:1528  _index */\n      dup12\n        /* \"contracts/06_GarageManager.sol\":1517:1529  cars[_index] */\n      dup2\n      sload\n      dup2\n      lt\n      tag_100\n      jumpi\n      tag_101\n      tag_96\n      jump\t// in\n    tag_101:\n    tag_100:\n      swap1\n      0x00\n      mstore\n      keccak256(0x00, 0x20)\n      swap1\n      0x04\n      mul\n      add\n        /* \"contracts/06_GarageManager.sol\":1517:1535  cars[_index].model */\n      0x01\n      add\n        /* \"contracts/06_GarageManager.sol\":1517:1544  cars[_index].model = _model */\n      swap2\n      dup3\n      tag_103\n      swap3\n      swap2\n      swap1\n      tag_99\n      jump\t// in\n    tag_103:\n      pop\n        /* \"contracts/06_GarageManager.sol\":1576:1582  _color */\n      dup4\n      dup4\n        /* \"contracts/06_GarageManager.sol\":1555:1559  cars */\n      dup3\n        /* \"contracts/06_GarageManager.sol\":1560:1566  _index */\n      dup12\n        /* \"contracts/06_GarageManager.sol\":1555:1567  cars[_index] */\n      dup2\n      sload\n      dup2\n      lt\n      tag_104\n      jumpi\n      tag_105\n      tag_96\n      jump\t// in\n    tag_105:\n    tag_104:\n      swap1\n      0x00\n      mstore\n      keccak256(0x00, 0x20)\n      swap1\n      0x04\n      mul\n      add\n        /* \"contracts/06_GarageManager.sol\":1555:1573  cars[_index].color */\n      0x02\n      add\n        /* \"contracts/06_GarageManager.sol\":1555:1582  cars[_index].color = _color */\n      swap2\n      dup3\n      tag_107\n      swap3\n      swap2\n      swap1\n      tag_99\n      jump\t// in\n    tag_107:\n      pop\n        /* \"contracts/06_GarageManager.sol\":1622:1636  _numberOfDoors */\n      dup2\n        /* \"contracts/06_GarageManager.sol\":1593:1597  cars */\n      dup2\n        /* \"contracts/06_GarageManager.sol\":1598:1604  _index */\n      dup11\n        /* \"contracts/06_GarageManager.sol\":1593:1605  cars[_index] */\n      dup2\n      sload\n      dup2\n      lt\n      tag_108\n      jumpi\n      tag_109\n      tag_96\n      jump\t// in\n    tag_109:\n    tag_108:\n      swap1\n      0x00\n      mstore\n      keccak256(0x00, 0x20)\n      swap1\n      0x04\n      mul\n      add\n        /* \"contracts/06_GarageManager.sol\":1593:1619  cars[_index].numberOfDoors */\n      0x03\n      add\n        /* \"contracts/06_GarageManager.sol\":1593:1636  cars[_index].numberOfDoors = _numberOfDoors */\n      dup2\n      swap1\n      sstore\n      pop\n        /* \"contracts/06_GarageManager.sol\":1087:1644  {... */\n      pop\n        /* \"contracts/06_GarageManager.sol\":902:1644  function updateCar(... */\n      pop\n      pop\n      pop\n      pop\n      pop\n      pop\n      pop\n      pop\n      jump\t// out\n        /* \"contracts/06_GarageManager.sol\":1652:1730  function resetMyGarage() external {... */\n    tag_29:\n        /* \"contracts/06_GarageManager.sol\":1704:1710  garage */\n      0x00\n        /* \"contracts/06_GarageManager.sol\":1704:1722  garage[msg.sender] */\n      0x00\n        /* \"contracts/06_GarageManager.sol\":1711:1721  msg.sender */\n      caller\n        /* \"contracts/06_GarageManager.sol\":1704:1722  garage[msg.sender] */\n      0xffffffffffffffffffffffffffffffffffffffff\n      and\n      0xffffffffffffffffffffffffffffffffffffffff\n      and\n      dup2\n      mstore\n      0x20\n      add\n      swap1\n      dup2\n      mstore\n      0x20\n      add\n      0x00\n      keccak256\n      0x00\n        /* \"contracts/06_GarageManager.sol\":1697:1722  delete garage[msg.sender] */\n      tag_112\n      swap2\n      swap1\n      tag_113\n      jump\t// in\n    tag_112:\n        /* \"contracts/06_GarageManager.sol\":1652:1730  function resetMyGarage() external {... */\n      jump\t// out\n        /* \"contracts/06_GarageManager.sol\":309:664  function addCar(... */\n    tag_33:\n        /* \"contracts/06_GarageManager.sol\":480:486  garage */\n      0x00\n        /* \"contracts/06_GarageManager.sol\":480:498  garage[msg.sender] */\n      0x00\n        /* \"contracts/06_GarageManager.sol\":487:497  msg.sender */\n      caller\n        /* \"contracts/06_GarageManager.sol\":480:498  garage[msg.sender] */\n      0xffffffffffffffffffffffffffffffffffffffff\n      and\n      0xffffffffffffffffffffffffffffffffffffffff\n      and\n      dup2\n      mstore\n      0x20\n      add\n      swap1\n      dup2\n      mstore\n      0x20\n      add\n      0x00\n      keccak256\n        /* \"contracts/06_GarageManager.sol\":518:643  Car(... */\n      mload(0x40)\n      dup1\n      0x80\n      add\n      0x40\n      mstore\n      dup1\n        /* \"contracts/06_GarageManager.sol\":540:545  _make */\n      dup10\n      dup10\n        /* \"contracts/06_GarageManager.sol\":518:643  Car(... */\n      dup1\n      dup1\n      0x1f\n      add\n      0x20\n      dup1\n      swap2\n      div\n      mul\n      0x20\n      add\n      mload(0x40)\n      swap1\n      dup2\n      add\n      0x40\n      mstore\n      dup1\n      swap4\n      swap3\n      swap2\n      swap1\n      dup2\n      dup2\n      mstore\n      0x20\n      add\n      dup4\n      dup4\n      dup1\n      dup3\n      dup5\n      calldatacopy\n      0x00\n      dup2\n      dup5\n      add\n      mstore\n      not(0x1f)\n      0x1f\n      dup3\n      add\n      and\n      swap1\n      pop\n      dup1\n      dup4\n      add\n      swap3\n      pop\n      pop\n      pop\n      pop\n      pop\n      pop\n      pop\n      dup2\n      mstore\n      0x20\n      add\n        /* \"contracts/06_GarageManager.sol\":564:570  _model */\n      dup8\n      dup8\n        /* \"contracts/06_GarageManager.sol\":518:643  Car(... */\n      dup1\n      dup1\n      0x1f\n      add\n      0x20\n      dup1\n      swap2\n      div\n      mul\n      0x20\n      add\n      mload(0x40)\n      swap1\n      dup2\n      add\n      0x40\n      mstore\n      dup1\n      swap4\n      swap3\n      swap2\n      swap1\n      dup2\n      dup2\n      mstore\n      0x20\n      add\n      dup4\n      dup4\n      dup1\n      dup3\n      dup5\n      calldatacopy\n      0x00\n      dup2\n      dup5\n      add\n      mstore\n      not(0x1f)\n      0x1f\n      dup3\n      add\n      and\n      swap1\n      pop\n      dup1\n      dup4\n      add\n      swap3\n      pop\n      pop\n      pop\n      pop\n      pop\n      pop\n      pop\n      dup2\n      mstore\n      0x20\n      add\n        /* \"contracts/06_GarageManager.sol\":589:595  _color */\n      dup6\n      dup6\n        /* \"contracts/06_GarageManager.sol\":518:643  Car(... */\n      dup1\n      dup1\n      0x1f\n      add\n      0x20\n      dup1\n      swap2\n      div\n      mul\n      0x20\n      add\n      mload(0x40)\n      swap1\n      dup2\n      add\n      0x40\n      mstore\n      dup1\n      swap4\n      swap3\n      swap2\n      swap1\n      dup2\n      dup2\n      mstore\n      0x20\n      add\n      dup4\n      dup4\n      dup1\n      dup3\n      dup5\n      calldatacopy\n      0x00\n      dup2\n      dup5\n      add\n      mstore\n      not(0x1f)\n      0x1f\n      dup3\n      add\n      and\n      swap1\n      pop\n      dup1\n      dup4\n      add\n      swap3\n      pop\n      pop\n      pop\n      pop\n      pop\n      pop\n      pop\n      dup2\n      mstore\n      0x20\n      add\n        /* \"contracts/06_GarageManager.sol\":614:628  _numberOfDoors */\n      dup4\n        /* \"contracts/06_GarageManager.sol\":518:643  Car(... */\n      dup2\n      mstore\n      pop\n        /* \"contracts/06_GarageManager.sol\":480:654  garage[msg.sender].push(... */\n      swap1\n      dup1\n      0x01\n      dup2\n      sload\n      add\n      dup1\n      dup3\n      sstore\n      dup1\n      swap2\n      pop\n      pop\n      0x01\n      swap1\n      sub\n      swap1\n      0x00\n      mstore\n      keccak256(0x00, 0x20)\n      swap1\n      0x04\n      mul\n      add\n      0x00\n      swap1\n      swap2\n      swap1\n      swap2\n      swap1\n      swap2\n      pop\n      0x00\n      dup3\n      add\n      mload\n      dup2\n      0x00\n      add\n      swap1\n      dup2\n      tag_116\n      swap2\n      swap1\n      tag_117\n      jump\t// in\n    tag_116:\n      pop\n      0x20\n      dup3\n      add\n      mload\n      dup2\n      0x01\n      add\n      swap1\n      dup2\n      tag_118\n      swap2\n      swap1\n      tag_117\n      jump\t// in\n    tag_118:\n      pop\n      0x40\n      dup3\n      add\n      mload\n      dup2\n      0x02\n      add\n      swap1\n      dup2\n      tag_119\n      swap2\n      swap1\n      tag_117\n      jump\t// in\n    tag_119:\n      pop\n      0x60\n      dup3\n      add\n      mload\n      dup2\n      0x03\n      add\n      sstore\n      pop\n      pop\n        /* \"contracts/06_GarageManager.sol\":309:664  function addCar(... */\n      pop\n      pop\n      pop\n      pop\n      pop\n      pop\n      pop\n      jump\t// out\n    tag_113:\n      pop\n      dup1\n      sload\n      0x00\n      dup3\n      sstore\n      0x04\n      mul\n      swap1\n      0x00\n      mstore\n      keccak256(0x00, 0x20)\n      swap1\n      dup2\n      add\n      swap1\n      tag_121\n      swap2\n      swap1\n      tag_122\n      jump\t// in\n    tag_121:\n      pop\n      jump\t// out\n    tag_122:\n    tag_123:\n      dup1\n      dup3\n      gt\n      iszero\n      tag_124\n      jumpi\n      0x00\n      0x00\n      dup3\n      add\n      0x00\n      tag_125\n      swap2\n      swap1\n      tag_126\n      jump\t// in\n    tag_125:\n      0x01\n      dup3\n      add\n      0x00\n      tag_127\n      swap2\n      swap1\n      tag_126\n      jump\t// in\n    tag_127:\n      0x02\n      dup3\n      add\n      0x00\n      tag_128\n      swap2\n      swap1\n      tag_126\n      jump\t// in\n    tag_128:\n      0x03\n      dup3\n      add\n      0x00\n      swap1\n      sstore\n      pop\n      0x04\n      add\n      jump(tag_123)\n    tag_124:\n      pop\n      swap1\n      jump\t// out\n    tag_126:\n      pop\n      dup1\n      sload\n      tag_129\n      swap1\n      tag_39\n      jump\t// in\n    tag_129:\n      0x00\n      dup3\n      sstore\n      dup1\n      0x1f\n      lt\n      tag_131\n      jumpi\n      pop\n      jump(tag_130)\n    tag_131:\n      0x1f\n      add\n      0x20\n      swap1\n      div\n      swap1\n      0x00\n      mstore\n      keccak256(0x00, 0x20)\n      swap1\n      dup2\n      add\n      swap1\n      tag_132\n      swap2\n      swap1\n      tag_133\n      jump\t// in\n    tag_132:\n    tag_130:\n      pop\n      jump\t// out\n    tag_133:\n    tag_134:\n      dup1\n      dup3\n      gt\n      iszero\n      tag_135\n      jumpi\n      0x00\n      dup2\n      0x00\n      swap1\n      sstore\n      pop\n      0x01\n      add\n      jump(tag_134)\n    tag_135:\n      pop\n      swap1\n      jump\t// out\n        /* \"#utility.yul\":88:205   */\n    tag_137:\n        /* \"#utility.yul\":197:198   */\n      0x00\n        /* \"#utility.yul\":194:195   */\n      0x00\n        /* \"#utility.yul\":187:199   */\n      revert\n        /* \"#utility.yul\":211:328   */\n    tag_138:\n        /* \"#utility.yul\":320:321   */\n      0x00\n        /* \"#utility.yul\":317:318   */\n      0x00\n        /* \"#utility.yul\":310:322   */\n      revert\n        /* \"#utility.yul\":334:460   */\n    tag_139:\n        /* \"#utility.yul\":371:378   */\n      0x00\n        /* \"#utility.yul\":411:453   */\n      0xffffffffffffffffffffffffffffffffffffffff\n        /* \"#utility.yul\":404:409   */\n      dup3\n        /* \"#utility.yul\":400:454   */\n      and\n        /* \"#utility.yul\":389:454   */\n      swap1\n      pop\n        /* \"#utility.yul\":334:460   */\n      swap2\n      swap1\n      pop\n      jump\t// out\n        /* \"#utility.yul\":466:562   */\n    tag_140:\n        /* \"#utility.yul\":503:510   */\n      0x00\n        /* \"#utility.yul\":532:556   */\n      tag_190\n        /* \"#utility.yul\":550:555   */\n      dup3\n        /* \"#utility.yul\":532:556   */\n      tag_139\n      jump\t// in\n    tag_190:\n        /* \"#utility.yul\":521:556   */\n      swap1\n      pop\n        /* \"#utility.yul\":466:562   */\n      swap2\n      swap1\n      pop\n      jump\t// out\n        /* \"#utility.yul\":568:690   */\n    tag_141:\n        /* \"#utility.yul\":641:665   */\n      tag_192\n        /* \"#utility.yul\":659:664   */\n      dup2\n        /* \"#utility.yul\":641:665   */\n      tag_140\n      jump\t// in\n    tag_192:\n        /* \"#utility.yul\":634:639   */\n      dup2\n        /* \"#utility.yul\":631:666   */\n      eq\n        /* \"#utility.yul\":621:684   */\n      tag_193\n      jumpi\n        /* \"#utility.yul\":680:681   */\n      0x00\n        /* \"#utility.yul\":677:678   */\n      0x00\n        /* \"#utility.yul\":670:682   */\n      revert\n        /* \"#utility.yul\":621:684   */\n    tag_193:\n        /* \"#utility.yul\":568:690   */\n      pop\n      jump\t// out\n        /* \"#utility.yul\":696:835   */\n    tag_142:\n        /* \"#utility.yul\":742:747   */\n      0x00\n        /* \"#utility.yul\":780:786   */\n      dup2\n        /* \"#utility.yul\":767:787   */\n      calldataload\n        /* \"#utility.yul\":758:787   */\n      swap1\n      pop\n        /* \"#utility.yul\":796:829   */\n      tag_195\n        /* \"#utility.yul\":823:828   */\n      dup2\n        /* \"#utility.yul\":796:829   */\n      tag_141\n      jump\t// in\n    tag_195:\n        /* \"#utility.yul\":696:835   */\n      swap3\n      swap2\n      pop\n      pop\n      jump\t// out\n        /* \"#utility.yul\":841:1170   */\n    tag_11:\n        /* \"#utility.yul\":900:906   */\n      0x00\n        /* \"#utility.yul\":949:951   */\n      0x20\n        /* \"#utility.yul\":937:946   */\n      dup3\n        /* \"#utility.yul\":928:935   */\n      dup5\n        /* \"#utility.yul\":924:947   */\n      sub\n        /* \"#utility.yul\":920:952   */\n      slt\n        /* \"#utility.yul\":917:1036   */\n      iszero\n      tag_197\n      jumpi\n        /* \"#utility.yul\":955:1034   */\n      tag_198\n      tag_137\n      jump\t// in\n    tag_198:\n        /* \"#utility.yul\":917:1036   */\n    tag_197:\n        /* \"#utility.yul\":1075:1076   */\n      0x00\n        /* \"#utility.yul\":1100:1153   */\n      tag_199\n        /* \"#utility.yul\":1145:1152   */\n      dup5\n        /* \"#utility.yul\":1136:1142   */\n      dup3\n        /* \"#utility.yul\":1125:1134   */\n      dup6\n        /* \"#utility.yul\":1121:1143   */\n      add\n        /* \"#utility.yul\":1100:1153   */\n      tag_142\n      jump\t// in\n    tag_199:\n        /* \"#utility.yul\":1090:1153   */\n      swap2\n      pop\n        /* \"#utility.yul\":1046:1163   */\n      pop\n        /* \"#utility.yul\":841:1170   */\n      swap3\n      swap2\n      pop\n      pop\n      jump\t// out\n        /* \"#utility.yul\":1176:1309   */\n    tag_143:\n        /* \"#utility.yul\":1262:1268   */\n      0x00\n        /* \"#utility.yul\":1296:1301   */\n      dup2\n        /* \"#utility.yul\":1290:1302   */\n      mload\n        /* \"#utility.yul\":1280:1302   */\n      swap1\n      pop\n        /* \"#utility.yul\":1176:1309   */\n      swap2\n      swap1\n      pop\n      jump\t// out\n        /* \"#utility.yul\":1315:1518   */\n    tag_144:\n        /* \"#utility.yul\":1433:1444   */\n      0x00\n        /* \"#utility.yul\":1467:1473   */\n      dup3\n        /* \"#utility.yul\":1462:1465   */\n      dup3\n        /* \"#utility.yul\":1455:1474   */\n      mstore\n        /* \"#utility.yul\":1507:1511   */\n      0x20\n        /* \"#utility.yul\":1502:1505   */\n      dup3\n        /* \"#utility.yul\":1498:1512   */\n      add\n        /* \"#utility.yul\":1483:1512   */\n      swap1\n      pop\n        /* \"#utility.yul\":1315:1518   */\n      swap3\n      swap2\n      pop\n      pop\n      jump\t// out\n        /* \"#utility.yul\":1524:1675   */\n    tag_145:\n        /* \"#utility.yul\":1610:1614   */\n      0x00\n        /* \"#utility.yul\":1633:1636   */\n      dup2\n        /* \"#utility.yul\":1625:1636   */\n      swap1\n      pop\n        /* \"#utility.yul\":1663:1667   */\n      0x20\n        /* \"#utility.yul\":1658:1661   */\n      dup3\n        /* \"#utility.yul\":1654:1668   */\n      add\n        /* \"#utility.yul\":1646:1668   */\n      swap1\n      pop\n        /* \"#utility.yul\":1524:1675   */\n      swap2\n      swap1\n      pop\n      jump\t// out\n        /* \"#utility.yul\":1681:1780   */\n    tag_146:\n        /* \"#utility.yul\":1733:1739   */\n      0x00\n        /* \"#utility.yul\":1767:1772   */\n      dup2\n        /* \"#utility.yul\":1761:1773   */\n      mload\n        /* \"#utility.yul\":1751:1773   */\n      swap1\n      pop\n        /* \"#utility.yul\":1681:1780   */\n      swap2\n      swap1\n      pop\n      jump\t// out\n        /* \"#utility.yul\":1786:1945   */\n    tag_147:\n        /* \"#utility.yul\":1860:1871   */\n      0x00\n        /* \"#utility.yul\":1894:1900   */\n      dup3\n        /* \"#utility.yul\":1889:1892   */\n      dup3\n        /* \"#utility.yul\":1882:1901   */\n      mstore\n        /* \"#utility.yul\":1934:1938   */\n      0x20\n        /* \"#utility.yul\":1929:1932   */\n      dup3\n        /* \"#utility.yul\":1925:1939   */\n      add\n        /* \"#utility.yul\":1910:1939   */\n      swap1\n      pop\n        /* \"#utility.yul\":1786:1945   */\n      swap3\n      swap2\n      pop\n      pop\n      jump\t// out\n        /* \"#utility.yul\":1951:2090   */\n    tag_148:\n        /* \"#utility.yul\":2040:2046   */\n      dup3\n        /* \"#utility.yul\":2035:2038   */\n      dup2\n        /* \"#utility.yul\":2030:2033   */\n      dup4\n        /* \"#utility.yul\":2024:2047   */\n      mcopy\n        /* \"#utility.yul\":2081:2082   */\n      0x00\n        /* \"#utility.yul\":2072:2078   */\n      dup4\n        /* \"#utility.yul\":2067:2070   */\n      dup4\n        /* \"#utility.yul\":2063:2079   */\n      add\n        /* \"#utility.yul\":2056:2083   */\n      mstore\n        /* \"#utility.yul\":1951:2090   */\n      pop\n      pop\n      pop\n      jump\t// out\n        /* \"#utility.yul\":2096:2198   */\n    tag_149:\n        /* \"#utility.yul\":2137:2143   */\n      0x00\n        /* \"#utility.yul\":2188:2190   */\n      0x1f\n        /* \"#utility.yul\":2184:2191   */\n      not\n        /* \"#utility.yul\":2179:2181   */\n      0x1f\n        /* \"#utility.yul\":2172:2177   */\n      dup4\n        /* \"#utility.yul\":2168:2182   */\n      add\n        /* \"#utility.yul\":2164:2192   */\n      and\n        /* \"#utility.yul\":2154:2192   */\n      swap1\n      pop\n        /* \"#utility.yul\":2096:2198   */\n      swap2\n      swap1\n      pop\n      jump\t// out\n        /* \"#utility.yul\":2204:2561   */\n    tag_150:\n        /* \"#utility.yul\":2282:2285   */\n      0x00\n        /* \"#utility.yul\":2310:2349   */\n      tag_208\n        /* \"#utility.yul\":2343:2348   */\n      dup3\n        /* \"#utility.yul\":2310:2349   */\n      tag_146\n      jump\t// in\n    tag_208:\n        /* \"#utility.yul\":2365:2426   */\n      tag_209\n        /* \"#utility.yul\":2419:2425   */\n      dup2\n        /* \"#utility.yul\":2414:2417   */\n      dup6\n        /* \"#utility.yul\":2365:2426   */\n      tag_147\n      jump\t// in\n    tag_209:\n        /* \"#utility.yul\":2358:2426   */\n      swap4\n      pop\n        /* \"#utility.yul\":2435:2500   */\n      tag_210\n        /* \"#utility.yul\":2493:2499   */\n      dup2\n        /* \"#utility.yul\":2488:2491   */\n      dup6\n        /* \"#utility.yul\":2481:2485   */\n      0x20\n        /* \"#utility.yul\":2474:2479   */\n      dup7\n        /* \"#utility.yul\":2470:2486   */\n      add\n        /* \"#utility.yul\":2435:2500   */\n      tag_148\n      jump\t// in\n    tag_210:\n        /* \"#utility.yul\":2525:2554   */\n      tag_211\n        /* \"#utility.yul\":2547:2553   */\n      dup2\n        /* \"#utility.yul\":2525:2554   */\n      tag_149\n      jump\t// in\n    tag_211:\n        /* \"#utility.yul\":2520:2523   */\n      dup5\n        /* \"#utility.yul\":2516:2555   */\n      add\n        /* \"#utility.yul\":2509:2555   */\n      swap2\n      pop\n        /* \"#utility.yul\":2286:2561   */\n      pop\n        /* \"#utility.yul\":2204:2561   */\n      swap3\n      swap2\n      pop\n      pop\n      jump\t// out\n        /* \"#utility.yul\":2567:2644   */\n    tag_151:\n        /* \"#utility.yul\":2604:2611   */\n      0x00\n        /* \"#utility.yul\":2633:2638   */\n      dup2\n        /* \"#utility.yul\":2622:2638   */\n      swap1\n      pop\n        /* \"#utility.yul\":2567:2644   */\n      swap2\n      swap1\n      pop\n      jump\t// out\n        /* \"#utility.yul\":2650:2758   */\n    tag_152:\n        /* \"#utility.yul\":2727:2751   */\n      tag_214\n        /* \"#utility.yul\":2745:2750   */\n      dup2\n        /* \"#utility.yul\":2727:2751   */\n      tag_151\n      jump\t// in\n    tag_214:\n        /* \"#utility.yul\":2722:2725   */\n      dup3\n        /* \"#utility.yul\":2715:2752   */\n      mstore\n        /* \"#utility.yul\":2650:2758   */\n      pop\n      pop\n      jump\t// out\n        /* \"#utility.yul\":2824:3909   */\n    tag_153:\n        /* \"#utility.yul\":2921:2924   */\n      0x00\n        /* \"#utility.yul\":2957:2961   */\n      0x80\n        /* \"#utility.yul\":2952:2955   */\n      dup4\n        /* \"#utility.yul\":2948:2962   */\n      add\n        /* \"#utility.yul\":3044:3048   */\n      0x00\n        /* \"#utility.yul\":3037:3042   */\n      dup4\n        /* \"#utility.yul\":3033:3049   */\n      add\n        /* \"#utility.yul\":3027:3050   */\n      mload\n        /* \"#utility.yul\":3097:3100   */\n      dup5\n        /* \"#utility.yul\":3091:3095   */\n      dup3\n        /* \"#utility.yul\":3087:3101   */\n      sub\n        /* \"#utility.yul\":3080:3084   */\n      0x00\n        /* \"#utility.yul\":3075:3078   */\n      dup7\n        /* \"#utility.yul\":3071:3085   */\n      add\n        /* \"#utility.yul\":3064:3102   */\n      mstore\n        /* \"#utility.yul\":3123:3196   */\n      tag_216\n        /* \"#utility.yul\":3191:3195   */\n      dup3\n        /* \"#utility.yul\":3177:3189   */\n      dup3\n        /* \"#utility.yul\":3123:3196   */\n      tag_150\n      jump\t// in\n    tag_216:\n        /* \"#utility.yul\":3115:3196   */\n      swap2\n      pop\n        /* \"#utility.yul\":2972:3207   */\n      pop\n        /* \"#utility.yul\":3290:3294   */\n      0x20\n        /* \"#utility.yul\":3283:3288   */\n      dup4\n        /* \"#utility.yul\":3279:3295   */\n      add\n        /* \"#utility.yul\":3273:3296   */\n      mload\n        /* \"#utility.yul\":3343:3346   */\n      dup5\n        /* \"#utility.yul\":3337:3341   */\n      dup3\n        /* \"#utility.yul\":3333:3347   */\n      sub\n        /* \"#utility.yul\":3326:3330   */\n      0x20\n        /* \"#utility.yul\":3321:3324   */\n      dup7\n        /* \"#utility.yul\":3317:3331   */\n      add\n        /* \"#utility.yul\":3310:3348   */\n      mstore\n        /* \"#utility.yul\":3369:3442   */\n      tag_217\n        /* \"#utility.yul\":3437:3441   */\n      dup3\n        /* \"#utility.yul\":3423:3435   */\n      dup3\n        /* \"#utility.yul\":3369:3442   */\n      tag_150\n      jump\t// in\n    tag_217:\n        /* \"#utility.yul\":3361:3442   */\n      swap2\n      pop\n        /* \"#utility.yul\":3217:3453   */\n      pop\n        /* \"#utility.yul\":3536:3540   */\n      0x40\n        /* \"#utility.yul\":3529:3534   */\n      dup4\n        /* \"#utility.yul\":3525:3541   */\n      add\n        /* \"#utility.yul\":3519:3542   */\n      mload\n        /* \"#utility.yul\":3589:3592   */\n      dup5\n        /* \"#utility.yul\":3583:3587   */\n      dup3\n        /* \"#utility.yul\":3579:3593   */\n      sub\n        /* \"#utility.yul\":3572:3576   */\n      0x40\n        /* \"#utility.yul\":3567:3570   */\n      dup7\n        /* \"#utility.yul\":3563:3577   */\n      add\n        /* \"#utility.yul\":3556:3594   */\n      mstore\n        /* \"#utility.yul\":3615:3688   */\n      tag_218\n        /* \"#utility.yul\":3683:3687   */\n      dup3\n        /* \"#utility.yul\":3669:3681   */\n      dup3\n        /* \"#utility.yul\":3615:3688   */\n      tag_150\n      jump\t// in\n    tag_218:\n        /* \"#utility.yul\":3607:3688   */\n      swap2\n      pop\n        /* \"#utility.yul\":3463:3699   */\n      pop\n        /* \"#utility.yul\":3790:3794   */\n      0x60\n        /* \"#utility.yul\":3783:3788   */\n      dup4\n        /* \"#utility.yul\":3779:3795   */\n      add\n        /* \"#utility.yul\":3773:3796   */\n      mload\n        /* \"#utility.yul\":3809:3872   */\n      tag_219\n        /* \"#utility.yul\":3866:3870   */\n      0x60\n        /* \"#utility.yul\":3861:3864   */\n      dup7\n        /* \"#utility.yul\":3857:3871   */\n      add\n        /* \"#utility.yul\":3843:3855   */\n      dup3\n        /* \"#utility.yul\":3809:3872   */\n      tag_152\n      jump\t// in\n    tag_219:\n        /* \"#utility.yul\":3709:3882   */\n      pop\n        /* \"#utility.yul\":3899:3903   */\n      dup1\n        /* \"#utility.yul\":3892:3903   */\n      swap2\n      pop\n        /* \"#utility.yul\":2926:3909   */\n      pop\n        /* \"#utility.yul\":2824:3909   */\n      swap3\n      swap2\n      pop\n      pop\n      jump\t// out\n        /* \"#utility.yul\":3915:4147   */\n    tag_154:\n        /* \"#utility.yul\":4022:4032   */\n      0x00\n        /* \"#utility.yul\":4057:4141   */\n      tag_221\n        /* \"#utility.yul\":4137:4140   */\n      dup4\n        /* \"#utility.yul\":4129:4135   */\n      dup4\n        /* \"#utility.yul\":4057:4141   */\n      tag_153\n      jump\t// in\n    tag_221:\n        /* \"#utility.yul\":4043:4141   */\n      swap1\n      pop\n        /* \"#utility.yul\":3915:4147   */\n      swap3\n      swap2\n      pop\n      pop\n      jump\t// out\n        /* \"#utility.yul\":4153:4285   */\n    tag_155:\n        /* \"#utility.yul\":4242:4246   */\n      0x00\n        /* \"#utility.yul\":4274:4278   */\n      0x20\n        /* \"#utility.yul\":4269:4272   */\n      dup3\n        /* \"#utility.yul\":4265:4279   */\n      add\n        /* \"#utility.yul\":4257:4279   */\n      swap1\n      pop\n        /* \"#utility.yul\":4153:4285   */\n      swap2\n      swap1\n      pop\n      jump\t// out\n        /* \"#utility.yul\":4355:5418   */\n    tag_156:\n        /* \"#utility.yul\":4512:4515   */\n      0x00\n        /* \"#utility.yul\":4541:4614   */\n      tag_224\n        /* \"#utility.yul\":4608:4613   */\n      dup3\n        /* \"#utility.yul\":4541:4614   */\n      tag_143\n      jump\t// in\n    tag_224:\n        /* \"#utility.yul\":4630:4735   */\n      tag_225\n        /* \"#utility.yul\":4728:4734   */\n      dup2\n        /* \"#utility.yul\":4723:4726   */\n      dup6\n        /* \"#utility.yul\":4630:4735   */\n      tag_144\n      jump\t// in\n    tag_225:\n        /* \"#utility.yul\":4623:4735   */\n      swap4\n      pop\n        /* \"#utility.yul\":4761:4764   */\n      dup4\n        /* \"#utility.yul\":4806:4810   */\n      0x20\n        /* \"#utility.yul\":4798:4804   */\n      dup3\n        /* \"#utility.yul\":4794:4811   */\n      mul\n        /* \"#utility.yul\":4789:4792   */\n      dup6\n        /* \"#utility.yul\":4785:4812   */\n      add\n        /* \"#utility.yul\":4836:4911   */\n      tag_226\n        /* \"#utility.yul\":4905:4910   */\n      dup6\n        /* \"#utility.yul\":4836:4911   */\n      tag_145\n      jump\t// in\n    tag_226:\n        /* \"#utility.yul\":4934:4941   */\n      dup1\n        /* \"#utility.yul\":4965:4966   */\n      0x00\n        /* \"#utility.yul\":4950:5373   */\n    tag_227:\n        /* \"#utility.yul\":4975:4981   */\n      dup6\n        /* \"#utility.yul\":4972:4973   */\n      dup2\n        /* \"#utility.yul\":4969:4982   */\n      lt\n        /* \"#utility.yul\":4950:5373   */\n      iszero\n      tag_229\n      jumpi\n        /* \"#utility.yul\":5046:5055   */\n      dup5\n        /* \"#utility.yul\":5040:5044   */\n      dup5\n        /* \"#utility.yul\":5036:5056   */\n      sub\n        /* \"#utility.yul\":5031:5034   */\n      dup10\n        /* \"#utility.yul\":5024:5057   */\n      mstore\n        /* \"#utility.yul\":5097:5103   */\n      dup2\n        /* \"#utility.yul\":5091:5104   */\n      mload\n        /* \"#utility.yul\":5125:5227   */\n      tag_230\n        /* \"#utility.yul\":5222:5226   */\n      dup6\n        /* \"#utility.yul\":5207:5220   */\n      dup3\n        /* \"#utility.yul\":5125:5227   */\n      tag_154\n      jump\t// in\n    tag_230:\n        /* \"#utility.yul\":5117:5227   */\n      swap5\n      pop\n        /* \"#utility.yul\":5250:5329   */\n      tag_231\n        /* \"#utility.yul\":5322:5328   */\n      dup4\n        /* \"#utility.yul\":5250:5329   */\n      tag_155\n      jump\t// in\n    tag_231:\n        /* \"#utility.yul\":5240:5329   */\n      swap3\n      pop\n        /* \"#utility.yul\":5358:5362   */\n      0x20\n        /* \"#utility.yul\":5353:5356   */\n      dup11\n        /* \"#utility.yul\":5349:5363   */\n      add\n        /* \"#utility.yul\":5342:5363   */\n      swap10\n      pop\n        /* \"#utility.yul\":5010:5373   */\n      pop\n        /* \"#utility.yul\":4997:4998   */\n      0x01\n        /* \"#utility.yul\":4994:4995   */\n      dup2\n        /* \"#utility.yul\":4990:4999   */\n      add\n        /* \"#utility.yul\":4985:4999   */\n      swap1\n      pop\n        /* \"#utility.yul\":4950:5373   */\n      jump(tag_227)\n    tag_229:\n        /* \"#utility.yul\":4954:4968   */\n      pop\n        /* \"#utility.yul\":5389:5393   */\n      dup3\n        /* \"#utility.yul\":5382:5393   */\n      swap8\n      pop\n        /* \"#utility.yul\":5409:5412   */\n      dup8\n        /* \"#utility.yul\":5402:5412   */\n      swap6\n      pop\n        /* \"#utility.yul\":4517:5418   */\n      pop\n      pop\n      pop\n      pop\n      pop\n        /* \"#utility.yul\":4355:5418   */\n      swap3\n      swap2\n      pop\n      pop\n      jump\t// out\n        /* \"#utility.yul\":5424:5873   */\n    tag_14:\n        /* \"#utility.yul\":5605:5609   */\n      0x00\n        /* \"#utility.yul\":5643:5645   */\n      0x20\n        /* \"#utility.yul\":5632:5641   */\n      dup3\n        /* \"#utility.yul\":5628:5646   */\n      add\n        /* \"#utility.yul\":5620:5646   */\n      swap1\n      pop\n        /* \"#utility.yul\":5692:5701   */\n      dup2\n        /* \"#utility.yul\":5686:5690   */\n      dup2\n        /* \"#utility.yul\":5682:5702   */\n      sub\n        /* \"#utility.yul\":5678:5679   */\n      0x00\n        /* \"#utility.yul\":5667:5676   */\n      dup4\n        /* \"#utility.yul\":5663:5680   */\n      add\n        /* \"#utility.yul\":5656:5703   */\n      mstore\n        /* \"#utility.yul\":5720:5866   */\n      tag_233\n        /* \"#utility.yul\":5861:5865   */\n      dup2\n        /* \"#utility.yul\":5852:5858   */\n      dup5\n        /* \"#utility.yul\":5720:5866   */\n      tag_156\n      jump\t// in\n    tag_233:\n        /* \"#utility.yul\":5712:5866   */\n      swap1\n      pop\n        /* \"#utility.yul\":5424:5873   */\n      swap3\n      swap2\n      pop\n      pop\n      jump\t// out\n        /* \"#utility.yul\":5879:6001   */\n    tag_157:\n        /* \"#utility.yul\":5952:5976   */\n      tag_235\n        /* \"#utility.yul\":5970:5975   */\n      dup2\n        /* \"#utility.yul\":5952:5976   */\n      tag_151\n      jump\t// in\n    tag_235:\n        /* \"#utility.yul\":5945:5950   */\n      dup2\n        /* \"#utility.yul\":5942:5977   */\n      eq\n        /* \"#utility.yul\":5932:5995   */\n      tag_236\n      jumpi\n        /* \"#utility.yul\":5991:5992   */\n      0x00\n        /* \"#utility.yul\":5988:5989   */\n      0x00\n        /* \"#utility.yul\":5981:5993   */\n      revert\n        /* \"#utility.yul\":5932:5995   */\n    tag_236:\n        /* \"#utility.yul\":5879:6001   */\n      pop\n      jump\t// out\n        /* \"#utility.yul\":6007:6146   */\n    tag_158:\n        /* \"#utility.yul\":6053:6058   */\n      0x00\n        /* \"#utility.yul\":6091:6097   */\n      dup2\n        /* \"#utility.yul\":6078:6098   */\n      calldataload\n        /* \"#utility.yul\":6069:6098   */\n      swap1\n      pop\n        /* \"#utility.yul\":6107:6140   */\n      tag_238\n        /* \"#utility.yul\":6134:6139   */\n      dup2\n        /* \"#utility.yul\":6107:6140   */\n      tag_157\n      jump\t// in\n    tag_238:\n        /* \"#utility.yul\":6007:6146   */\n      swap3\n      swap2\n      pop\n      pop\n      jump\t// out\n        /* \"#utility.yul\":6152:6626   */\n    tag_20:\n        /* \"#utility.yul\":6220:6226   */\n      0x00\n        /* \"#utility.yul\":6228:6234   */\n      0x00\n        /* \"#utility.yul\":6277:6279   */\n      0x40\n        /* \"#utility.yul\":6265:6274   */\n      dup4\n        /* \"#utility.yul\":6256:6263   */\n      dup6\n        /* \"#utility.yul\":6252:6275   */\n      sub\n        /* \"#utility.yul\":6248:6280   */\n      slt\n        /* \"#utility.yul\":6245:6364   */\n      iszero\n      tag_240\n      jumpi\n        /* \"#utility.yul\":6283:6362   */\n      tag_241\n      tag_137\n      jump\t// in\n    tag_241:\n        /* \"#utility.yul\":6245:6364   */\n    tag_240:\n        /* \"#utility.yul\":6403:6404   */\n      0x00\n        /* \"#utility.yul\":6428:6481   */\n      tag_242\n        /* \"#utility.yul\":6473:6480   */\n      dup6\n        /* \"#utility.yul\":6464:6470   */\n      dup3\n        /* \"#utility.yul\":6453:6462   */\n      dup7\n        /* \"#utility.yul\":6449:6471   */\n      add\n        /* \"#utility.yul\":6428:6481   */\n      tag_142\n      jump\t// in\n    tag_242:\n        /* \"#utility.yul\":6418:6481   */\n      swap3\n      pop\n        /* \"#utility.yul\":6374:6491   */\n      pop\n        /* \"#utility.yul\":6530:6532   */\n      0x20\n        /* \"#utility.yul\":6556:6609   */\n      tag_243\n        /* \"#utility.yul\":6601:6608   */\n      dup6\n        /* \"#utility.yul\":6592:6598   */\n      dup3\n        /* \"#utility.yul\":6581:6590   */\n      dup7\n        /* \"#utility.yul\":6577:6599   */\n      add\n        /* \"#utility.yul\":6556:6609   */\n      tag_158\n      jump\t// in\n    tag_243:\n        /* \"#utility.yul\":6546:6609   */\n      swap2\n      pop\n        /* \"#utility.yul\":6501:6619   */\n      pop\n        /* \"#utility.yul\":6152:6626   */\n      swap3\n      pop\n      swap3\n      swap1\n      pop\n      jump\t// out\n        /* \"#utility.yul\":6632:6801   */\n    tag_159:\n        /* \"#utility.yul\":6716:6727   */\n      0x00\n        /* \"#utility.yul\":6750:6756   */\n      dup3\n        /* \"#utility.yul\":6745:6748   */\n      dup3\n        /* \"#utility.yul\":6738:6757   */\n      mstore\n        /* \"#utility.yul\":6790:6794   */\n      0x20\n        /* \"#utility.yul\":6785:6788   */\n      dup3\n        /* \"#utility.yul\":6781:6795   */\n      add\n        /* \"#utility.yul\":6766:6795   */\n      swap1\n      pop\n        /* \"#utility.yul\":6632:6801   */\n      swap3\n      swap2\n      pop\n      pop\n      jump\t// out\n        /* \"#utility.yul\":6807:7184   */\n    tag_160:\n        /* \"#utility.yul\":6895:6898   */\n      0x00\n        /* \"#utility.yul\":6923:6962   */\n      tag_246\n        /* \"#utility.yul\":6956:6961   */\n      dup3\n        /* \"#utility.yul\":6923:6962   */\n      tag_146\n      jump\t// in\n    tag_246:\n        /* \"#utility.yul\":6978:7049   */\n      tag_247\n        /* \"#utility.yul\":7042:7048   */\n      dup2\n        /* \"#utility.yul\":7037:7040   */\n      dup6\n        /* \"#utility.yul\":6978:7049   */\n      tag_159\n      jump\t// in\n    tag_247:\n        /* \"#utility.yul\":6971:7049   */\n      swap4\n      pop\n        /* \"#utility.yul\":7058:7123   */\n      tag_248\n        /* \"#utility.yul\":7116:7122   */\n      dup2\n        /* \"#utility.yul\":7111:7114   */\n      dup6\n        /* \"#utility.yul\":7104:7108   */\n      0x20\n        /* \"#utility.yul\":7097:7102   */\n      dup7\n        /* \"#utility.yul\":7093:7109   */\n      add\n        /* \"#utility.yul\":7058:7123   */\n      tag_148\n      jump\t// in\n    tag_248:\n        /* \"#utility.yul\":7148:7177   */\n      tag_249\n        /* \"#utility.yul\":7170:7176   */\n      dup2\n        /* \"#utility.yul\":7148:7177   */\n      tag_149\n      jump\t// in\n    tag_249:\n        /* \"#utility.yul\":7143:7146   */\n      dup5\n        /* \"#utility.yul\":7139:7178   */\n      add\n        /* \"#utility.yul\":7132:7178   */\n      swap2\n      pop\n        /* \"#utility.yul\":6899:7184   */\n      pop\n        /* \"#utility.yul\":6807:7184   */\n      swap3\n      swap2\n      pop\n      pop\n      jump\t// out\n        /* \"#utility.yul\":7190:7308   */\n    tag_161:\n        /* \"#utility.yul\":7277:7301   */\n      tag_251\n        /* \"#utility.yul\":7295:7300   */\n      dup2\n        /* \"#utility.yul\":7277:7301   */\n      tag_151\n      jump\t// in\n    tag_251:\n        /* \"#utility.yul\":7272:7275   */\n      dup3\n        /* \"#utility.yul\":7265:7302   */\n      mstore\n        /* \"#utility.yul\":7190:7308   */\n      pop\n      pop\n      jump\t// out\n        /* \"#utility.yul\":7314:8140   */\n    tag_23:\n        /* \"#utility.yul\":7551:7555   */\n      0x00\n        /* \"#utility.yul\":7589:7592   */\n      0x80\n        /* \"#utility.yul\":7578:7587   */\n      dup3\n        /* \"#utility.yul\":7574:7593   */\n      add\n        /* \"#utility.yul\":7566:7593   */\n      swap1\n      pop\n        /* \"#utility.yul\":7639:7648   */\n      dup2\n        /* \"#utility.yul\":7633:7637   */\n      dup2\n        /* \"#utility.yul\":7629:7649   */\n      sub\n        /* \"#utility.yul\":7625:7626   */\n      0x00\n        /* \"#utility.yul\":7614:7623   */\n      dup4\n        /* \"#utility.yul\":7610:7627   */\n      add\n        /* \"#utility.yul\":7603:7650   */\n      mstore\n        /* \"#utility.yul\":7667:7745   */\n      tag_253\n        /* \"#utility.yul\":7740:7744   */\n      dup2\n        /* \"#utility.yul\":7731:7737   */\n      dup8\n        /* \"#utility.yul\":7667:7745   */\n      tag_160\n      jump\t// in\n    tag_253:\n        /* \"#utility.yul\":7659:7745   */\n      swap1\n      pop\n        /* \"#utility.yul\":7792:7801   */\n      dup2\n        /* \"#utility.yul\":7786:7790   */\n      dup2\n        /* \"#utility.yul\":7782:7802   */\n      sub\n        /* \"#utility.yul\":7777:7779   */\n      0x20\n        /* \"#utility.yul\":7766:7775   */\n      dup4\n        /* \"#utility.yul\":7762:7780   */\n      add\n        /* \"#utility.yul\":7755:7803   */\n      mstore\n        /* \"#utility.yul\":7820:7898   */\n      tag_254\n        /* \"#utility.yul\":7893:7897   */\n      dup2\n        /* \"#utility.yul\":7884:7890   */\n      dup7\n        /* \"#utility.yul\":7820:7898   */\n      tag_160\n      jump\t// in\n    tag_254:\n        /* \"#utility.yul\":7812:7898   */\n      swap1\n      pop\n        /* \"#utility.yul\":7945:7954   */\n      dup2\n        /* \"#utility.yul\":7939:7943   */\n      dup2\n        /* \"#utility.yul\":7935:7955   */\n      sub\n        /* \"#utility.yul\":7930:7932   */\n      0x40\n        /* \"#utility.yul\":7919:7928   */\n      dup4\n        /* \"#utility.yul\":7915:7933   */\n      add\n        /* \"#utility.yul\":7908:7956   */\n      mstore\n        /* \"#utility.yul\":7973:8051   */\n      tag_255\n        /* \"#utility.yul\":8046:8050   */\n      dup2\n        /* \"#utility.yul\":8037:8043   */\n      dup6\n        /* \"#utility.yul\":7973:8051   */\n      tag_160\n      jump\t// in\n    tag_255:\n        /* \"#utility.yul\":7965:8051   */\n      swap1\n      pop\n        /* \"#utility.yul\":8061:8133   */\n      tag_256\n        /* \"#utility.yul\":8129:8131   */\n      0x60\n        /* \"#utility.yul\":8118:8127   */\n      dup4\n        /* \"#utility.yul\":8114:8132   */\n      add\n        /* \"#utility.yul\":8105:8111   */\n      dup5\n        /* \"#utility.yul\":8061:8133   */\n      tag_161\n      jump\t// in\n    tag_256:\n        /* \"#utility.yul\":7314:8140   */\n      swap6\n      swap5\n      pop\n      pop\n      pop\n      pop\n      pop\n      jump\t// out\n        /* \"#utility.yul\":8146:8263   */\n    tag_162:\n        /* \"#utility.yul\":8255:8256   */\n      0x00\n        /* \"#utility.yul\":8252:8253   */\n      0x00\n        /* \"#utility.yul\":8245:8257   */\n      revert\n        /* \"#utility.yul\":8269:8386   */\n    tag_163:\n        /* \"#utility.yul\":8378:8379   */\n      0x00\n        /* \"#utility.yul\":8375:8376   */\n      0x00\n        /* \"#utility.yul\":8368:8380   */\n      revert\n        /* \"#utility.yul\":8392:8509   */\n    tag_164:\n        /* \"#utility.yul\":8501:8502   */\n      0x00\n        /* \"#utility.yul\":8498:8499   */\n      0x00\n        /* \"#utility.yul\":8491:8503   */\n      revert\n        /* \"#utility.yul\":8529:9082   */\n    tag_165:\n        /* \"#utility.yul\":8587:8595   */\n      0x00\n        /* \"#utility.yul\":8597:8603   */\n      0x00\n        /* \"#utility.yul\":8647:8650   */\n      dup4\n        /* \"#utility.yul\":8640:8644   */\n      0x1f\n        /* \"#utility.yul\":8632:8638   */\n      dup5\n        /* \"#utility.yul\":8628:8645   */\n      add\n        /* \"#utility.yul\":8624:8651   */\n      slt\n        /* \"#utility.yul\":8614:8736   */\n      tag_261\n      jumpi\n        /* \"#utility.yul\":8655:8734   */\n      tag_262\n      tag_162\n      jump\t// in\n    tag_262:\n        /* \"#utility.yul\":8614:8736   */\n    tag_261:\n        /* \"#utility.yul\":8768:8774   */\n      dup3\n        /* \"#utility.yul\":8755:8775   */\n      calldataload\n        /* \"#utility.yul\":8745:8775   */\n      swap1\n      pop\n        /* \"#utility.yul\":8798:8816   */\n      0xffffffffffffffff\n        /* \"#utility.yul\":8790:8796   */\n      dup2\n        /* \"#utility.yul\":8787:8817   */\n      gt\n        /* \"#utility.yul\":8784:8901   */\n      iszero\n      tag_263\n      jumpi\n        /* \"#utility.yul\":8820:8899   */\n      tag_264\n      tag_163\n      jump\t// in\n    tag_264:\n        /* \"#utility.yul\":8784:8901   */\n    tag_263:\n        /* \"#utility.yul\":8934:8938   */\n      0x20\n        /* \"#utility.yul\":8926:8932   */\n      dup4\n        /* \"#utility.yul\":8922:8939   */\n      add\n        /* \"#utility.yul\":8910:8939   */\n      swap2\n      pop\n        /* \"#utility.yul\":8988:8991   */\n      dup4\n        /* \"#utility.yul\":8980:8984   */\n      0x01\n        /* \"#utility.yul\":8972:8978   */\n      dup3\n        /* \"#utility.yul\":8968:8985   */\n      mul\n        /* \"#utility.yul\":8958:8966   */\n      dup4\n        /* \"#utility.yul\":8954:8986   */\n      add\n        /* \"#utility.yul\":8951:8992   */\n      gt\n        /* \"#utility.yul\":8948:9076   */\n      iszero\n      tag_265\n      jumpi\n        /* \"#utility.yul\":8995:9074   */\n      tag_266\n      tag_164\n      jump\t// in\n    tag_266:\n        /* \"#utility.yul\":8948:9076   */\n    tag_265:\n        /* \"#utility.yul\":8529:9082   */\n      swap3\n      pop\n      swap3\n      swap1\n      pop\n      jump\t// out\n        /* \"#utility.yul\":9088:10599   */\n    tag_26:\n        /* \"#utility.yul\":9219:9225   */\n      0x00\n        /* \"#utility.yul\":9227:9233   */\n      0x00\n        /* \"#utility.yul\":9235:9241   */\n      0x00\n        /* \"#utility.yul\":9243:9249   */\n      0x00\n        /* \"#utility.yul\":9251:9257   */\n      0x00\n        /* \"#utility.yul\":9259:9265   */\n      0x00\n        /* \"#utility.yul\":9267:9273   */\n      0x00\n        /* \"#utility.yul\":9275:9281   */\n      0x00\n        /* \"#utility.yul\":9324:9327   */\n      0xa0\n        /* \"#utility.yul\":9312:9321   */\n      dup10\n        /* \"#utility.yul\":9303:9310   */\n      dup12\n        /* \"#utility.yul\":9299:9322   */\n      sub\n        /* \"#utility.yul\":9295:9328   */\n      slt\n        /* \"#utility.yul\":9292:9412   */\n      iszero\n      tag_268\n      jumpi\n        /* \"#utility.yul\":9331:9410   */\n      tag_269\n      tag_137\n      jump\t// in\n    tag_269:\n        /* \"#utility.yul\":9292:9412   */\n    tag_268:\n        /* \"#utility.yul\":9451:9452   */\n      0x00\n        /* \"#utility.yul\":9476:9529   */\n      tag_270\n        /* \"#utility.yul\":9521:9528   */\n      dup12\n        /* \"#utility.yul\":9512:9518   */\n      dup3\n        /* \"#utility.yul\":9501:9510   */\n      dup13\n        /* \"#utility.yul\":9497:9519   */\n      add\n        /* \"#utility.yul\":9476:9529   */\n      tag_158\n      jump\t// in\n    tag_270:\n        /* \"#utility.yul\":9466:9529   */\n      swap9\n      pop\n        /* \"#utility.yul\":9422:9539   */\n      pop\n        /* \"#utility.yul\":9606:9608   */\n      0x20\n        /* \"#utility.yul\":9595:9604   */\n      dup10\n        /* \"#utility.yul\":9591:9609   */\n      add\n        /* \"#utility.yul\":9578:9610   */\n      calldataload\n        /* \"#utility.yul\":9637:9655   */\n      0xffffffffffffffff\n        /* \"#utility.yul\":9629:9635   */\n      dup2\n        /* \"#utility.yul\":9626:9656   */\n      gt\n        /* \"#utility.yul\":9623:9740   */\n      iszero\n      tag_271\n      jumpi\n        /* \"#utility.yul\":9659:9738   */\n      tag_272\n      tag_138\n      jump\t// in\n    tag_272:\n        /* \"#utility.yul\":9623:9740   */\n    tag_271:\n        /* \"#utility.yul\":9772:9837   */\n      tag_273\n        /* \"#utility.yul\":9829:9836   */\n      dup12\n        /* \"#utility.yul\":9820:9826   */\n      dup3\n        /* \"#utility.yul\":9809:9818   */\n      dup13\n        /* \"#utility.yul\":9805:9827   */\n      add\n        /* \"#utility.yul\":9772:9837   */\n      tag_165\n      jump\t// in\n    tag_273:\n        /* \"#utility.yul\":9754:9837   */\n      swap8\n      pop\n      swap8\n      pop\n        /* \"#utility.yul\":9549:9847   */\n      pop\n        /* \"#utility.yul\":9914:9916   */\n      0x40\n        /* \"#utility.yul\":9903:9912   */\n      dup10\n        /* \"#utility.yul\":9899:9917   */\n      add\n        /* \"#utility.yul\":9886:9918   */\n      calldataload\n        /* \"#utility.yul\":9945:9963   */\n      0xffffffffffffffff\n        /* \"#utility.yul\":9937:9943   */\n      dup2\n        /* \"#utility.yul\":9934:9964   */\n      gt\n        /* \"#utility.yul\":9931:10048   */\n      iszero\n      tag_274\n      jumpi\n        /* \"#utility.yul\":9967:10046   */\n      tag_275\n      tag_138\n      jump\t// in\n    tag_275:\n        /* \"#utility.yul\":9931:10048   */\n    tag_274:\n        /* \"#utility.yul\":10080:10145   */\n      tag_276\n        /* \"#utility.yul\":10137:10144   */\n      dup12\n        /* \"#utility.yul\":10128:10134   */\n      dup3\n        /* \"#utility.yul\":10117:10126   */\n      dup13\n        /* \"#utility.yul\":10113:10135   */\n      add\n        /* \"#utility.yul\":10080:10145   */\n      tag_165\n      jump\t// in\n    tag_276:\n        /* \"#utility.yul\":10062:10145   */\n      swap6\n      pop\n      swap6\n      pop\n        /* \"#utility.yul\":9857:10155   */\n      pop\n        /* \"#utility.yul\":10222:10224   */\n      0x60\n        /* \"#utility.yul\":10211:10220   */\n      dup10\n        /* \"#utility.yul\":10207:10225   */\n      add\n        /* \"#utility.yul\":10194:10226   */\n      calldataload\n        /* \"#utility.yul\":10253:10271   */\n      0xffffffffffffffff\n        /* \"#utility.yul\":10245:10251   */\n      dup2\n        /* \"#utility.yul\":10242:10272   */\n      gt\n        /* \"#utility.yul\":10239:10356   */\n      iszero\n      tag_277\n      jumpi\n        /* \"#utility.yul\":10275:10354   */\n      tag_278\n      tag_138\n      jump\t// in\n    tag_278:\n        /* \"#utility.yul\":10239:10356   */\n    tag_277:\n        /* \"#utility.yul\":10388:10453   */\n      tag_279\n        /* \"#utility.yul\":10445:10452   */\n      dup12\n        /* \"#utility.yul\":10436:10442   */\n      dup3\n        /* \"#utility.yul\":10425:10434   */\n      dup13\n        /* \"#utility.yul\":10421:10443   */\n      add\n        /* \"#utility.yul\":10388:10453   */\n      tag_165\n      jump\t// in\n    tag_279:\n        /* \"#utility.yul\":10370:10453   */\n      swap4\n      pop\n      swap4\n      pop\n        /* \"#utility.yul\":10165:10463   */\n      pop\n        /* \"#utility.yul\":10502:10505   */\n      0x80\n        /* \"#utility.yul\":10529:10582   */\n      tag_280\n        /* \"#utility.yul\":10574:10581   */\n      dup12\n        /* \"#utility.yul\":10565:10571   */\n      dup3\n        /* \"#utility.yul\":10554:10563   */\n      dup13\n        /* \"#utility.yul\":10550:10572   */\n      add\n        /* \"#utility.yul\":10529:10582   */\n      tag_158\n      jump\t// in\n    tag_280:\n        /* \"#utility.yul\":10519:10582   */\n      swap2\n      pop\n        /* \"#utility.yul\":10473:10592   */\n      pop\n        /* \"#utility.yul\":9088:10599   */\n      swap3\n      swap6\n      swap9\n      pop\n      swap3\n      swap6\n      swap9\n      swap1\n      swap4\n      swap7\n      pop\n      jump\t// out\n        /* \"#utility.yul\":10605:11970   */\n    tag_32:\n        /* \"#utility.yul\":10727:10733   */\n      0x00\n        /* \"#utility.yul\":10735:10741   */\n      0x00\n        /* \"#utility.yul\":10743:10749   */\n      0x00\n        /* \"#utility.yul\":10751:10757   */\n      0x00\n        /* \"#utility.yul\":10759:10765   */\n      0x00\n        /* \"#utility.yul\":10767:10773   */\n      0x00\n        /* \"#utility.yul\":10775:10781   */\n      0x00\n        /* \"#utility.yul\":10824:10827   */\n      0x80\n        /* \"#utility.yul\":10812:10821   */\n      dup9\n        /* \"#utility.yul\":10803:10810   */\n      dup11\n        /* \"#utility.yul\":10799:10822   */\n      sub\n        /* \"#utility.yul\":10795:10828   */\n      slt\n        /* \"#utility.yul\":10792:10912   */\n      iszero\n      tag_282\n      jumpi\n        /* \"#utility.yul\":10831:10910   */\n      tag_283\n      tag_137\n      jump\t// in\n    tag_283:\n        /* \"#utility.yul\":10792:10912   */\n    tag_282:\n        /* \"#utility.yul\":10979:10980   */\n      0x00\n        /* \"#utility.yul\":10968:10977   */\n      dup9\n        /* \"#utility.yul\":10964:10981   */\n      add\n        /* \"#utility.yul\":10951:10982   */\n      calldataload\n        /* \"#utility.yul\":11009:11027   */\n      0xffffffffffffffff\n        /* \"#utility.yul\":11001:11007   */\n      dup2\n        /* \"#utility.yul\":10998:11028   */\n      gt\n        /* \"#utility.yul\":10995:11112   */\n      iszero\n      tag_284\n      jumpi\n        /* \"#utility.yul\":11031:11110   */\n      tag_285\n      tag_138\n      jump\t// in\n    tag_285:\n        /* \"#utility.yul\":10995:11112   */\n    tag_284:\n        /* \"#utility.yul\":11144:11209   */\n      tag_286\n        /* \"#utility.yul\":11201:11208   */\n      dup11\n        /* \"#utility.yul\":11192:11198   */\n      dup3\n        /* \"#utility.yul\":11181:11190   */\n      dup12\n        /* \"#utility.yul\":11177:11199   */\n      add\n        /* \"#utility.yul\":11144:11209   */\n      tag_165\n      jump\t// in\n    tag_286:\n        /* \"#utility.yul\":11126:11209   */\n      swap8\n      pop\n      swap8\n      pop\n        /* \"#utility.yul\":10922:11219   */\n      pop\n        /* \"#utility.yul\":11286:11288   */\n      0x20\n        /* \"#utility.yul\":11275:11284   */\n      dup9\n        /* \"#utility.yul\":11271:11289   */\n      add\n        /* \"#utility.yul\":11258:11290   */\n      calldataload\n        /* \"#utility.yul\":11317:11335   */\n      0xffffffffffffffff\n        /* \"#utility.yul\":11309:11315   */\n      dup2\n        /* \"#utility.yul\":11306:11336   */\n      gt\n        /* \"#utility.yul\":11303:11420   */\n      iszero\n      tag_287\n      jumpi\n        /* \"#utility.yul\":11339:11418   */\n      tag_288\n      tag_138\n      jump\t// in\n    tag_288:\n        /* \"#utility.yul\":11303:11420   */\n    tag_287:\n        /* \"#utility.yul\":11452:11517   */\n      tag_289\n        /* \"#utility.yul\":11509:11516   */\n      dup11\n        /* \"#utility.yul\":11500:11506   */\n      dup3\n        /* \"#utility.yul\":11489:11498   */\n      dup12\n        /* \"#utility.yul\":11485:11507   */\n      add\n        /* \"#utility.yul\":11452:11517   */\n      tag_165\n      jump\t// in\n    tag_289:\n        /* \"#utility.yul\":11434:11517   */\n      swap6\n      pop\n      swap6\n      pop\n        /* \"#utility.yul\":11229:11527   */\n      pop\n        /* \"#utility.yul\":11594:11596   */\n      0x40\n        /* \"#utility.yul\":11583:11592   */\n      dup9\n        /* \"#utility.yul\":11579:11597   */\n      add\n        /* \"#utility.yul\":11566:11598   */\n      calldataload\n        /* \"#utility.yul\":11625:11643   */\n      0xffffffffffffffff\n        /* \"#utility.yul\":11617:11623   */\n      dup2\n        /* \"#utility.yul\":11614:11644   */\n      gt\n        /* \"#utility.yul\":11611:11728   */\n      iszero\n      tag_290\n      jumpi\n        /* \"#utility.yul\":11647:11726   */\n      tag_291\n      tag_138\n      jump\t// in\n    tag_291:\n        /* \"#utility.yul\":11611:11728   */\n    tag_290:\n        /* \"#utility.yul\":11760:11825   */\n      tag_292\n        /* \"#utility.yul\":11817:11824   */\n      dup11\n        /* \"#utility.yul\":11808:11814   */\n      dup3\n        /* \"#utility.yul\":11797:11806   */\n      dup12\n        /* \"#utility.yul\":11793:11815   */\n      add\n        /* \"#utility.yul\":11760:11825   */\n      tag_165\n      jump\t// in\n    tag_292:\n        /* \"#utility.yul\":11742:11825   */\n      swap4\n      pop\n      swap4\n      pop\n        /* \"#utility.yul\":11537:11835   */\n      pop\n        /* \"#utility.yul\":11874:11876   */\n      0x60\n        /* \"#utility.yul\":11900:11953   */\n      tag_293\n        /* \"#utility.yul\":11945:11952   */\n      dup11\n        /* \"#utility.yul\":11936:11942   */\n      dup3\n        /* \"#utility.yul\":11925:11934   */\n      dup12\n        /* \"#utility.yul\":11921:11943   */\n      add\n        /* \"#utility.yul\":11900:11953   */\n      tag_158\n      jump\t// in\n    tag_293:\n        /* \"#utility.yul\":11890:11953   */\n      swap2\n      pop\n        /* \"#utility.yul\":11845:11963   */\n      pop\n        /* \"#utility.yul\":10605:11970   */\n      swap3\n      swap6\n      swap9\n      swap2\n      swap5\n      swap8\n      pop\n      swap3\n      swap6\n      pop\n      jump\t// out\n        /* \"#utility.yul\":11976:12156   */\n    tag_166:\n        /* \"#utility.yul\":12024:12101   */\n      0x4e487b7100000000000000000000000000000000000000000000000000000000\n        /* \"#utility.yul\":12021:12022   */\n      0x00\n        /* \"#utility.yul\":12014:12102   */\n      mstore\n        /* \"#utility.yul\":12121:12125   */\n      0x22\n        /* \"#utility.yul\":12118:12119   */\n      0x04\n        /* \"#utility.yul\":12111:12126   */\n      mstore\n        /* \"#utility.yul\":12145:12149   */\n      0x24\n        /* \"#utility.yul\":12142:12143   */\n      0x00\n        /* \"#utility.yul\":12135:12150   */\n      revert\n        /* \"#utility.yul\":12162:12482   */\n    tag_39:\n        /* \"#utility.yul\":12206:12212   */\n      0x00\n        /* \"#utility.yul\":12243:12244   */\n      0x02\n        /* \"#utility.yul\":12237:12241   */\n      dup3\n        /* \"#utility.yul\":12233:12245   */\n      div\n        /* \"#utility.yul\":12223:12245   */\n      swap1\n      pop\n        /* \"#utility.yul\":12290:12291   */\n      0x01\n        /* \"#utility.yul\":12284:12288   */\n      dup3\n        /* \"#utility.yul\":12280:12292   */\n      and\n        /* \"#utility.yul\":12311:12329   */\n      dup1\n        /* \"#utility.yul\":12301:12382   */\n      tag_296\n      jumpi\n        /* \"#utility.yul\":12367:12371   */\n      0x7f\n        /* \"#utility.yul\":12359:12365   */\n      dup3\n        /* \"#utility.yul\":12355:12372   */\n      and\n        /* \"#utility.yul\":12345:12372   */\n      swap2\n      pop\n        /* \"#utility.yul\":12301:12382   */\n    tag_296:\n        /* \"#utility.yul\":12429:12431   */\n      0x20\n        /* \"#utility.yul\":12421:12427   */\n      dup3\n        /* \"#utility.yul\":12418:12432   */\n      lt\n        /* \"#utility.yul\":12398:12416   */\n      dup2\n        /* \"#utility.yul\":12395:12433   */\n      sub\n        /* \"#utility.yul\":12392:12476   */\n      tag_297\n      jumpi\n        /* \"#utility.yul\":12448:12466   */\n      tag_298\n      tag_166\n      jump\t// in\n    tag_298:\n        /* \"#utility.yul\":12392:12476   */\n    tag_297:\n        /* \"#utility.yul\":12213:12482   */\n      pop\n        /* \"#utility.yul\":12162:12482   */\n      swap2\n      swap1\n      pop\n      jump\t// out\n        /* \"#utility.yul\":12488:12710   */\n    tag_93:\n        /* \"#utility.yul\":12581:12585   */\n      0x00\n        /* \"#utility.yul\":12619:12621   */\n      0x20\n        /* \"#utility.yul\":12608:12617   */\n      dup3\n        /* \"#utility.yul\":12604:12622   */\n      add\n        /* \"#utility.yul\":12596:12622   */\n      swap1\n      pop\n        /* \"#utility.yul\":12632:12703   */\n      tag_300\n        /* \"#utility.yul\":12700:12701   */\n      0x00\n        /* \"#utility.yul\":12689:12698   */\n      dup4\n        /* \"#utility.yul\":12685:12702   */\n      add\n        /* \"#utility.yul\":12676:12682   */\n      dup5\n        /* \"#utility.yul\":12632:12703   */\n      tag_161\n      jump\t// in\n    tag_300:\n        /* \"#utility.yul\":12488:12710   */\n      swap3\n      swap2\n      pop\n      pop\n      jump\t// out\n        /* \"#utility.yul\":12716:12896   */\n    tag_96:\n        /* \"#utility.yul\":12764:12841   */\n      0x4e487b7100000000000000000000000000000000000000000000000000000000\n        /* \"#utility.yul\":12761:12762   */\n      0x00\n        /* \"#utility.yul\":12754:12842   */\n      mstore\n        /* \"#utility.yul\":12861:12865   */\n      0x32\n        /* \"#utility.yul\":12858:12859   */\n      0x04\n        /* \"#utility.yul\":12851:12866   */\n      mstore\n        /* \"#utility.yul\":12885:12889   */\n      0x24\n        /* \"#utility.yul\":12882:12883   */\n      0x00\n        /* \"#utility.yul\":12875:12890   */\n      revert\n        /* \"#utility.yul\":12902:12999   */\n    tag_167:\n        /* \"#utility.yul\":12961:12967   */\n      0x00\n        /* \"#utility.yul\":12989:12992   */\n      dup3\n        /* \"#utility.yul\":12979:12992   */\n      swap1\n      pop\n        /* \"#utility.yul\":12902:12999   */\n      swap3\n      swap2\n      pop\n      pop\n      jump\t// out\n        /* \"#utility.yul\":13005:13185   */\n    tag_168:\n        /* \"#utility.yul\":13053:13130   */\n      0x4e487b7100000000000000000000000000000000000000000000000000000000\n        /* \"#utility.yul\":13050:13051   */\n      0x00\n        /* \"#utility.yul\":13043:13131   */\n      mstore\n        /* \"#utility.yul\":13150:13154   */\n      0x41\n        /* \"#utility.yul\":13147:13148   */\n      0x04\n        /* \"#utility.yul\":13140:13155   */\n      mstore\n        /* \"#utility.yul\":13174:13178   */\n      0x24\n        /* \"#utility.yul\":13171:13172   */\n      0x00\n        /* \"#utility.yul\":13164:13179   */\n      revert\n        /* \"#utility.yul\":13191:13332   */\n    tag_169:\n        /* \"#utility.yul\":13240:13244   */\n      0x00\n        /* \"#utility.yul\":13263:13266   */\n      dup2\n        /* \"#utility.yul\":13255:13266   */\n      swap1\n      pop\n        /* \"#utility.yul\":13286:13289   */\n      dup2\n        /* \"#utility.yul\":13283:13284   */\n      0x00\n        /* \"#utility.yul\":13276:13290   */\n      mstore\n        /* \"#utility.yul\":13320:13324   */\n      0x20\n        /* \"#utility.yul\":13317:13318   */\n      0x00\n        /* \"#utility.yul\":13307:13325   */\n      keccak256\n        /* \"#utility.yul\":13299:13325   */\n      swap1\n      pop\n        /* \"#utility.yul\":13191:13332   */\n      swap2\n      swap1\n      pop\n      jump\t// out\n        /* \"#utility.yul\":13338:13431   */\n    tag_170:\n        /* \"#utility.yul\":13375:13381   */\n      0x00\n        /* \"#utility.yul\":13422:13424   */\n      0x20\n        /* \"#utility.yul\":13417:13419   */\n      0x1f\n        /* \"#utility.yul\":13410:13415   */\n      dup4\n        /* \"#utility.yul\":13406:13420   */\n      add\n        /* \"#utility.yul\":13402:13425   */\n      div\n        /* \"#utility.yul\":13392:13425   */\n      swap1\n      pop\n        /* \"#utility.yul\":13338:13431   */\n      swap2\n      swap1\n      pop\n      jump\t// out\n        /* \"#utility.yul\":13437:13544   */\n    tag_171:\n        /* \"#utility.yul\":13481:13489   */\n      0x00\n        /* \"#utility.yul\":13531:13536   */\n      dup3\n        /* \"#utility.yul\":13525:13529   */\n      dup3\n        /* \"#utility.yul\":13521:13537   */\n      shl\n        /* \"#utility.yul\":13500:13537   */\n      swap1\n      pop\n        /* \"#utility.yul\":13437:13544   */\n      swap3\n      swap2\n      pop\n      pop\n      jump\t// out\n        /* \"#utility.yul\":13550:13943   */\n    tag_172:\n        /* \"#utility.yul\":13619:13625   */\n      0x00\n        /* \"#utility.yul\":13669:13670   */\n      0x08\n        /* \"#utility.yul\":13657:13667   */\n      dup4\n        /* \"#utility.yul\":13653:13671   */\n      mul\n        /* \"#utility.yul\":13692:13789   */\n      tag_308\n        /* \"#utility.yul\":13722:13788   */\n      0xffffffffffffffffffffffffffffffffffffffffffffffffffffffffffffffff\n        /* \"#utility.yul\":13711:13720   */\n      dup3\n        /* \"#utility.yul\":13692:13789   */\n      tag_171\n      jump\t// in\n    tag_308:\n        /* \"#utility.yul\":13810:13849   */\n      tag_309\n        /* \"#utility.yul\":13840:13848   */\n      dup7\n        /* \"#utility.yul\":13829:13838   */\n      dup4\n        /* \"#utility.yul\":13810:13849   */\n      tag_171\n      jump\t// in\n    tag_309:\n        /* \"#utility.yul\":13798:13849   */\n      swap6\n      pop\n        /* \"#utility.yul\":13882:13886   */\n      dup1\n        /* \"#utility.yul\":13878:13887   */\n      not\n        /* \"#utility.yul\":13871:13876   */\n      dup5\n        /* \"#utility.yul\":13867:13888   */\n      and\n        /* \"#utility.yul\":13858:13888   */\n      swap4\n      pop\n        /* \"#utility.yul\":13931:13935   */\n      dup1\n        /* \"#utility.yul\":13921:13929   */\n      dup7\n        /* \"#utility.yul\":13917:13936   */\n      and\n        /* \"#utility.yul\":13910:13915   */\n      dup5\n        /* \"#utility.yul\":13907:13937   */\n      or\n        /* \"#utility.yul\":13897:13937   */\n      swap3\n      pop\n        /* \"#utility.yul\":13626:13943   */\n      pop\n      pop\n        /* \"#utility.yul\":13550:13943   */\n      swap4\n      swap3\n      pop\n      pop\n      pop\n      jump\t// out\n        /* \"#utility.yul\":13949:14009   */\n    tag_173:\n        /* \"#utility.yul\":13977:13980   */\n      0x00\n        /* \"#utility.yul\":13998:14003   */\n      dup2\n        /* \"#utility.yul\":13991:14003   */\n      swap1\n      pop\n        /* \"#utility.yul\":13949:14009   */\n      swap2\n      swap1\n      pop\n      jump\t// out\n        /* \"#utility.yul\":14015:14157   */\n    tag_174:\n        /* \"#utility.yul\":14065:14074   */\n      0x00\n        /* \"#utility.yul\":14098:14151   */\n      tag_312\n        /* \"#utility.yul\":14116:14150   */\n      tag_313\n        /* \"#utility.yul\":14125:14149   */\n      tag_314\n        /* \"#utility.yul\":14143:14148   */\n      dup5\n        /* \"#utility.yul\":14125:14149   */\n      tag_151\n      jump\t// in\n    tag_314:\n        /* \"#utility.yul\":14116:14150   */\n      tag_173\n      jump\t// in\n    tag_313:\n        /* \"#utility.yul\":14098:14151   */\n      tag_151\n      jump\t// in\n    tag_312:\n        /* \"#utility.yul\":14085:14151   */\n      swap1\n      pop\n        /* \"#utility.yul\":14015:14157   */\n      swap2\n      swap1\n      pop\n      jump\t// out\n        /* \"#utility.yul\":14163:14238   */\n    tag_175:\n        /* \"#utility.yul\":14206:14209   */\n      0x00\n        /* \"#utility.yul\":14227:14232   */\n      dup2\n        /* \"#utility.yul\":14220:14232   */\n      swap1\n      pop\n        /* \"#utility.yul\":14163:14238   */\n      swap2\n      swap1\n      pop\n      jump\t// out\n        /* \"#utility.yul\":14244:14513   */\n    tag_176:\n        /* \"#utility.yul\":14354:14393   */\n      tag_317\n        /* \"#utility.yul\":14385:14392   */\n      dup4\n        /* \"#utility.yul\":14354:14393   */\n      tag_174\n      jump\t// in\n    tag_317:\n        /* \"#utility.yul\":14415:14506   */\n      tag_318\n        /* \"#utility.yul\":14464:14505   */\n      tag_319\n        /* \"#utility.yul\":14488:14504   */\n      dup3\n        /* \"#utility.yul\":14464:14505   */\n      tag_175\n      jump\t// in\n    tag_319:\n        /* \"#utility.yul\":14456:14462   */\n      dup5\n        /* \"#utility.yul\":14449:14453   */\n      dup5\n        /* \"#utility.yul\":14443:14454   */\n      sload\n        /* \"#utility.yul\":14415:14506   */\n      tag_172\n      jump\t// in\n    tag_318:\n        /* \"#utility.yul\":14409:14413   */\n      dup3\n        /* \"#utility.yul\":14402:14507   */\n      sstore\n        /* \"#utility.yul\":14320:14513   */\n      pop\n        /* \"#utility.yul\":14244:14513   */\n      pop\n      pop\n      pop\n      jump\t// out\n        /* \"#utility.yul\":14519:14592   */\n    tag_177:\n        /* \"#utility.yul\":14564:14567   */\n      0x00\n        /* \"#utility.yul\":14585:14586   */\n      0x00\n        /* \"#utility.yul\":14578:14586   */\n      swap1\n      pop\n        /* \"#utility.yul\":14519:14592   */\n      swap1\n      jump\t// out\n        /* \"#utility.yul\":14598:14787   */\n    tag_178:\n        /* \"#utility.yul\":14675:14707   */\n      tag_322\n      tag_177\n      jump\t// in\n    tag_322:\n        /* \"#utility.yul\":14716:14781   */\n      tag_323\n        /* \"#utility.yul\":14774:14780   */\n      dup2\n        /* \"#utility.yul\":14766:14772   */\n      dup5\n        /* \"#utility.yul\":14760:14764   */\n      dup5\n        /* \"#utility.yul\":14716:14781   */\n      tag_176\n      jump\t// in\n    tag_323:\n        /* \"#utility.yul\":14651:14787   */\n      pop\n        /* \"#utility.yul\":14598:14787   */\n      pop\n      pop\n      jump\t// out\n        /* \"#utility.yul\":14793:14979   */\n    tag_179:\n        /* \"#utility.yul\":14853:14973   */\n    tag_325:\n        /* \"#utility.yul\":14870:14873   */\n      dup2\n        /* \"#utility.yul\":14863:14868   */\n      dup2\n        /* \"#utility.yul\":14860:14874   */\n      lt\n        /* \"#utility.yul\":14853:14973   */\n      iszero\n      tag_327\n      jumpi\n        /* \"#utility.yul\":14924:14963   */\n      tag_328\n        /* \"#utility.yul\":14961:14962   */\n      0x00\n        /* \"#utility.yul\":14954:14959   */\n      dup3\n        /* \"#utility.yul\":14924:14963   */\n      tag_178\n      jump\t// in\n    tag_328:\n        /* \"#utility.yul\":14897:14898   */\n      0x01\n        /* \"#utility.yul\":14890:14895   */\n      dup2\n        /* \"#utility.yul\":14886:14899   */\n      add\n        /* \"#utility.yul\":14877:14899   */\n      swap1\n      pop\n        /* \"#utility.yul\":14853:14973   */\n      jump(tag_325)\n    tag_327:\n        /* \"#utility.yul\":14793:14979   */\n      pop\n      pop\n      jump\t// out\n        /* \"#utility.yul\":14985:15528   */\n    tag_180:\n        /* \"#utility.yul\":15086:15088   */\n      0x1f\n        /* \"#utility.yul\":15081:15084   */\n      dup3\n        /* \"#utility.yul\":15078:15089   */\n      gt\n        /* \"#utility.yul\":15075:15521   */\n      iszero\n      tag_330\n      jumpi\n        /* \"#utility.yul\":15120:15158   */\n      tag_331\n        /* \"#utility.yul\":15152:15157   */\n      dup2\n        /* \"#utility.yul\":15120:15158   */\n      tag_169\n      jump\t// in\n    tag_331:\n        /* \"#utility.yul\":15204:15233   */\n      tag_332\n        /* \"#utility.yul\":15222:15232   */\n      dup5\n        /* \"#utility.yul\":15204:15233   */\n      tag_170\n      jump\t// in\n    tag_332:\n        /* \"#utility.yul\":15194:15202   */\n      dup2\n        /* \"#utility.yul\":15190:15234   */\n      add\n        /* \"#utility.yul\":15387:15389   */\n      0x20\n        /* \"#utility.yul\":15375:15385   */\n      dup6\n        /* \"#utility.yul\":15372:15390   */\n      lt\n        /* \"#utility.yul\":15369:15418   */\n      iszero\n      tag_333\n      jumpi\n        /* \"#utility.yul\":15408:15416   */\n      dup2\n        /* \"#utility.yul\":15393:15416   */\n      swap1\n      pop\n        /* \"#utility.yul\":15369:15418   */\n    tag_333:\n        /* \"#utility.yul\":15431:15511   */\n      tag_334\n        /* \"#utility.yul\":15487:15509   */\n      tag_335\n        /* \"#utility.yul\":15505:15508   */\n      dup6\n        /* \"#utility.yul\":15487:15509   */\n      tag_170\n      jump\t// in\n    tag_335:\n        /* \"#utility.yul\":15477:15485   */\n      dup4\n        /* \"#utility.yul\":15473:15510   */\n      add\n        /* \"#utility.yul\":15460:15471   */\n      dup3\n        /* \"#utility.yul\":15431:15511   */\n      tag_179\n      jump\t// in\n    tag_334:\n        /* \"#utility.yul\":15090:15521   */\n      pop\n      pop\n        /* \"#utility.yul\":15075:15521   */\n    tag_330:\n        /* \"#utility.yul\":14985:15528   */\n      pop\n      pop\n      pop\n      jump\t// out\n        /* \"#utility.yul\":15534:15651   */\n    tag_181:\n        /* \"#utility.yul\":15588:15596   */\n      0x00\n        /* \"#utility.yul\":15638:15643   */\n      dup3\n        /* \"#utility.yul\":15632:15636   */\n      dup3\n        /* \"#utility.yul\":15628:15644   */\n      shr\n        /* \"#utility.yul\":15607:15644   */\n      swap1\n      pop\n        /* \"#utility.yul\":15534:15651   */\n      swap3\n      swap2\n      pop\n      pop\n      jump\t// out\n        /* \"#utility.yul\":15657:15826   */\n    tag_182:\n        /* \"#utility.yul\":15701:15707   */\n      0x00\n        /* \"#utility.yul\":15734:15785   */\n      tag_338\n        /* \"#utility.yul\":15782:15783   */\n      0x00\n        /* \"#utility.yul\":15778:15784   */\n      not\n        /* \"#utility.yul\":15770:15775   */\n      dup5\n        /* \"#utility.yul\":15767:15768   */\n      0x08\n        /* \"#utility.yul\":15763:15776   */\n      mul\n        /* \"#utility.yul\":15734:15785   */\n      tag_181\n      jump\t// in\n    tag_338:\n        /* \"#utility.yul\":15730:15786   */\n      not\n        /* \"#utility.yul\":15815:15819   */\n      dup1\n        /* \"#utility.yul\":15809:15813   */\n      dup4\n        /* \"#utility.yul\":15805:15820   */\n      and\n        /* \"#utility.yul\":15795:15820   */\n      swap2\n      pop\n        /* \"#utility.yul\":15708:15826   */\n      pop\n        /* \"#utility.yul\":15657:15826   */\n      swap3\n      swap2\n      pop\n      pop\n      jump\t// out\n        /* \"#utility.yul\":15831:16126   */\n    tag_183:\n        /* \"#utility.yul\":15907:15911   */\n      0x00\n        /* \"#utility.yul\":16053:16082   */\n      tag_340\n        /* \"#utility.yul\":16078:16081   */\n      dup4\n        /* \"#utility.yul\":16072:16076   */\n      dup4\n        /* \"#utility.yul\":16053:16082   */\n      tag_182\n      jump\t// in\n    tag_340:\n        /* \"#utility.yul\":16045:16082   */\n      swap2\n      pop\n        /* \"#utility.yul\":16115:16118   */\n      dup3\n        /* \"#utility.yul\":16112:16113   */\n      0x02\n        /* \"#utility.yul\":16108:16119   */\n      mul\n        /* \"#utility.yul\":16102:16106   */\n      dup3\n        /* \"#utility.yul\":16099:16120   */\n      or\n        /* \"#utility.yul\":16091:16120   */\n      swap1\n      pop\n        /* \"#utility.yul\":15831:16126   */\n      swap3\n      swap2\n      pop\n      pop\n      jump\t// out\n        /* \"#utility.yul\":16131:17534   */\n    tag_99:\n        /* \"#utility.yul\":16255:16299   */\n      tag_342\n        /* \"#utility.yul\":16295:16298   */\n      dup4\n        /* \"#utility.yul\":16290:16293   */\n      dup4\n        /* \"#utility.yul\":16255:16299   */\n      tag_167\n      jump\t// in\n    tag_342:\n        /* \"#utility.yul\":16364:16382   */\n      0xffffffffffffffff\n        /* \"#utility.yul\":16356:16362   */\n      dup2\n        /* \"#utility.yul\":16353:16383   */\n      gt\n        /* \"#utility.yul\":16350:16406   */\n      iszero\n      tag_343\n      jumpi\n        /* \"#utility.yul\":16386:16404   */\n      tag_344\n      tag_168\n      jump\t// in\n    tag_344:\n        /* \"#utility.yul\":16350:16406   */\n    tag_343:\n        /* \"#utility.yul\":16430:16468   */\n      tag_345\n        /* \"#utility.yul\":16462:16466   */\n      dup3\n        /* \"#utility.yul\":16456:16467   */\n      sload\n        /* \"#utility.yul\":16430:16468   */\n      tag_39\n      jump\t// in\n    tag_345:\n        /* \"#utility.yul\":16515:16582   */\n      tag_346\n        /* \"#utility.yul\":16575:16581   */\n      dup3\n        /* \"#utility.yul\":16567:16573   */\n      dup3\n        /* \"#utility.yul\":16561:16565   */\n      dup6\n        /* \"#utility.yul\":16515:16582   */\n      tag_180\n      jump\t// in\n    tag_346:\n        /* \"#utility.yul\":16609:16610   */\n      0x00\n        /* \"#utility.yul\":16638:16640   */\n      0x1f\n        /* \"#utility.yul\":16630:16636   */\n      dup4\n        /* \"#utility.yul\":16627:16641   */\n      gt\n        /* \"#utility.yul\":16655:16656   */\n      0x01\n        /* \"#utility.yul\":16650:17282   */\n      dup2\n      eq\n      tag_348\n      jumpi\n        /* \"#utility.yul\":17326:17327   */\n      0x00\n        /* \"#utility.yul\":17343:17349   */\n      dup5\n        /* \"#utility.yul\":17340:17424   */\n      iszero\n      tag_349\n      jumpi\n        /* \"#utility.yul\":17399:17408   */\n      dup3\n        /* \"#utility.yul\":17394:17397   */\n      dup8\n        /* \"#utility.yul\":17390:17409   */\n      add\n        /* \"#utility.yul\":17377:17410   */\n      calldataload\n        /* \"#utility.yul\":17368:17410   */\n      swap1\n      pop\n        /* \"#utility.yul\":17340:17424   */\n    tag_349:\n        /* \"#utility.yul\":17450:17517   */\n      tag_350\n        /* \"#utility.yul\":17510:17516   */\n      dup6\n        /* \"#utility.yul\":17503:17508   */\n      dup3\n        /* \"#utility.yul\":17450:17517   */\n      tag_183\n      jump\t// in\n    tag_350:\n        /* \"#utility.yul\":17444:17448   */\n      dup7\n        /* \"#utility.yul\":17437:17518   */\n      sstore\n        /* \"#utility.yul\":17299:17528   */\n      pop\n        /* \"#utility.yul\":16620:17528   */\n      jump(tag_347)\n        /* \"#utility.yul\":16650:17282   */\n    tag_348:\n        /* \"#utility.yul\":16702:16706   */\n      0x1f\n        /* \"#utility.yul\":16698:16707   */\n      not\n        /* \"#utility.yul\":16690:16696   */\n      dup5\n        /* \"#utility.yul\":16686:16708   */\n      and\n        /* \"#utility.yul\":16736:16773   */\n      tag_351\n        /* \"#utility.yul\":16768:16772   */\n      dup7\n        /* \"#utility.yul\":16736:16773   */\n      tag_169\n      jump\t// in\n    tag_351:\n        /* \"#utility.yul\":16795:16796   */\n      0x00\n        /* \"#utility.yul\":16809:17024   */\n    tag_352:\n        /* \"#utility.yul\":16823:16830   */\n      dup3\n        /* \"#utility.yul\":16820:16821   */\n      dup2\n        /* \"#utility.yul\":16817:16831   */\n      lt\n        /* \"#utility.yul\":16809:17024   */\n      iszero\n      tag_354\n      jumpi\n        /* \"#utility.yul\":16909:16918   */\n      dup5\n        /* \"#utility.yul\":16904:16907   */\n      dup10\n        /* \"#utility.yul\":16900:16919   */\n      add\n        /* \"#utility.yul\":16887:16920   */\n      calldataload\n        /* \"#utility.yul\":16879:16885   */\n      dup3\n        /* \"#utility.yul\":16872:16921   */\n      sstore\n        /* \"#utility.yul\":16960:16961   */\n      0x01\n        /* \"#utility.yul\":16952:16958   */\n      dup3\n        /* \"#utility.yul\":16948:16962   */\n      add\n        /* \"#utility.yul\":16938:16962   */\n      swap2\n      pop\n        /* \"#utility.yul\":17007:17009   */\n      0x20\n        /* \"#utility.yul\":16996:17005   */\n      dup6\n        /* \"#utility.yul\":16992:17010   */\n      add\n        /* \"#utility.yul\":16979:17010   */\n      swap5\n      pop\n        /* \"#utility.yul\":16846:16850   */\n      0x20\n        /* \"#utility.yul\":16843:16844   */\n      dup2\n        /* \"#utility.yul\":16839:16851   */\n      add\n        /* \"#utility.yul\":16834:16851   */\n      swap1\n      pop\n        /* \"#utility.yul\":16809:17024   */\n      jump(tag_352)\n    tag_354:\n        /* \"#utility.yul\":17052:17058   */\n      dup7\n        /* \"#utility.yul\":17043:17050   */\n      dup4\n        /* \"#utility.yul\":17040:17059   */\n      lt\n        /* \"#utility.yul\":17037:17223   */\n      iszero\n      tag_355\n      jumpi\n        /* \"#utility.yul\":17117:17126   */\n      dup5\n        /* \"#utility.yul\":17112:17115   */\n      dup10\n        /* \"#utility.yul\":17108:17127   */\n      add\n        /* \"#utility.yul\":17095:17128   */\n      calldataload\n        /* \"#utility.yul\":17160:17208   */\n      tag_356\n        /* \"#utility.yul\":17202:17206   */\n      0x1f\n        /* \"#utility.yul\":17194:17200   */\n      dup10\n        /* \"#utility.yul\":17190:17207   */\n      and\n        /* \"#utility.yul\":17179:17188   */\n      dup3\n        /* \"#utility.yul\":17160:17208   */\n      tag_182\n      jump\t// in\n    tag_356:\n        /* \"#utility.yul\":17152:17158   */\n      dup4\n        /* \"#utility.yul\":17145:17209   */\n      sstore\n        /* \"#utility.yul\":17060:17223   */\n      pop\n        /* \"#utility.yul\":17037:17223   */\n    tag_355:\n        /* \"#utility.yul\":17269:17270   */\n      0x01\n        /* \"#utility.yul\":17265:17266   */\n      0x02\n        /* \"#utility.yul\":17257:17263   */\n      dup9\n        /* \"#utility.yul\":17253:17267   */\n      mul\n        /* \"#utility.yul\":17249:17271   */\n      add\n        /* \"#utility.yul\":17243:17247   */\n      dup9\n        /* \"#utility.yul\":17236:17272   */\n      sstore\n        /* \"#utility.yul\":16657:17282   */\n      pop\n      pop\n      pop\n        /* \"#utility.yul\":16620:17528   */\n    tag_347:\n      pop\n        /* \"#utility.yul\":16230:17534   */\n      pop\n      pop\n      pop\n        /* \"#utility.yul\":16131:17534   */\n      pop\n      pop\n      pop\n      jump\t// out\n        /* \"#utility.yul\":17540:18935   */\n    tag_117:\n        /* \"#utility.yul\":17657:17694   */\n      tag_358\n        /* \"#utility.yul\":17690:17693   */\n      dup3\n        /* \"#utility.yul\":17657:17694   */\n      tag_146\n      jump\t// in\n    tag_358:\n        /* \"#utility.yul\":17759:17777   */\n      0xffffffffffffffff\n        /* \"#utility.yul\":17751:17757   */\n      dup2\n        /* \"#utility.yul\":17748:17778   */\n      gt\n        /* \"#utility.yul\":17745:17801   */\n      iszero\n      tag_359\n      jumpi\n        /* \"#utility.yul\":17781:17799   */\n      tag_360\n      tag_168\n      jump\t// in\n    tag_360:\n        /* \"#utility.yul\":17745:17801   */\n    tag_359:\n        /* \"#utility.yul\":17825:17863   */\n      tag_361\n        /* \"#utility.yul\":17857:17861   */\n      dup3\n        /* \"#utility.yul\":17851:17862   */\n      sload\n        /* \"#utility.yul\":17825:17863   */\n      tag_39\n      jump\t// in\n    tag_361:\n        /* \"#utility.yul\":17910:17977   */\n      tag_362\n        /* \"#utility.yul\":17970:17976   */\n      dup3\n        /* \"#utility.yul\":17962:17968   */\n      dup3\n        /* \"#utility.yul\":17956:17960   */\n      dup6\n        /* \"#utility.yul\":17910:17977   */\n      tag_180\n      jump\t// in\n    tag_362:\n        /* \"#utility.yul\":18004:18005   */\n      0x00\n        /* \"#utility.yul\":18028:18032   */\n      0x20\n        /* \"#utility.yul\":18015:18032   */\n      swap1\n      pop\n        /* \"#utility.yul\":18060:18062   */\n      0x1f\n        /* \"#utility.yul\":18052:18058   */\n      dup4\n        /* \"#utility.yul\":18049:18063   */\n      gt\n        /* \"#utility.yul\":18077:18078   */\n      0x01\n        /* \"#utility.yul\":18072:18690   */\n      dup2\n      eq\n      tag_364\n      jumpi\n        /* \"#utility.yul\":18734:18735   */\n      0x00\n        /* \"#utility.yul\":18751:18757   */\n      dup5\n        /* \"#utility.yul\":18748:18825   */\n      iszero\n      tag_365\n      jumpi\n        /* \"#utility.yul\":18800:18809   */\n      dup3\n        /* \"#utility.yul\":18795:18798   */\n      dup8\n        /* \"#utility.yul\":18791:18810   */\n      add\n        /* \"#utility.yul\":18785:18811   */\n      mload\n        /* \"#utility.yul\":18776:18811   */\n      swap1\n      pop\n        /* \"#utility.yul\":18748:18825   */\n    tag_365:\n        /* \"#utility.yul\":18851:18918   */\n      tag_366\n        /* \"#utility.yul\":18911:18917   */\n      dup6\n        /* \"#utility.yul\":18904:18909   */\n      dup3\n        /* \"#utility.yul\":18851:18918   */\n      tag_183\n      jump\t// in\n    tag_366:\n        /* \"#utility.yul\":18845:18849   */\n      dup7\n        /* \"#utility.yul\":18838:18919   */\n      sstore\n        /* \"#utility.yul\":18707:18929   */\n      pop\n        /* \"#utility.yul\":18042:18929   */\n      jump(tag_363)\n        /* \"#utility.yul\":18072:18690   */\n    tag_364:\n        /* \"#utility.yul\":18124:18128   */\n      0x1f\n        /* \"#utility.yul\":18120:18129   */\n      not\n        /* \"#utility.yul\":18112:18118   */\n      dup5\n        /* \"#utility.yul\":18108:18130   */\n      and\n        /* \"#utility.yul\":18158:18195   */\n      tag_367\n        /* \"#utility.yul\":18190:18194   */\n      dup7\n        /* \"#utility.yul\":18158:18195   */\n      tag_169\n      jump\t// in\n    tag_367:\n        /* \"#utility.yul\":18217:18218   */\n      0x00\n        /* \"#utility.yul\":18231:18439   */\n    tag_368:\n        /* \"#utility.yul\":18245:18252   */\n      dup3\n        /* \"#utility.yul\":18242:18243   */\n      dup2\n        /* \"#utility.yul\":18239:18253   */\n      lt\n        /* \"#utility.yul\":18231:18439   */\n      iszero\n      tag_370\n      jumpi\n        /* \"#utility.yul\":18324:18333   */\n      dup5\n        /* \"#utility.yul\":18319:18322   */\n      dup10\n        /* \"#utility.yul\":18315:18334   */\n      add\n        /* \"#utility.yul\":18309:18335   */\n      mload\n        /* \"#utility.yul\":18301:18307   */\n      dup3\n        /* \"#utility.yul\":18294:18336   */\n      sstore\n        /* \"#utility.yul\":18375:18376   */\n      0x01\n        /* \"#utility.yul\":18367:18373   */\n      dup3\n        /* \"#utility.yul\":18363:18377   */\n      add\n        /* \"#utility.yul\":18353:18377   */\n      swap2\n      pop\n        /* \"#utility.yul\":18422:18424   */\n      0x20\n        /* \"#utility.yul\":18411:18420   */\n      dup6\n        /* \"#utility.yul\":18407:18425   */\n      add\n        /* \"#utility.yul\":18394:18425   */\n      swap5\n      pop\n        /* \"#utility.yul\":18268:18272   */\n      0x20\n        /* \"#utility.yul\":18265:18266   */\n      dup2\n        /* \"#utility.yul\":18261:18273   */\n      add\n        /* \"#utility.yul\":18256:18273   */\n      swap1\n      pop\n        /* \"#utility.yul\":18231:18439   */\n      jump(tag_368)\n    tag_370:\n        /* \"#utility.yul\":18467:18473   */\n      dup7\n        /* \"#utility.yul\":18458:18465   */\n      dup4\n        /* \"#utility.yul\":18455:18474   */\n      lt\n        /* \"#utility.yul\":18452:18631   */\n      iszero\n      tag_371\n      jumpi\n        /* \"#utility.yul\":18525:18534   */\n      dup5\n        /* \"#utility.yul\":18520:18523   */\n      dup10\n        /* \"#utility.yul\":18516:18535   */\n      add\n        /* \"#utility.yul\":18510:18536   */\n      mload\n        /* \"#utility.yul\":18568:18616   */\n      tag_372\n        /* \"#utility.yul\":18610:18614   */\n      0x1f\n        /* \"#utility.yul\":18602:18608   */\n      dup10\n        /* \"#utility.yul\":18598:18615   */\n      and\n        /* \"#utility.yul\":18587:18596   */\n      dup3\n        /* \"#utility.yul\":18568:18616   */\n      tag_182\n      jump\t// in\n    tag_372:\n        /* \"#utility.yul\":18560:18566   */\n      dup4\n        /* \"#utility.yul\":18553:18617   */\n      sstore\n        /* \"#utility.yul\":18475:18631   */\n      pop\n        /* \"#utility.yul\":18452:18631   */\n    tag_371:\n        /* \"#utility.yul\":18677:18678   */\n      0x01\n        /* \"#utility.yul\":18673:18674   */\n      0x02\n        /* \"#utility.yul\":18665:18671   */\n      dup9\n        /* \"#utility.yul\":18661:18675   */\n      mul\n        /* \"#utility.yul\":18657:18679   */\n      add\n        /* \"#utility.yul\":18651:18655   */\n      dup9\n        /* \"#utility.yul\":18644:18680   */\n      sstore\n        /* \"#utility.yul\":18079:18690   */\n      pop\n      pop\n      pop\n        /* \"#utility.yul\":18042:18929   */\n    tag_363:\n      pop\n        /* \"#utility.yul\":17632:18935   */\n      pop\n      pop\n      pop\n        /* \"#utility.yul\":17540:18935   */\n      pop\n      pop\n      jump\t// out\n\n    auxdata: 0xa26469706673582212207f2622bc85c69c19d91c95dd1fa3154b03bde0160211c044b1905692d417095264736f6c634300081e0033\n}\n",
				"bytecode": {
					"linkReferences": {},
					"object": "6080604052348015600e575f5ffd5b506115568061001c5f395ff3fe608060405234801561000f575f5ffd5b5060043610610060575f3560e01c80632698286c14610064578063341fa05d146100945780633ecd55a9146100b25780634cd1ed3d146100e55780636dcb789614610101578063d2d50bd81461010b575b5f5ffd5b61007e60048036038101906100799190610bfb565b610127565b60405161008b9190610dd7565b60405180910390f35b61009c610378565b6040516100a99190610dd7565b60405180910390f35b6100cc60048036038101906100c79190610e21565b6105c7565b6040516100dc9493929190610eb6565b60405180910390f35b6100ff60048036038101906100fa9190610f6f565b61079e565b005b6101096108ec565b005b61012560048036038101906101209190611046565b610935565b005b60605f5f8373ffffffffffffffffffffffffffffffffffffffff1673ffffffffffffffffffffffffffffffffffffffff1681526020019081526020015f20805480602002602001604051908101604052809291908181526020015f905b8282101561036d578382905f5260205f2090600402016040518060800160405290815f820180546101b490611137565b80601f01602080910402602001604051908101604052809291908181526020018280546101e090611137565b801561022b5780601f106102025761010080835404028352916020019161022b565b820191905f5260205f20905b81548152906001019060200180831161020e57829003601f168201915b5050505050815260200160018201805461024490611137565b80601f016020809104026020016040519081016040528092919081815260200182805461027090611137565b80156102bb5780601f10610292576101008083540402835291602001916102bb565b820191905f5260205f20905b81548152906001019060200180831161029e57829003601f168201915b505050505081526020016002820180546102d490611137565b80601f016020809104026020016040519081016040528092919081815260200182805461030090611137565b801561034b5780601f106103225761010080835404028352916020019161034b565b820191905f5260205f20905b81548152906001019060200180831161032e57829003601f168201915b5050505050815260200160038201548152505081526020019060010190610184565b505050509050919050565b60605f5f3373ffffffffffffffffffffffffffffffffffffffff1673ffffffffffffffffffffffffffffffffffffffff1681526020019081526020015f20805480602002602001604051908101604052809291908181526020015f905b828210156105be578382905f5260205f2090600402016040518060800160405290815f8201805461040590611137565b80601f016020809104026020016040519081016040528092919081815260200182805461043190611137565b801561047c5780601f106104535761010080835404028352916020019161047c565b820191905f5260205f20905b81548152906001019060200180831161045f57829003601f168201915b5050505050815260200160018201805461049590611137565b80601f01602080910402602001604051908101604052809291908181526020018280546104c190611137565b801561050c5780601f106104e35761010080835404028352916020019161050c565b820191905f5260205f20905b8154815290600101906020018083116104ef57829003601f168201915b5050505050815260200160028201805461052590611137565b80601f016020809104026020016040519081016040528092919081815260200182805461055190611137565b801561059c5780601f106105735761010080835404028352916020019161059c565b820191905f5260205f20905b81548152906001019060200180831161057f57829003601f168201915b50505050508152602001600382015481525050815260200190600101906103d5565b50505050905090565b5f602052815f5260405f2081815481106105df575f80fd5b905f5260205f2090600402015f9150915050805f0180546105ff90611137565b80601f016020809104026020016040519081016040528092919081815260200182805461062b90611137565b80156106765780601f1061064d57610100808354040283529160200191610676565b820191905f5260205f20905b81548152906001019060200180831161065957829003601f168201915b50505050509080600101805461068b90611137565b80601f01602080910402602001604051908101604052809291908181526020018280546106b790611137565b80156107025780601f106106d957610100808354040283529160200191610702565b820191905f5260205f20905b8154815290600101906020018083116106e557829003601f168201915b50505050509080600201805461071790611137565b80601f016020809104026020016040519081016040528092919081815260200182805461074390611137565b801561078e5780601f106107655761010080835404028352916020019161078e565b820191905f5260205f20905b81548152906001019060200180831161077157829003601f168201915b5050505050908060030154905084565b5f5f5f3373ffffffffffffffffffffffffffffffffffffffff1673ffffffffffffffffffffffffffffffffffffffff1681526020019081526020015f2090508080549050891061082557886040517f40c901ce00000000000000000000000000000000000000000000000000000000815260040161081c9190611167565b60405180910390fd5b8787828b8154811061083a57610839611180565b5b905f5260205f2090600402015f019182610855929190611384565b508585828b8154811061086b5761086a611180565b5b905f5260205f2090600402016001019182610887929190611384565b508383828b8154811061089d5761089c611180565b5b905f5260205f20906004020160020191826108b9929190611384565b5081818a815481106108ce576108cd611180565b5b905f5260205f20906004020160030181905550505050505050505050565b5f5f3373ffffffffffffffffffffffffffffffffffffffff1673ffffffffffffffffffffffffffffffffffffffff1681526020019081526020015f205f6109339190610ad6565b565b5f5f3373ffffffffffffffffffffffffffffffffffffffff1673ffffffffffffffffffffffffffffffffffffffff1681526020019081526020015f20604051806080016040528089898080601f0160208091040260200160405190810160405280939291908181526020018383808284375f81840152601f19601f82011690508083019250505050505050815260200187878080601f0160208091040260200160405190810160405280939291908181526020018383808284375f81840152601f19601f82011690508083019250505050505050815260200185858080601f0160208091040260200160405190810160405280939291908181526020018383808284375f81840152601f19601f82011690508083019250505050505050815260200183815250908060018154018082558091505060019003905f5260205f2090600402015f909190919091505f820151815f019081610a949190611451565b506020820151816001019081610aaa9190611451565b506040820151816002019081610ac09190611451565b5060608201518160030155505050505050505050565b5080545f8255600402905f5260205f2090810190610af49190610af7565b50565b5b80821115610b3d575f5f82015f610b0f9190610b41565b600182015f610b1e9190610b41565b600282015f610b2d9190610b41565b600382015f905550600401610af8565b5090565b508054610b4d90611137565b5f825580601f10610b5e5750610b7b565b601f0160209004905f5260205f2090810190610b7a9190610b7e565b5b50565b5b80821115610b95575f815f905550600101610b7f565b5090565b5f5ffd5b5f5ffd5b5f73ffffffffffffffffffffffffffffffffffffffff82169050919050565b5f610bca82610ba1565b9050919050565b610bda81610bc0565b8114610be4575f5ffd5b50565b5f81359050610bf581610bd1565b92915050565b5f60208284031215610c1057610c0f610b99565b5b5f610c1d84828501610be7565b91505092915050565b5f81519050919050565b5f82825260208201905092915050565b5f819050602082019050919050565b5f81519050919050565b5f82825260208201905092915050565b8281835e5f83830152505050565b5f601f19601f8301169050919050565b5f610c9182610c4f565b610c9b8185610c59565b9350610cab818560208601610c69565b610cb481610c77565b840191505092915050565b5f819050919050565b610cd181610cbf565b82525050565b5f608083015f8301518482035f860152610cf18282610c87565b91505060208301518482036020860152610d0b8282610c87565b91505060408301518482036040860152610d258282610c87565b9150506060830151610d3a6060860182610cc8565b508091505092915050565b5f610d508383610cd7565b905092915050565b5f602082019050919050565b5f610d6e82610c26565b610d788185610c30565b935083602082028501610d8a85610c40565b805f5b85811015610dc55784840389528151610da68582610d45565b9450610db183610d58565b925060208a01995050600181019050610d8d565b50829750879550505050505092915050565b5f6020820190508181035f830152610def8184610d64565b905092915050565b610e0081610cbf565b8114610e0a575f5ffd5b50565b5f81359050610e1b81610df7565b92915050565b5f5f60408385031215610e3757610e36610b99565b5b5f610e4485828601610be7565b9250506020610e5585828601610e0d565b9150509250929050565b5f82825260208201905092915050565b5f610e7982610c4f565b610e838185610e5f565b9350610e93818560208601610c69565b610e9c81610c77565b840191505092915050565b610eb081610cbf565b82525050565b5f6080820190508181035f830152610ece8187610e6f565b90508181036020830152610ee28186610e6f565b90508181036040830152610ef68185610e6f565b9050610f056060830184610ea7565b95945050505050565b5f5ffd5b5f5ffd5b5f5ffd5b5f5f83601f840112610f2f57610f2e610f0e565b5b8235905067ffffffffffffffff811115610f4c57610f4b610f12565b5b602083019150836001820283011115610f6857610f67610f16565b5b9250929050565b5f5f5f5f5f5f5f5f60a0898b031215610f8b57610f8a610b99565b5b5f610f988b828c01610e0d565b985050602089013567ffffffffffffffff811115610fb957610fb8610b9d565b5b610fc58b828c01610f1a565b9750975050604089013567ffffffffffffffff811115610fe857610fe7610b9d565b5b610ff48b828c01610f1a565b9550955050606089013567ffffffffffffffff81111561101757611016610b9d565b5b6110238b828c01610f1a565b935093505060806110368b828c01610e0d565b9150509295985092959890939650565b5f5f5f5f5f5f5f6080888a03121561106157611060610b99565b5b5f88013567ffffffffffffffff81111561107e5761107d610b9d565b5b61108a8a828b01610f1a565b9750975050602088013567ffffffffffffffff8111156110ad576110ac610b9d565b5b6110b98a828b01610f1a565b9550955050604088013567ffffffffffffffff8111156110dc576110db610b9d565b5b6110e88a828b01610f1a565b935093505060606110fb8a828b01610e0d565b91505092959891949750929550565b7f4e487b71000000000000000000000000000000000000000000000000000000005f52602260045260245ffd5b5f600282049050600182168061114e57607f821691505b6020821081036111615761116061110a565b5b50919050565b5f60208201905061117a5f830184610ea7565b92915050565b7f4e487b71000000000000000000000000000000000000000000000000000000005f52603260045260245ffd5b5f82905092915050565b7f4e487b71000000000000000000000000000000000000000000000000000000005f52604160045260245ffd5b5f819050815f5260205f209050919050565b5f6020601f8301049050919050565b5f82821b905092915050565b5f600883026112407fffffffffffffffffffffffffffffffffffffffffffffffffffffffffffffffff82611205565b61124a8683611205565b95508019841693508086168417925050509392505050565b5f819050919050565b5f61128561128061127b84610cbf565b611262565b610cbf565b9050919050565b5f819050919050565b61129e8361126b565b6112b26112aa8261128c565b848454611211565b825550505050565b5f5f905090565b6112c96112ba565b6112d4818484611295565b505050565b5b818110156112f7576112ec5f826112c1565b6001810190506112da565b5050565b601f82111561133c5761130d816111e4565b611316846111f6565b81016020851015611325578190505b611339611331856111f6565b8301826112d9565b50505b505050565b5f82821c905092915050565b5f61135c5f1984600802611341565b1980831691505092915050565b5f611374838361134d565b9150826002028217905092915050565b61138e83836111ad565b67ffffffffffffffff8111156113a7576113a66111b7565b5b6113b18254611137565b6113bc8282856112fb565b5f601f8311600181146113e9575f84156113d7578287013590505b6113e18582611369565b865550611448565b601f1984166113f7866111e4565b5f5b8281101561141e578489013582556001820191506020850194506020810190506113f9565b8683101561143b5784890135611437601f89168261134d565b8355505b6001600288020188555050505b50505050505050565b61145a82610c4f565b67ffffffffffffffff811115611473576114726111b7565b5b61147d8254611137565b6114888282856112fb565b5f60209050601f8311600181146114b9575f84156114a7578287015190505b6114b18582611369565b865550611518565b601f1984166114c7866111e4565b5f5b828110156114ee578489015182556001820191506020850194506020810190506114c9565b8683101561150b5784890151611507601f89168261134d565b8355505b6001600288020188555050505b50505050505056fea26469706673582212207f2622bc85c69c19d91c95dd1fa3154b03bde0160211c044b1905692d417095264736f6c634300081e0033",
					"opcodes": "PUSH1 0x80 PUSH1 0x40 MSTORE CALLVALUE DUP1 ISZERO PUSH1 0xE JUMPI PUSH0 PUSH0 REVERT JUMPDEST POP PUSH2 0x1556 DUP1 PUSH2 0x1C PUSH0 CODECOPY PUSH0 RETURN INVALID PUSH1 0x80 PUSH1 0x40 MSTORE CALLVALUE DUP1 ISZERO PUSH2 0xF JUMPI PUSH0 PUSH0 REVERT JUMPDEST POP PUSH1 0x4 CALLDATASIZE LT PUSH2 0x60 JUMPI PUSH0 CALLDATALOAD PUSH1 0xE0 SHR DUP1 PUSH4 0x2698286C EQ PUSH2 0x64 JUMPI DUP1 PUSH4 0x341FA05D EQ PUSH2 0x94 JUMPI DUP1 PUSH4 0x3ECD55A9 EQ PUSH2 0xB2 JUMPI DUP1 PUSH4 0x4CD1ED3D EQ PUSH2 0xE5 JUMPI DUP1 PUSH4 0x6DCB7896 EQ PUSH2 0x101 JUMPI DUP1 PUSH4 0xD2D50BD8 EQ PUSH2 0x10B JUMPI JUMPDEST PUSH0 PUSH0 REVERT JUMPDEST PUSH2 0x7E PUSH1 0x4 DUP1 CALLDATASIZE SUB DUP2 ADD SWAP1 PUSH2 0x79 SWAP2 SWAP1 PUSH2 0xBFB JUMP JUMPDEST PUSH2 0x127 JUMP JUMPDEST PUSH1 0x40 MLOAD PUSH2 0x8B SWAP2 SWAP1 PUSH2 0xDD7 JUMP JUMPDEST PUSH1 0x40 MLOAD DUP1 SWAP2 SUB SWAP1 RETURN JUMPDEST PUSH2 0x9C PUSH2 0x378 JUMP JUMPDEST PUSH1 0x40 MLOAD PUSH2 0xA9 SWAP2 SWAP1 PUSH2 0xDD7 JUMP JUMPDEST PUSH1 0x40 MLOAD DUP1 SWAP2 SUB SWAP1 RETURN JUMPDEST PUSH2 0xCC PUSH1 0x4 DUP1 CALLDATASIZE SUB DUP2 ADD SWAP1 PUSH2 0xC7 SWAP2 SWAP1 PUSH2 0xE21 JUMP JUMPDEST PUSH2 0x5C7 JUMP JUMPDEST PUSH1 0x40 MLOAD PUSH2 0xDC SWAP5 SWAP4 SWAP3 SWAP2 SWAP1 PUSH2 0xEB6 JUMP JUMPDEST PUSH1 0x40 MLOAD DUP1 SWAP2 SUB SWAP1 RETURN JUMPDEST PUSH2 0xFF PUSH1 0x4 DUP1 CALLDATASIZE SUB DUP2 ADD SWAP1 PUSH2 0xFA SWAP2 SWAP1 PUSH2 0xF6F JUMP JUMPDEST PUSH2 0x79E JUMP JUMPDEST STOP JUMPDEST PUSH2 0x109 PUSH2 0x8EC JUMP JUMPDEST STOP JUMPDEST PUSH2 0x125 PUSH1 0x4 DUP1 CALLDATASIZE SUB DUP2 ADD SWAP1 PUSH2 0x120 SWAP2 SWAP1 PUSH2 0x1046 JUMP JUMPDEST PUSH2 0x935 JUMP JUMPDEST STOP JUMPDEST PUSH1 0x60 PUSH0 PUSH0 DUP4 PUSH20 0xFFFFFFFFFFFFFFFFFFFFFFFFFFFFFFFFFFFFFFFF AND PUSH20 0xFFFFFFFFFFFFFFFFFFFFFFFFFFFFFFFFFFFFFFFF AND DUP2 MSTORE PUSH1 0x20 ADD SWAP1 DUP2 MSTORE PUSH1 0x20 ADD PUSH0 KECCAK256 DUP1 SLOAD DUP1 PUSH1 0x20 MUL PUSH1 0x20 ADD PUSH1 0x40 MLOAD SWAP1 DUP2 ADD PUSH1 0x40 MSTORE DUP1 SWAP3 SWAP2 SWAP1 DUP2 DUP2 MSTORE PUSH1 0x20 ADD PUSH0 SWAP1 JUMPDEST DUP3 DUP3 LT ISZERO PUSH2 0x36D JUMPI DUP4 DUP3 SWAP1 PUSH0 MSTORE PUSH1 0x20 PUSH0 KECCAK256 SWAP1 PUSH1 0x4 MUL ADD PUSH1 0x40 MLOAD DUP1 PUSH1 0x80 ADD PUSH1 0x40 MSTORE SWAP1 DUP2 PUSH0 DUP3 ADD DUP1 SLOAD PUSH2 0x1B4 SWAP1 PUSH2 0x1137 JUMP JUMPDEST DUP1 PUSH1 0x1F ADD PUSH1 0x20 DUP1 SWAP2 DIV MUL PUSH1 0x20 ADD PUSH1 0x40 MLOAD SWAP1 DUP2 ADD PUSH1 0x40 MSTORE DUP1 SWAP3 SWAP2 SWAP1 DUP2 DUP2 MSTORE PUSH1 0x20 ADD DUP3 DUP1 SLOAD PUSH2 0x1E0 SWAP1 PUSH2 0x1137 JUMP JUMPDEST DUP1 ISZERO PUSH2 0x22B JUMPI DUP1 PUSH1 0x1F LT PUSH2 0x202 JUMPI PUSH2 0x100 DUP1 DUP4 SLOAD DIV MUL DUP4 MSTORE SWAP2 PUSH1 0x20 ADD SWAP2 PUSH2 0x22B JUMP JUMPDEST DUP3 ADD SWAP2 SWAP1 PUSH0 MSTORE PUSH1 0x20 PUSH0 KECCAK256 SWAP1 JUMPDEST DUP2 SLOAD DUP2 MSTORE SWAP1 PUSH1 0x1 ADD SWAP1 PUSH1 0x20 ADD DUP1 DUP4 GT PUSH2 0x20E JUMPI DUP3 SWAP1 SUB PUSH1 0x1F AND DUP3 ADD SWAP2 JUMPDEST POP POP POP POP POP DUP2 MSTORE PUSH1 0x20 ADD PUSH1 0x1 DUP3 ADD DUP1 SLOAD PUSH2 0x244 SWAP1 PUSH2 0x1137 JUMP JUMPDEST DUP1 PUSH1 0x1F ADD PUSH1 0x20 DUP1 SWAP2 DIV MUL PUSH1 0x20 ADD PUSH1 0x40 MLOAD SWAP1 DUP2 ADD PUSH1 0x40 MSTORE DUP1 SWAP3 SWAP2 SWAP1 DUP2 DUP2 MSTORE PUSH1 0x20 ADD DUP3 DUP1 SLOAD PUSH2 0x270 SWAP1 PUSH2 0x1137 JUMP JUMPDEST DUP1 ISZERO PUSH2 0x2BB JUMPI DUP1 PUSH1 0x1F LT PUSH2 0x292 JUMPI PUSH2 0x100 DUP1 DUP4 SLOAD DIV MUL DUP4 MSTORE SWAP2 PUSH1 0x20 ADD SWAP2 PUSH2 0x2BB JUMP JUMPDEST DUP3 ADD SWAP2 SWAP1 PUSH0 MSTORE PUSH1 0x20 PUSH0 KECCAK256 SWAP1 JUMPDEST DUP2 SLOAD DUP2 MSTORE SWAP1 PUSH1 0x1 ADD SWAP1 PUSH1 0x20 ADD DUP1 DUP4 GT PUSH2 0x29E JUMPI DUP3 SWAP1 SUB PUSH1 0x1F AND DUP3 ADD SWAP2 JUMPDEST POP POP POP POP POP DUP2 MSTORE PUSH1 0x20 ADD PUSH1 0x2 DUP3 ADD DUP1 SLOAD PUSH2 0x2D4 SWAP1 PUSH2 0x1137 JUMP JUMPDEST DUP1 PUSH1 0x1F ADD PUSH1 0x20 DUP1 SWAP2 DIV MUL PUSH1 0x20 ADD PUSH1 0x40 MLOAD SWAP1 DUP2 ADD PUSH1 0x40 MSTORE DUP1 SWAP3 SWAP2 SWAP1 DUP2 DUP2 MSTORE PUSH1 0x20 ADD DUP3 DUP1 SLOAD PUSH2 0x300 SWAP1 PUSH2 0x1137 JUMP JUMPDEST DUP1 ISZERO PUSH2 0x34B JUMPI DUP1 PUSH1 0x1F LT PUSH2 0x322 JUMPI PUSH2 0x100 DUP1 DUP4 SLOAD DIV MUL DUP4 MSTORE SWAP2 PUSH1 0x20 ADD SWAP2 PUSH2 0x34B JUMP JUMPDEST DUP3 ADD SWAP2 SWAP1 PUSH0 MSTORE PUSH1 0x20 PUSH0 KECCAK256 SWAP1 JUMPDEST DUP2 SLOAD DUP2 MSTORE SWAP1 PUSH1 0x1 ADD SWAP1 PUSH1 0x20 ADD DUP1 DUP4 GT PUSH2 0x32E JUMPI DUP3 SWAP1 SUB PUSH1 0x1F AND DUP3 ADD SWAP2 JUMPDEST POP POP POP POP POP DUP2 MSTORE PUSH1 0x20 ADD PUSH1 0x3 DUP3 ADD SLOAD DUP2 MSTORE POP POP DUP2 MSTORE PUSH1 0x20 ADD SWAP1 PUSH1 0x1 ADD SWAP1 PUSH2 0x184 JUMP JUMPDEST POP POP POP POP SWAP1 POP SWAP2 SWAP1 POP JUMP JUMPDEST PUSH1 0x60 PUSH0 PUSH0 CALLER PUSH20 0xFFFFFFFFFFFFFFFFFFFFFFFFFFFFFFFFFFFFFFFF AND PUSH20 0xFFFFFFFFFFFFFFFFFFFFFFFFFFFFFFFFFFFFFFFF AND DUP2 MSTORE PUSH1 0x20 ADD SWAP1 DUP2 MSTORE PUSH1 0x20 ADD PUSH0 KECCAK256 DUP1 SLOAD DUP1 PUSH1 0x20 MUL PUSH1 0x20 ADD PUSH1 0x40 MLOAD SWAP1 DUP2 ADD PUSH1 0x40 MSTORE DUP1 SWAP3 SWAP2 SWAP1 DUP2 DUP2 MSTORE PUSH1 0x20 ADD PUSH0 SWAP1 JUMPDEST DUP3 DUP3 LT ISZERO PUSH2 0x5BE JUMPI DUP4 DUP3 SWAP1 PUSH0 MSTORE PUSH1 0x20 PUSH0 KECCAK256 SWAP1 PUSH1 0x4 MUL ADD PUSH1 0x40 MLOAD DUP1 PUSH1 0x80 ADD PUSH1 0x40 MSTORE SWAP1 DUP2 PUSH0 DUP3 ADD DUP1 SLOAD PUSH2 0x405 SWAP1 PUSH2 0x1137 JUMP JUMPDEST DUP1 PUSH1 0x1F ADD PUSH1 0x20 DUP1 SWAP2 DIV MUL PUSH1 0x20 ADD PUSH1 0x40 MLOAD SWAP1 DUP2 ADD PUSH1 0x40 MSTORE DUP1 SWAP3 SWAP2 SWAP1 DUP2 DUP2 MSTORE PUSH1 0x20 ADD DUP3 DUP1 SLOAD PUSH2 0x431 SWAP1 PUSH2 0x1137 JUMP JUMPDEST DUP1 ISZERO PUSH2 0x47C JUMPI DUP1 PUSH1 0x1F LT PUSH2 0x453 JUMPI PUSH2 0x100 DUP1 DUP4 SLOAD DIV MUL DUP4 MSTORE SWAP2 PUSH1 0x20 ADD SWAP2 PUSH2 0x47C JUMP JUMPDEST DUP3 ADD SWAP2 SWAP1 PUSH0 MSTORE PUSH1 0x20 PUSH0 KECCAK256 SWAP1 JUMPDEST DUP2 SLOAD DUP2 MSTORE SWAP1 PUSH1 0x1 ADD SWAP1 PUSH1 0x20 ADD DUP1 DUP4 GT PUSH2 0x45F JUMPI DUP3 SWAP1 SUB PUSH1 0x1F AND DUP3 ADD SWAP2 JUMPDEST POP POP POP POP POP DUP2 MSTORE PUSH1 0x20 ADD PUSH1 0x1 DUP3 ADD DUP1 SLOAD PUSH2 0x495 SWAP1 PUSH2 0x1137 JUMP JUMPDEST DUP1 PUSH1 0x1F ADD PUSH1 0x20 DUP1 SWAP2 DIV MUL PUSH1 0x20 ADD PUSH1 0x40 MLOAD SWAP1 DUP2 ADD PUSH1 0x40 MSTORE DUP1 SWAP3 SWAP2 SWAP1 DUP2 DUP2 MSTORE PUSH1 0x20 ADD DUP3 DUP1 SLOAD PUSH2 0x4C1 SWAP1 PUSH2 0x1137 JUMP JUMPDEST DUP1 ISZERO PUSH2 0x50C JUMPI DUP1 PUSH1 0x1F LT PUSH2 0x4E3 JUMPI PUSH2 0x100 DUP1 DUP4 SLOAD DIV MUL DUP4 MSTORE SWAP2 PUSH1 0x20 ADD SWAP2 PUSH2 0x50C JUMP JUMPDEST DUP3 ADD SWAP2 SWAP1 PUSH0 MSTORE PUSH1 0x20 PUSH0 KECCAK256 SWAP1 JUMPDEST DUP2 SLOAD DUP2 MSTORE SWAP1 PUSH1 0x1 ADD SWAP1 PUSH1 0x20 ADD DUP1 DUP4 GT PUSH2 0x4EF JUMPI DUP3 SWAP1 SUB PUSH1 0x1F AND DUP3 ADD SWAP2 JUMPDEST POP POP POP POP POP DUP2 MSTORE PUSH1 0x20 ADD PUSH1 0x2 DUP3 ADD DUP1 SLOAD PUSH2 0x525 SWAP1 PUSH2 0x1137 JUMP JUMPDEST DUP1 PUSH1 0x1F ADD PUSH1 0x20 DUP1 SWAP2 DIV MUL PUSH1 0x20 ADD PUSH1 0x40 MLOAD SWAP1 DUP2 ADD PUSH1 0x40 MSTORE DUP1 SWAP3 SWAP2 SWAP1 DUP2 DUP2 MSTORE PUSH1 0x20 ADD DUP3 DUP1 SLOAD PUSH2 0x551 SWAP1 PUSH2 0x1137 JUMP JUMPDEST DUP1 ISZERO PUSH2 0x59C JUMPI DUP1 PUSH1 0x1F LT PUSH2 0x573 JUMPI PUSH2 0x100 DUP1 DUP4 SLOAD DIV MUL DUP4 MSTORE SWAP2 PUSH1 0x20 ADD SWAP2 PUSH2 0x59C JUMP JUMPDEST DUP3 ADD SWAP2 SWAP1 PUSH0 MSTORE PUSH1 0x20 PUSH0 KECCAK256 SWAP1 JUMPDEST DUP2 SLOAD DUP2 MSTORE SWAP1 PUSH1 0x1 ADD SWAP1 PUSH1 0x20 ADD DUP1 DUP4 GT PUSH2 0x57F JUMPI DUP3 SWAP1 SUB PUSH1 0x1F AND DUP3 ADD SWAP2 JUMPDEST POP POP POP POP POP DUP2 MSTORE PUSH1 0x20 ADD PUSH1 0x3 DUP3 ADD SLOAD DUP2 MSTORE POP POP DUP2 MSTORE PUSH1 0x20 ADD SWAP1 PUSH1 0x1 ADD SWAP1 PUSH2 0x3D5 JUMP JUMPDEST POP POP POP POP SWAP1 POP SWAP1 JUMP JUMPDEST PUSH0 PUSH1 0x20 MSTORE DUP2 PUSH0 MSTORE PUSH1 0x40 PUSH0 KECCAK256 DUP2 DUP2 SLOAD DUP2 LT PUSH2 0x5DF JUMPI PUSH0 DUP1 REVERT JUMPDEST SWAP1 PUSH0 MSTORE PUSH1 0x20 PUSH0 KECCAK256 SWAP1 PUSH1 0x4 MUL ADD PUSH0 SWAP2 POP SWAP2 POP POP DUP1 PUSH0 ADD DUP1 SLOAD PUSH2 0x5FF SWAP1 PUSH2 0x1137 JUMP JUMPDEST DUP1 PUSH1 0x1F ADD PUSH1 0x20 DUP1 SWAP2 DIV MUL PUSH1 0x20 ADD PUSH1 0x40 MLOAD SWAP1 DUP2 ADD PUSH1 0x40 MSTORE DUP1 SWAP3 SWAP2 SWAP1 DUP2 DUP2 MSTORE PUSH1 0x20 ADD DUP3 DUP1 SLOAD PUSH2 0x62B SWAP1 PUSH2 0x1137 JUMP JUMPDEST DUP1 ISZERO PUSH2 0x676 JUMPI DUP1 PUSH1 0x1F LT PUSH2 0x64D JUMPI PUSH2 0x100 DUP1 DUP4 SLOAD DIV MUL DUP4 MSTORE SWAP2 PUSH1 0x20 ADD SWAP2 PUSH2 0x676 JUMP JUMPDEST DUP3 ADD SWAP2 SWAP1 PUSH0 MSTORE PUSH1 0x20 PUSH0 KECCAK256 SWAP1 JUMPDEST DUP2 SLOAD DUP2 MSTORE SWAP1 PUSH1 0x1 ADD SWAP1 PUSH1 0x20 ADD DUP1 DUP4 GT PUSH2 0x659 JUMPI DUP3 SWAP1 SUB PUSH1 0x1F AND DUP3 ADD SWAP2 JUMPDEST POP POP POP POP POP SWAP1 DUP1 PUSH1 0x1 ADD DUP1 SLOAD PUSH2 0x68B SWAP1 PUSH2 0x1137 JUMP JUMPDEST DUP1 PUSH1 0x1F ADD PUSH1 0x20 DUP1 SWAP2 DIV MUL PUSH1 0x20 ADD PUSH1 0x40 MLOAD SWAP1 DUP2 ADD PUSH1 0x40 MSTORE DUP1 SWAP3 SWAP2 SWAP1 DUP2 DUP2 MSTORE PUSH1 0x20 ADD DUP3 DUP1 SLOAD PUSH2 0x6B7 SWAP1 PUSH2 0x1137 JUMP JUMPDEST DUP1 ISZERO PUSH2 0x702 JUMPI DUP1 PUSH1 0x1F LT PUSH2 0x6D9 JUMPI PUSH2 0x100 DUP1 DUP4 SLOAD DIV MUL DUP4 MSTORE SWAP2 PUSH1 0x20 ADD SWAP2 PUSH2 0x702 JUMP JUMPDEST DUP3 ADD SWAP2 SWAP1 PUSH0 MSTORE PUSH1 0x20 PUSH0 KECCAK256 SWAP1 JUMPDEST DUP2 SLOAD DUP2 MSTORE SWAP1 PUSH1 0x1 ADD SWAP1 PUSH1 0x20 ADD DUP1 DUP4 GT PUSH2 0x6E5 JUMPI DUP3 SWAP1 SUB PUSH1 0x1F AND DUP3 ADD SWAP2 JUMPDEST POP POP POP POP POP SWAP1 DUP1 PUSH1 0x2 ADD DUP1 SLOAD PUSH2 0x717 SWAP1 PUSH2 0x1137 JUMP JUMPDEST DUP1 PUSH1 0x1F ADD PUSH1 0x20 DUP1 SWAP2 DIV MUL PUSH1 0x20 ADD PUSH1 0x40 MLOAD SWAP1 DUP2 ADD PUSH1 0x40 MSTORE DUP1 SWAP3 SWAP2 SWAP1 DUP2 DUP2 MSTORE PUSH1 0x20 ADD DUP3 DUP1 SLOAD PUSH2 0x743 SWAP1 PUSH2 0x1137 JUMP JUMPDEST DUP1 ISZERO PUSH2 0x78E JUMPI DUP1 PUSH1 0x1F LT PUSH2 0x765 JUMPI PUSH2 0x100 DUP1 DUP4 SLOAD DIV MUL DUP4 MSTORE SWAP2 PUSH1 0x20 ADD SWAP2 PUSH2 0x78E JUMP JUMPDEST DUP3 ADD SWAP2 SWAP1 PUSH0 MSTORE PUSH1 0x20 PUSH0 KECCAK256 SWAP1 JUMPDEST DUP2 SLOAD DUP2 MSTORE SWAP1 PUSH1 0x1 ADD SWAP1 PUSH1 0x20 ADD DUP1 DUP4 GT PUSH2 0x771 JUMPI DUP3 SWAP1 SUB PUSH1 0x1F AND DUP3 ADD SWAP2 JUMPDEST POP POP POP POP POP SWAP1 DUP1 PUSH1 0x3 ADD SLOAD SWAP1 POP DUP5 JUMP JUMPDEST PUSH0 PUSH0 PUSH0 CALLER PUSH20 0xFFFFFFFFFFFFFFFFFFFFFFFFFFFFFFFFFFFFFFFF AND PUSH20 0xFFFFFFFFFFFFFFFFFFFFFFFFFFFFFFFFFFFFFFFF AND DUP2 MSTORE PUSH1 0x20 ADD SWAP1 DUP2 MSTORE PUSH1 0x20 ADD PUSH0 KECCAK256 SWAP1 POP DUP1 DUP1 SLOAD SWAP1 POP DUP10 LT PUSH2 0x825 JUMPI DUP9 PUSH1 0x40 MLOAD PUSH32 0x40C901CE00000000000000000000000000000000000000000000000000000000 DUP2 MSTORE PUSH1 0x4 ADD PUSH2 0x81C SWAP2 SWAP1 PUSH2 0x1167 JUMP JUMPDEST PUSH1 0x40 MLOAD DUP1 SWAP2 SUB SWAP1 REVERT JUMPDEST DUP8 DUP8 DUP3 DUP12 DUP2 SLOAD DUP2 LT PUSH2 0x83A JUMPI PUSH2 0x839 PUSH2 0x1180 JUMP JUMPDEST JUMPDEST SWAP1 PUSH0 MSTORE PUSH1 0x20 PUSH0 KECCAK256 SWAP1 PUSH1 0x4 MUL ADD PUSH0 ADD SWAP2 DUP3 PUSH2 0x855 SWAP3 SWAP2 SWAP1 PUSH2 0x1384 JUMP JUMPDEST POP DUP6 DUP6 DUP3 DUP12 DUP2 SLOAD DUP2 LT PUSH2 0x86B JUMPI PUSH2 0x86A PUSH2 0x1180 JUMP JUMPDEST JUMPDEST SWAP1 PUSH0 MSTORE PUSH1 0x20 PUSH0 KECCAK256 SWAP1 PUSH1 0x4 MUL ADD PUSH1 0x1 ADD SWAP2 DUP3 PUSH2 0x887 SWAP3 SWAP2 SWAP1 PUSH2 0x1384 JUMP JUMPDEST POP DUP4 DUP4 DUP3 DUP12 DUP2 SLOAD DUP2 LT PUSH2 0x89D JUMPI PUSH2 0x89C PUSH2 0x1180 JUMP JUMPDEST JUMPDEST SWAP1 PUSH0 MSTORE PUSH1 0x20 PUSH0 KECCAK256 SWAP1 PUSH1 0x4 MUL ADD PUSH1 0x2 ADD SWAP2 DUP3 PUSH2 0x8B9 SWAP3 SWAP2 SWAP1 PUSH2 0x1384 JUMP JUMPDEST POP DUP2 DUP2 DUP11 DUP2 SLOAD DUP2 LT PUSH2 0x8CE JUMPI PUSH2 0x8CD PUSH2 0x1180 JUMP JUMPDEST JUMPDEST SWAP1 PUSH0 MSTORE PUSH1 0x20 PUSH0 KECCAK256 SWAP1 PUSH1 0x4 MUL ADD PUSH1 0x3 ADD DUP2 SWAP1 SSTORE POP POP POP POP POP POP POP POP POP POP JUMP JUMPDEST PUSH0 PUSH0 CALLER PUSH20 0xFFFFFFFFFFFFFFFFFFFFFFFFFFFFFFFFFFFFFFFF AND PUSH20 0xFFFFFFFFFFFFFFFFFFFFFFFFFFFFFFFFFFFFFFFF AND DUP2 MSTORE PUSH1 0x20 ADD SWAP1 DUP2 MSTORE PUSH1 0x20 ADD PUSH0 KECCAK256 PUSH0 PUSH2 0x933 SWAP2 SWAP1 PUSH2 0xAD6 JUMP JUMPDEST JUMP JUMPDEST PUSH0 PUSH0 CALLER PUSH20 0xFFFFFFFFFFFFFFFFFFFFFFFFFFFFFFFFFFFFFFFF AND PUSH20 0xFFFFFFFFFFFFFFFFFFFFFFFFFFFFFFFFFFFFFFFF AND DUP2 MSTORE PUSH1 0x20 ADD SWAP1 DUP2 MSTORE PUSH1 0x20 ADD PUSH0 KECCAK256 PUSH1 0x40 MLOAD DUP1 PUSH1 0x80 ADD PUSH1 0x40 MSTORE DUP1 DUP10 DUP10 DUP1 DUP1 PUSH1 0x1F ADD PUSH1 0x20 DUP1 SWAP2 DIV MUL PUSH1 0x20 ADD PUSH1 0x40 MLOAD SWAP1 DUP2 ADD PUSH1 0x40 MSTORE DUP1 SWAP4 SWAP3 SWAP2 SWAP1 DUP2 DUP2 MSTORE PUSH1 0x20 ADD DUP4 DUP4 DUP1 DUP3 DUP5 CALLDATACOPY PUSH0 DUP2 DUP5 ADD MSTORE PUSH1 0x1F NOT PUSH1 0x1F DUP3 ADD AND SWAP1 POP DUP1 DUP4 ADD SWAP3 POP POP POP POP POP POP POP DUP2 MSTORE PUSH1 0x20 ADD DUP8 DUP8 DUP1 DUP1 PUSH1 0x1F ADD PUSH1 0x20 DUP1 SWAP2 DIV MUL PUSH1 0x20 ADD PUSH1 0x40 MLOAD SWAP1 DUP2 ADD PUSH1 0x40 MSTORE DUP1 SWAP4 SWAP3 SWAP2 SWAP1 DUP2 DUP2 MSTORE PUSH1 0x20 ADD DUP4 DUP4 DUP1 DUP3 DUP5 CALLDATACOPY PUSH0 DUP2 DUP5 ADD MSTORE PUSH1 0x1F NOT PUSH1 0x1F DUP3 ADD AND SWAP1 POP DUP1 DUP4 ADD SWAP3 POP POP POP POP POP POP POP DUP2 MSTORE PUSH1 0x20 ADD DUP6 DUP6 DUP1 DUP1 PUSH1 0x1F ADD PUSH1 0x20 DUP1 SWAP2 DIV MUL PUSH1 0x20 ADD PUSH1 0x40 MLOAD SWAP1 DUP2 ADD PUSH1 0x40 MSTORE DUP1 SWAP4 SWAP3 SWAP2 SWAP1 DUP2 DUP2 MSTORE PUSH1 0x20 ADD DUP4 DUP4 DUP1 DUP3 DUP5 CALLDATACOPY PUSH0 DUP2 DUP5 ADD MSTORE PUSH1 0x1F NOT PUSH1 0x1F DUP3 ADD AND SWAP1 POP DUP1 DUP4 ADD SWAP3 POP POP POP POP POP POP POP DUP2 MSTORE PUSH1 0x20 ADD DUP4 DUP2 MSTORE POP SWAP1 DUP1 PUSH1 0x1 DUP2 SLOAD ADD DUP1 DUP3 SSTORE DUP1 SWAP2 POP POP PUSH1 0x1 SWAP1 SUB SWAP1 PUSH0 MSTORE PUSH1 0x20 PUSH0 KECCAK256 SWAP1 PUSH1 0x4 MUL ADD PUSH0 SWAP1 SWAP2 SWAP1 SWAP2 SWAP1 SWAP2 POP PUSH0 DUP3 ADD MLOAD DUP2 PUSH0 ADD SWAP1 DUP2 PUSH2 0xA94 SWAP2 SWAP1 PUSH2 0x1451 JUMP JUMPDEST POP PUSH1 0x20 DUP3 ADD MLOAD DUP2 PUSH1 0x1 ADD SWAP1 DUP2 PUSH2 0xAAA SWAP2 SWAP1 PUSH2 0x1451 JUMP JUMPDEST POP PUSH1 0x40 DUP3 ADD MLOAD DUP2 PUSH1 0x2 ADD SWAP1 DUP2 PUSH2 0xAC0 SWAP2 SWAP1 PUSH2 0x1451 JUMP JUMPDEST POP PUSH1 0x60 DUP3 ADD MLOAD DUP2 PUSH1 0x3 ADD SSTORE POP POP POP POP POP POP POP POP POP JUMP JUMPDEST POP DUP1 SLOAD PUSH0 DUP3 SSTORE PUSH1 0x4 MUL SWAP1 PUSH0 MSTORE PUSH1 0x20 PUSH0 KECCAK256 SWAP1 DUP2 ADD SWAP1 PUSH2 0xAF4 SWAP2 SWAP1 PUSH2 0xAF7 JUMP JUMPDEST POP JUMP JUMPDEST JUMPDEST DUP1 DUP3 GT ISZERO PUSH2 0xB3D JUMPI PUSH0 PUSH0 DUP3 ADD PUSH0 PUSH2 0xB0F SWAP2 SWAP1 PUSH2 0xB41 JUMP JUMPDEST PUSH1 0x1 DUP3 ADD PUSH0 PUSH2 0xB1E SWAP2 SWAP1 PUSH2 0xB41 JUMP JUMPDEST PUSH1 0x2 DUP3 ADD PUSH0 PUSH2 0xB2D SWAP2 SWAP1 PUSH2 0xB41 JUMP JUMPDEST PUSH1 0x3 DUP3 ADD PUSH0 SWAP1 SSTORE POP PUSH1 0x4 ADD PUSH2 0xAF8 JUMP JUMPDEST POP SWAP1 JUMP JUMPDEST POP DUP1 SLOAD PUSH2 0xB4D SWAP1 PUSH2 0x1137 JUMP JUMPDEST PUSH0 DUP3 SSTORE DUP1 PUSH1 0x1F LT PUSH2 0xB5E JUMPI POP PUSH2 0xB7B JUMP JUMPDEST PUSH1 0x1F ADD PUSH1 0x20 SWAP1 DIV SWAP1 PUSH0 MSTORE PUSH1 0x20 PUSH0 KECCAK256 SWAP1 DUP2 ADD SWAP1 PUSH2 0xB7A SWAP2 SWAP1 PUSH2 0xB7E JUMP JUMPDEST JUMPDEST POP JUMP JUMPDEST JUMPDEST DUP1 DUP3 GT ISZERO PUSH2 0xB95 JUMPI PUSH0 DUP2 PUSH0 SWAP1 SSTORE POP PUSH1 0x1 ADD PUSH2 0xB7F JUMP JUMPDEST POP SWAP1 JUMP JUMPDEST PUSH0 PUSH0 REVERT JUMPDEST PUSH0 PUSH0 REVERT JUMPDEST PUSH0 PUSH20 0xFFFFFFFFFFFFFFFFFFFFFFFFFFFFFFFFFFFFFFFF DUP3 AND SWAP1 POP SWAP2 SWAP1 POP JUMP JUMPDEST PUSH0 PUSH2 0xBCA DUP3 PUSH2 0xBA1 JUMP JUMPDEST SWAP1 POP SWAP2 SWAP1 POP JUMP JUMPDEST PUSH2 0xBDA DUP2 PUSH2 0xBC0 JUMP JUMPDEST DUP2 EQ PUSH2 0xBE4 JUMPI PUSH0 PUSH0 REVERT JUMPDEST POP JUMP JUMPDEST PUSH0 DUP2 CALLDATALOAD SWAP1 POP PUSH2 0xBF5 DUP2 PUSH2 0xBD1 JUMP JUMPDEST SWAP3 SWAP2 POP POP JUMP JUMPDEST PUSH0 PUSH1 0x20 DUP3 DUP5 SUB SLT ISZERO PUSH2 0xC10 JUMPI PUSH2 0xC0F PUSH2 0xB99 JUMP JUMPDEST JUMPDEST PUSH0 PUSH2 0xC1D DUP5 DUP3 DUP6 ADD PUSH2 0xBE7 JUMP JUMPDEST SWAP2 POP POP SWAP3 SWAP2 POP POP JUMP JUMPDEST PUSH0 DUP2 MLOAD SWAP1 POP SWAP2 SWAP1 POP JUMP JUMPDEST PUSH0 DUP3 DUP3 MSTORE PUSH1 0x20 DUP3 ADD SWAP1 POP SWAP3 SWAP2 POP POP JUMP JUMPDEST PUSH0 DUP2 SWAP1 POP PUSH1 0x20 DUP3 ADD SWAP1 POP SWAP2 SWAP1 POP JUMP JUMPDEST PUSH0 DUP2 MLOAD SWAP1 POP SWAP2 SWAP1 POP JUMP JUMPDEST PUSH0 DUP3 DUP3 MSTORE PUSH1 0x20 DUP3 ADD SWAP1 POP SWAP3 SWAP2 POP POP JUMP JUMPDEST DUP3 DUP2 DUP4 MCOPY PUSH0 DUP4 DUP4 ADD MSTORE POP POP POP JUMP JUMPDEST PUSH0 PUSH1 0x1F NOT PUSH1 0x1F DUP4 ADD AND SWAP1 POP SWAP2 SWAP1 POP JUMP JUMPDEST PUSH0 PUSH2 0xC91 DUP3 PUSH2 0xC4F JUMP JUMPDEST PUSH2 0xC9B DUP2 DUP6 PUSH2 0xC59 JUMP JUMPDEST SWAP4 POP PUSH2 0xCAB DUP2 DUP6 PUSH1 0x20 DUP7 ADD PUSH2 0xC69 JUMP JUMPDEST PUSH2 0xCB4 DUP2 PUSH2 0xC77 JUMP JUMPDEST DUP5 ADD SWAP2 POP POP SWAP3 SWAP2 POP POP JUMP JUMPDEST PUSH0 DUP2 SWAP1 POP SWAP2 SWAP1 POP JUMP JUMPDEST PUSH2 0xCD1 DUP2 PUSH2 0xCBF JUMP JUMPDEST DUP3 MSTORE POP POP JUMP JUMPDEST PUSH0 PUSH1 0x80 DUP4 ADD PUSH0 DUP4 ADD MLOAD DUP5 DUP3 SUB PUSH0 DUP7 ADD MSTORE PUSH2 0xCF1 DUP3 DUP3 PUSH2 0xC87 JUMP JUMPDEST SWAP2 POP POP PUSH1 0x20 DUP4 ADD MLOAD DUP5 DUP3 SUB PUSH1 0x20 DUP7 ADD MSTORE PUSH2 0xD0B DUP3 DUP3 PUSH2 0xC87 JUMP JUMPDEST SWAP2 POP POP PUSH1 0x40 DUP4 ADD MLOAD DUP5 DUP3 SUB PUSH1 0x40 DUP7 ADD MSTORE PUSH2 0xD25 DUP3 DUP3 PUSH2 0xC87 JUMP JUMPDEST SWAP2 POP POP PUSH1 0x60 DUP4 ADD MLOAD PUSH2 0xD3A PUSH1 0x60 DUP7 ADD DUP3 PUSH2 0xCC8 JUMP JUMPDEST POP DUP1 SWAP2 POP POP SWAP3 SWAP2 POP POP JUMP JUMPDEST PUSH0 PUSH2 0xD50 DUP4 DUP4 PUSH2 0xCD7 JUMP JUMPDEST SWAP1 POP SWAP3 SWAP2 POP POP JUMP JUMPDEST PUSH0 PUSH1 0x20 DUP3 ADD SWAP1 POP SWAP2 SWAP1 POP JUMP JUMPDEST PUSH0 PUSH2 0xD6E DUP3 PUSH2 0xC26 JUMP JUMPDEST PUSH2 0xD78 DUP2 DUP6 PUSH2 0xC30 JUMP JUMPDEST SWAP4 POP DUP4 PUSH1 0x20 DUP3 MUL DUP6 ADD PUSH2 0xD8A DUP6 PUSH2 0xC40 JUMP JUMPDEST DUP1 PUSH0 JUMPDEST DUP6 DUP2 LT ISZERO PUSH2 0xDC5 JUMPI DUP5 DUP5 SUB DUP10 MSTORE DUP2 MLOAD PUSH2 0xDA6 DUP6 DUP3 PUSH2 0xD45 JUMP JUMPDEST SWAP5 POP PUSH2 0xDB1 DUP4 PUSH2 0xD58 JUMP JUMPDEST SWAP3 POP PUSH1 0x20 DUP11 ADD SWAP10 POP POP PUSH1 0x1 DUP2 ADD SWAP1 POP PUSH2 0xD8D JUMP JUMPDEST POP DUP3 SWAP8 POP DUP8 SWAP6 POP POP POP POP POP POP SWAP3 SWAP2 POP POP JUMP JUMPDEST PUSH0 PUSH1 0x20 DUP3 ADD SWAP1 POP DUP2 DUP2 SUB PUSH0 DUP4 ADD MSTORE PUSH2 0xDEF DUP2 DUP5 PUSH2 0xD64 JUMP JUMPDEST SWAP1 POP SWAP3 SWAP2 POP POP JUMP JUMPDEST PUSH2 0xE00 DUP2 PUSH2 0xCBF JUMP JUMPDEST DUP2 EQ PUSH2 0xE0A JUMPI PUSH0 PUSH0 REVERT JUMPDEST POP JUMP JUMPDEST PUSH0 DUP2 CALLDATALOAD SWAP1 POP PUSH2 0xE1B DUP2 PUSH2 0xDF7 JUMP JUMPDEST SWAP3 SWAP2 POP POP JUMP JUMPDEST PUSH0 PUSH0 PUSH1 0x40 DUP4 DUP6 SUB SLT ISZERO PUSH2 0xE37 JUMPI PUSH2 0xE36 PUSH2 0xB99 JUMP JUMPDEST JUMPDEST PUSH0 PUSH2 0xE44 DUP6 DUP3 DUP7 ADD PUSH2 0xBE7 JUMP JUMPDEST SWAP3 POP POP PUSH1 0x20 PUSH2 0xE55 DUP6 DUP3 DUP7 ADD PUSH2 0xE0D JUMP JUMPDEST SWAP2 POP POP SWAP3 POP SWAP3 SWAP1 POP JUMP JUMPDEST PUSH0 DUP3 DUP3 MSTORE PUSH1 0x20 DUP3 ADD SWAP1 POP SWAP3 SWAP2 POP POP JUMP JUMPDEST PUSH0 PUSH2 0xE79 DUP3 PUSH2 0xC4F JUMP JUMPDEST PUSH2 0xE83 DUP2 DUP6 PUSH2 0xE5F JUMP JUMPDEST SWAP4 POP PUSH2 0xE93 DUP2 DUP6 PUSH1 0x20 DUP7 ADD PUSH2 0xC69 JUMP JUMPDEST PUSH2 0xE9C DUP2 PUSH2 0xC77 JUMP JUMPDEST DUP5 ADD SWAP2 POP POP SWAP3 SWAP2 POP POP JUMP JUMPDEST PUSH2 0xEB0 DUP2 PUSH2 0xCBF JUMP JUMPDEST DUP3 MSTORE POP POP JUMP JUMPDEST PUSH0 PUSH1 0x80 DUP3 ADD SWAP1 POP DUP2 DUP2 SUB PUSH0 DUP4 ADD MSTORE PUSH2 0xECE DUP2 DUP8 PUSH2 0xE6F JUMP JUMPDEST SWAP1 POP DUP2 DUP2 SUB PUSH1 0x20 DUP4 ADD MSTORE PUSH2 0xEE2 DUP2 DUP7 PUSH2 0xE6F JUMP JUMPDEST SWAP1 POP DUP2 DUP2 SUB PUSH1 0x40 DUP4 ADD MSTORE PUSH2 0xEF6 DUP2 DUP6 PUSH2 0xE6F JUMP JUMPDEST SWAP1 POP PUSH2 0xF05 PUSH1 0x60 DUP4 ADD DUP5 PUSH2 0xEA7 JUMP JUMPDEST SWAP6 SWAP5 POP POP POP POP POP JUMP JUMPDEST PUSH0 PUSH0 REVERT JUMPDEST PUSH0 PUSH0 REVERT JUMPDEST PUSH0 PUSH0 REVERT JUMPDEST PUSH0 PUSH0 DUP4 PUSH1 0x1F DUP5 ADD SLT PUSH2 0xF2F JUMPI PUSH2 0xF2E PUSH2 0xF0E JUMP JUMPDEST JUMPDEST DUP3 CALLDATALOAD SWAP1 POP PUSH8 0xFFFFFFFFFFFFFFFF DUP2 GT ISZERO PUSH2 0xF4C JUMPI PUSH2 0xF4B PUSH2 0xF12 JUMP JUMPDEST JUMPDEST PUSH1 0x20 DUP4 ADD SWAP2 POP DUP4 PUSH1 0x1 DUP3 MUL DUP4 ADD GT ISZERO PUSH2 0xF68 JUMPI PUSH2 0xF67 PUSH2 0xF16 JUMP JUMPDEST JUMPDEST SWAP3 POP SWAP3 SWAP1 POP JUMP JUMPDEST PUSH0 PUSH0 PUSH0 PUSH0 PUSH0 PUSH0 PUSH0 PUSH0 PUSH1 0xA0 DUP10 DUP12 SUB SLT ISZERO PUSH2 0xF8B JUMPI PUSH2 0xF8A PUSH2 0xB99 JUMP JUMPDEST JUMPDEST PUSH0 PUSH2 0xF98 DUP12 DUP3 DUP13 ADD PUSH2 0xE0D JUMP JUMPDEST SWAP9 POP POP PUSH1 0x20 DUP10 ADD CALLDATALOAD PUSH8 0xFFFFFFFFFFFFFFFF DUP2 GT ISZERO PUSH2 0xFB9 JUMPI PUSH2 0xFB8 PUSH2 0xB9D JUMP JUMPDEST JUMPDEST PUSH2 0xFC5 DUP12 DUP3 DUP13 ADD PUSH2 0xF1A JUMP JUMPDEST SWAP8 POP SWAP8 POP POP PUSH1 0x40 DUP10 ADD CALLDATALOAD PUSH8 0xFFFFFFFFFFFFFFFF DUP2 GT ISZERO PUSH2 0xFE8 JUMPI PUSH2 0xFE7 PUSH2 0xB9D JUMP JUMPDEST JUMPDEST PUSH2 0xFF4 DUP12 DUP3 DUP13 ADD PUSH2 0xF1A JUMP JUMPDEST SWAP6 POP SWAP6 POP POP PUSH1 0x60 DUP10 ADD CALLDATALOAD PUSH8 0xFFFFFFFFFFFFFFFF DUP2 GT ISZERO PUSH2 0x1017 JUMPI PUSH2 0x1016 PUSH2 0xB9D JUMP JUMPDEST JUMPDEST PUSH2 0x1023 DUP12 DUP3 DUP13 ADD PUSH2 0xF1A JUMP JUMPDEST SWAP4 POP SWAP4 POP POP PUSH1 0x80 PUSH2 0x1036 DUP12 DUP3 DUP13 ADD PUSH2 0xE0D JUMP JUMPDEST SWAP2 POP POP SWAP3 SWAP6 SWAP9 POP SWAP3 SWAP6 SWAP9 SWAP1 SWAP4 SWAP7 POP JUMP JUMPDEST PUSH0 PUSH0 PUSH0 PUSH0 PUSH0 PUSH0 PUSH0 PUSH1 0x80 DUP9 DUP11 SUB SLT ISZERO PUSH2 0x1061 JUMPI PUSH2 0x1060 PUSH2 0xB99 JUMP JUMPDEST JUMPDEST PUSH0 DUP9 ADD CALLDATALOAD PUSH8 0xFFFFFFFFFFFFFFFF DUP2 GT ISZERO PUSH2 0x107E JUMPI PUSH2 0x107D PUSH2 0xB9D JUMP JUMPDEST JUMPDEST PUSH2 0x108A DUP11 DUP3 DUP12 ADD PUSH2 0xF1A JUMP JUMPDEST SWAP8 POP SWAP8 POP POP PUSH1 0x20 DUP9 ADD CALLDATALOAD PUSH8 0xFFFFFFFFFFFFFFFF DUP2 GT ISZERO PUSH2 0x10AD JUMPI PUSH2 0x10AC PUSH2 0xB9D JUMP JUMPDEST JUMPDEST PUSH2 0x10B9 DUP11 DUP3 DUP12 ADD PUSH2 0xF1A JUMP JUMPDEST SWAP6 POP SWAP6 POP POP PUSH1 0x40 DUP9 ADD CALLDATALOAD PUSH8 0xFFFFFFFFFFFFFFFF DUP2 GT ISZERO PUSH2 0x10DC JUMPI PUSH2 0x10DB PUSH2 0xB9D JUMP JUMPDEST JUMPDEST PUSH2 0x10E8 DUP11 DUP3 DUP12 ADD PUSH2 0xF1A JUMP JUMPDEST SWAP4 POP SWAP4 POP POP PUSH1 0x60 PUSH2 0x10FB DUP11 DUP3 DUP12 ADD PUSH2 0xE0D JUMP JUMPDEST SWAP2 POP POP SWAP3 SWAP6 SWAP9 SWAP2 SWAP5 SWAP8 POP SWAP3 SWAP6 POP JUMP JUMPDEST PUSH32 0x4E487B7100000000000000000000000000000000000000000000000000000000 PUSH0 MSTORE PUSH1 0x22 PUSH1 0x4 MSTORE PUSH1 0x24 PUSH0 REVERT JUMPDEST PUSH0 PUSH1 0x2 DUP3 DIV SWAP1 POP PUSH1 0x1 DUP3 AND DUP1 PUSH2 0x114E JUMPI PUSH1 0x7F DUP3 AND SWAP2 POP JUMPDEST PUSH1 0x20 DUP3 LT DUP2 SUB PUSH2 0x1161 JUMPI PUSH2 0x1160 PUSH2 0x110A JUMP JUMPDEST JUMPDEST POP SWAP2 SWAP1 POP JUMP JUMPDEST PUSH0 PUSH1 0x20 DUP3 ADD SWAP1 POP PUSH2 0x117A PUSH0 DUP4 ADD DUP5 PUSH2 0xEA7 JUMP JUMPDEST SWAP3 SWAP2 POP POP JUMP JUMPDEST PUSH32 0x4E487B7100000000000000000000000000000000000000000000000000000000 PUSH0 MSTORE PUSH1 0x32 PUSH1 0x4 MSTORE PUSH1 0x24 PUSH0 REVERT JUMPDEST PUSH0 DUP3 SWAP1 POP SWAP3 SWAP2 POP POP JUMP JUMPDEST PUSH32 0x4E487B7100000000000000000000000000000000000000000000000000000000 PUSH0 MSTORE PUSH1 0x41 PUSH1 0x4 MSTORE PUSH1 0x24 PUSH0 REVERT JUMPDEST PUSH0 DUP2 SWAP1 POP DUP2 PUSH0 MSTORE PUSH1 0x20 PUSH0 KECCAK256 SWAP1 POP SWAP2 SWAP1 POP JUMP JUMPDEST PUSH0 PUSH1 0x20 PUSH1 0x1F DUP4 ADD DIV SWAP1 POP SWAP2 SWAP1 POP JUMP JUMPDEST PUSH0 DUP3 DUP3 SHL SWAP1 POP SWAP3 SWAP2 POP POP JUMP JUMPDEST PUSH0 PUSH1 0x8 DUP4 MUL PUSH2 0x1240 PUSH32 0xFFFFFFFFFFFFFFFFFFFFFFFFFFFFFFFFFFFFFFFFFFFFFFFFFFFFFFFFFFFFFFFF DUP3 PUSH2 0x1205 JUMP JUMPDEST PUSH2 0x124A DUP7 DUP4 PUSH2 0x1205 JUMP JUMPDEST SWAP6 POP DUP1 NOT DUP5 AND SWAP4 POP DUP1 DUP7 AND DUP5 OR SWAP3 POP POP POP SWAP4 SWAP3 POP POP POP JUMP JUMPDEST PUSH0 DUP2 SWAP1 POP SWAP2 SWAP1 POP JUMP JUMPDEST PUSH0 PUSH2 0x1285 PUSH2 0x1280 PUSH2 0x127B DUP5 PUSH2 0xCBF JUMP JUMPDEST PUSH2 0x1262 JUMP JUMPDEST PUSH2 0xCBF JUMP JUMPDEST SWAP1 POP SWAP2 SWAP1 POP JUMP JUMPDEST PUSH0 DUP2 SWAP1 POP SWAP2 SWAP1 POP JUMP JUMPDEST PUSH2 0x129E DUP4 PUSH2 0x126B JUMP JUMPDEST PUSH2 0x12B2 PUSH2 0x12AA DUP3 PUSH2 0x128C JUMP JUMPDEST DUP5 DUP5 SLOAD PUSH2 0x1211 JUMP JUMPDEST DUP3 SSTORE POP POP POP POP JUMP JUMPDEST PUSH0 PUSH0 SWAP1 POP SWAP1 JUMP JUMPDEST PUSH2 0x12C9 PUSH2 0x12BA JUMP JUMPDEST PUSH2 0x12D4 DUP2 DUP5 DUP5 PUSH2 0x1295 JUMP JUMPDEST POP POP POP JUMP JUMPDEST JUMPDEST DUP2 DUP2 LT ISZERO PUSH2 0x12F7 JUMPI PUSH2 0x12EC PUSH0 DUP3 PUSH2 0x12C1 JUMP JUMPDEST PUSH1 0x1 DUP2 ADD SWAP1 POP PUSH2 0x12DA JUMP JUMPDEST POP POP JUMP JUMPDEST PUSH1 0x1F DUP3 GT ISZERO PUSH2 0x133C JUMPI PUSH2 0x130D DUP2 PUSH2 0x11E4 JUMP JUMPDEST PUSH2 0x1316 DUP5 PUSH2 0x11F6 JUMP JUMPDEST DUP2 ADD PUSH1 0x20 DUP6 LT ISZERO PUSH2 0x1325 JUMPI DUP2 SWAP1 POP JUMPDEST PUSH2 0x1339 PUSH2 0x1331 DUP6 PUSH2 0x11F6 JUMP JUMPDEST DUP4 ADD DUP3 PUSH2 0x12D9 JUMP JUMPDEST POP POP JUMPDEST POP POP POP JUMP JUMPDEST PUSH0 DUP3 DUP3 SHR SWAP1 POP SWAP3 SWAP2 POP POP JUMP JUMPDEST PUSH0 PUSH2 0x135C PUSH0 NOT DUP5 PUSH1 0x8 MUL PUSH2 0x1341 JUMP JUMPDEST NOT DUP1 DUP4 AND SWAP2 POP POP SWAP3 SWAP2 POP POP JUMP JUMPDEST PUSH0 PUSH2 0x1374 DUP4 DUP4 PUSH2 0x134D JUMP JUMPDEST SWAP2 POP DUP3 PUSH1 0x2 MUL DUP3 OR SWAP1 POP SWAP3 SWAP2 POP POP JUMP JUMPDEST PUSH2 0x138E DUP4 DUP4 PUSH2 0x11AD JUMP JUMPDEST PUSH8 0xFFFFFFFFFFFFFFFF DUP2 GT ISZERO PUSH2 0x13A7 JUMPI PUSH2 0x13A6 PUSH2 0x11B7 JUMP JUMPDEST JUMPDEST PUSH2 0x13B1 DUP3 SLOAD PUSH2 0x1137 JUMP JUMPDEST PUSH2 0x13BC DUP3 DUP3 DUP6 PUSH2 0x12FB JUMP JUMPDEST PUSH0 PUSH1 0x1F DUP4 GT PUSH1 0x1 DUP2 EQ PUSH2 0x13E9 JUMPI PUSH0 DUP5 ISZERO PUSH2 0x13D7 JUMPI DUP3 DUP8 ADD CALLDATALOAD SWAP1 POP JUMPDEST PUSH2 0x13E1 DUP6 DUP3 PUSH2 0x1369 JUMP JUMPDEST DUP7 SSTORE POP PUSH2 0x1448 JUMP JUMPDEST PUSH1 0x1F NOT DUP5 AND PUSH2 0x13F7 DUP7 PUSH2 0x11E4 JUMP JUMPDEST PUSH0 JUMPDEST DUP3 DUP2 LT ISZERO PUSH2 0x141E JUMPI DUP5 DUP10 ADD CALLDATALOAD DUP3 SSTORE PUSH1 0x1 DUP3 ADD SWAP2 POP PUSH1 0x20 DUP6 ADD SWAP5 POP PUSH1 0x20 DUP2 ADD SWAP1 POP PUSH2 0x13F9 JUMP JUMPDEST DUP7 DUP4 LT ISZERO PUSH2 0x143B JUMPI DUP5 DUP10 ADD CALLDATALOAD PUSH2 0x1437 PUSH1 0x1F DUP10 AND DUP3 PUSH2 0x134D JUMP JUMPDEST DUP4 SSTORE POP JUMPDEST PUSH1 0x1 PUSH1 0x2 DUP9 MUL ADD DUP9 SSTORE POP POP POP JUMPDEST POP POP POP POP POP POP POP JUMP JUMPDEST PUSH2 0x145A DUP3 PUSH2 0xC4F JUMP JUMPDEST PUSH8 0xFFFFFFFFFFFFFFFF DUP2 GT ISZERO PUSH2 0x1473 JUMPI PUSH2 0x1472 PUSH2 0x11B7 JUMP JUMPDEST JUMPDEST PUSH2 0x147D DUP3 SLOAD PUSH2 0x1137 JUMP JUMPDEST PUSH2 0x1488 DUP3 DUP3 DUP6 PUSH2 0x12FB JUMP JUMPDEST PUSH0 PUSH1 0x20 SWAP1 POP PUSH1 0x1F DUP4 GT PUSH1 0x1 DUP2 EQ PUSH2 0x14B9 JUMPI PUSH0 DUP5 ISZERO PUSH2 0x14A7 JUMPI DUP3 DUP8 ADD MLOAD SWAP1 POP JUMPDEST PUSH2 0x14B1 DUP6 DUP3 PUSH2 0x1369 JUMP JUMPDEST DUP7 SSTORE POP PUSH2 0x1518 JUMP JUMPDEST PUSH1 0x1F NOT DUP5 AND PUSH2 0x14C7 DUP7 PUSH2 0x11E4 JUMP JUMPDEST PUSH0 JUMPDEST DUP3 DUP2 LT ISZERO PUSH2 0x14EE JUMPI DUP5 DUP10 ADD MLOAD DUP3 SSTORE PUSH1 0x1 DUP3 ADD SWAP2 POP PUSH1 0x20 DUP6 ADD SWAP5 POP PUSH1 0x20 DUP2 ADD SWAP1 POP PUSH2 0x14C9 JUMP JUMPDEST DUP7 DUP4 LT ISZERO PUSH2 0x150B JUMPI DUP5 DUP10 ADD MLOAD PUSH2 0x1507 PUSH1 0x1F DUP10 AND DUP3 PUSH2 0x134D JUMP JUMPDEST DUP4 SSTORE POP JUMPDEST PUSH1 0x1 PUSH1 0x2 DUP9 MUL ADD DUP9 SSTORE POP POP POP JUMPDEST POP POP POP POP POP POP JUMP INVALID LOG2 PUSH5 0x6970667358 0x22 SLT KECCAK256 PUSH32 0x2622BC85C69C19D91C95DD1FA3154B03BDE0160211C044B1905692D417095264 PUSH20 0x6F6C634300081E00330000000000000000000000 "
				},
				"gasEstimates": {
					"creation": {
						"codeDepositCost": "1092400",
						"executionCost": "1132",
						"totalCost": "1093532"
					},
					"external": {
						"addCar(string,string,string,uint256)": "infinite",
						"garage(address,uint256)": "infinite",
						"getMyCars()": "infinite",
						"getUserCars(address)": "infinite",
						"resetMyGarage()": "infinite",
						"updateCar(uint256,string,string,string,uint256)": "infinite"
					}
				},
				"methodIdentifiers": {
					"addCar(string,string,string,uint256)": "d2d50bd8",
					"garage(address,uint256)": "3ecd55a9",
					"getMyCars()": "341fa05d",
					"getUserCars(address)": "2698286c",
					"resetMyGarage()": "6dcb7896",
					"updateCar(uint256,string,string,string,uint256)": "4cd1ed3d"
				}
			},
			"storageLayout": {
				"storage": [
					{
						"astId": 20,
						"contract": "contracts/06_GarageManager.sol:GarageManager",
						"label": "garage",
						"offset": 0,
						"slot": "0",
						"type": "t_mapping(t_address,t_array(t_struct(Car)14_storage)dyn_storage)"
					}
				],
				"types": {
					"t_address": {
						"encoding": "inplace",
						"label": "address",
						"numberOfBytes": "20"
					},
					"t_array(t_struct(Car)14_storage)dyn_storage": {
						"base": "t_struct(Car)14_storage",
						"encoding": "dynamic_array",
						"label": "struct GarageManager.Car[]",
						"numberOfBytes": "32"
					},
					"t_mapping(t_address,t_array(t_struct(Car)14_storage)dyn_storage)": {
						"encoding": "mapping",
						"key": "t_address",
						"label": "mapping(address => struct GarageManager.Car[])",
						"numberOfBytes": "32",
						"value": "t_array(t_struct(Car)14_storage)dyn_storage"
					},
					"t_string_storage": {
						"encoding": "bytes",
						"label": "string",
						"numberOfBytes": "32"
					},
					"t_struct(Car)14_storage": {
						"encoding": "inplace",
						"label": "struct GarageManager.Car",
						"members": [
							{
								"astId": 7,
								"contract": "contracts/06_GarageManager.sol:GarageManager",
								"label": "make",
								"offset": 0,
								"slot": "0",
								"type": "t_string_storage"
							},
							{
								"astId": 9,
								"contract": "contracts/06_GarageManager.sol:GarageManager",
								"label": "model",
								"offset": 0,
								"slot": "1",
								"type": "t_string_storage"
							},
							{
								"astId": 11,
								"contract": "contracts/06_GarageManager.sol:GarageManager",
								"label": "color",
								"offset": 0,
								"slot": "2",
								"type": "t_string_storage"
							},
							{
								"astId": 13,
								"contract": "contracts/06_GarageManager.sol:GarageManager",
								"label": "numberOfDoors",
								"offset": 0,
								"slot": "3",
								"type": "t_uint256"
							}
						],
						"numberOfBytes": "128"
					},
					"t_uint256": {
						"encoding": "inplace",
						"label": "uint256",
						"numberOfBytes": "32"
					}
				}
			},
			"userdoc": {
				"kind": "user",
				"methods": {},
				"version": 1
			}
		}
	}
}