{
	"contracts/1_BasicMath.sol": {
		"BasicMath": {
			"abi": [
				{
					"inputs": [
						{
							"internalType": "uint256",
							"name": "_a",
							"type": "uint256"
						},
						{
							"internalType": "uint256",
							"name": "_b",
							"type": "uint256"
						}
					],
					"name": "adder",
					"outputs": [
						{
							"internalType": "uint256",
							"name": "",
							"type": "uint256"
						},
						{
							"internalType": "bool",
							"name": "",
							"type": "bool"
						}
					],
					"stateMutability": "pure",
					"type": "function"
				},
				{
					"inputs": [
						{
							"internalType": "uint256",
							"name": "_a",
							"type": "uint256"
						},
						{
							"internalType": "uint256",
							"name": "_b",
							"type": "uint256"
						}
					],
					"name": "subtractor",
					"outputs": [
						{
							"internalType": "uint256",
							"name": "",
							"type": "uint256"
						},
						{
							"internalType": "bool",
							"name": "",
							"type": "bool"
						}
					],
					"stateMutability": "pure",
					"type": "function"
				}
			],
			"devdoc": {
				"kind": "dev",
				"methods": {},
				"version": 1
			},
			"evm": {
				"assembly": "    /* \"contracts/1_BasicMath.sol\":61:615  contract BasicMath {... */\n  mstore(0x40, 0x80)\n  callvalue\n  dup1\n  iszero\n  tag_1\n  jumpi\n  revert(0x00, 0x00)\ntag_1:\n  pop\n  dataSize(sub_0)\n  dup1\n  dataOffset(sub_0)\n  0x00\n  codecopy\n  0x00\n  return\nstop\n\nsub_0: assembly {\n        /* \"contracts/1_BasicMath.sol\":61:615  contract BasicMath {... */\n      mstore(0x40, 0x80)\n      callvalue\n      dup1\n      iszero\n      tag_1\n      jumpi\n      revert(0x00, 0x00)\n    tag_1:\n      pop\n      jumpi(tag_2, lt(calldatasize, 0x04))\n      shr(0xe0, calldataload(0x00))\n      dup1\n      0x06b034e9\n      eq\n      tag_3\n      jumpi\n      dup1\n      0x5270312a\n      eq\n      tag_4\n      jumpi\n    tag_2:\n      revert(0x00, 0x00)\n        /* \"contracts/1_BasicMath.sol\":87:392  function adder(uint _a, uint _b) public pure returns (uint, bool) {... */\n    tag_3:\n      tag_5\n      0x04\n      dup1\n      calldatasize\n      sub\n      dup2\n      add\n      swap1\n      tag_6\n      swap2\n      swap1\n      tag_7\n      jump\t// in\n    tag_6:\n      tag_8\n      jump\t// in\n    tag_5:\n      mload(0x40)\n      tag_9\n      swap3\n      swap2\n      swap1\n      tag_10\n      jump\t// in\n    tag_9:\n      mload(0x40)\n      dup1\n      swap2\n      sub\n      swap1\n      return\n        /* \"contracts/1_BasicMath.sol\":400:612  function subtractor(uint _a, uint _b) public pure returns (uint, bool) {... */\n    tag_4:\n      tag_11\n      0x04\n      dup1\n      calldatasize\n      sub\n      dup2\n      add\n      swap1\n      tag_12\n      swap2\n      swap1\n      tag_7\n      jump\t// in\n    tag_12:\n      tag_13\n      jump\t// in\n    tag_11:\n      mload(0x40)\n      tag_14\n      swap3\n      swap2\n      swap1\n      tag_10\n      jump\t// in\n    tag_14:\n      mload(0x40)\n      dup1\n      swap2\n      sub\n      swap1\n      return\n        /* \"contracts/1_BasicMath.sol\":87:392  function adder(uint _a, uint _b) public pure returns (uint, bool) {... */\n    tag_8:\n        /* \"contracts/1_BasicMath.sol\":141:145  uint */\n      0x00\n        /* \"contracts/1_BasicMath.sol\":147:151  bool */\n      0x00\n        /* \"contracts/1_BasicMath.sol\":215:217  _b */\n      dup3\n        /* \"contracts/1_BasicMath.sol\":198:212  type(uint).max */\n      0xffffffffffffffffffffffffffffffffffffffffffffffffffffffffffffffff\n        /* \"contracts/1_BasicMath.sol\":198:217  type(uint).max - _b */\n      sub\n        /* \"contracts/1_BasicMath.sol\":193:195  _a */\n      dup5\n        /* \"contracts/1_BasicMath.sol\":193:217  _a > type(uint).max - _b */\n      gt\n        /* \"contracts/1_BasicMath.sol\":189:299  if (_a > type(uint).max - _b) {... */\n      iszero\n      tag_16\n      jumpi\n        /* \"contracts/1_BasicMath.sol\":275:276  0 */\n      0x00\n        /* \"contracts/1_BasicMath.sol\":278:282  true */\n      0x01\n        /* \"contracts/1_BasicMath.sol\":267:283  return (0, true) */\n      swap2\n      pop\n      swap2\n      pop\n      jump(tag_15)\n        /* \"contracts/1_BasicMath.sol\":189:299  if (_a > type(uint).max - _b) {... */\n    tag_16:\n        /* \"contracts/1_BasicMath.sol\":315:326  uint result */\n      0x00\n        /* \"contracts/1_BasicMath.sol\":334:336  _b */\n      dup4\n        /* \"contracts/1_BasicMath.sol\":329:331  _a */\n      dup6\n        /* \"contracts/1_BasicMath.sol\":329:336  _a + _b */\n      add\n        /* \"contracts/1_BasicMath.sol\":315:336  uint result = _a + _b */\n      swap1\n      pop\n        /* \"contracts/1_BasicMath.sol\":359:365  result */\n      dup1\n        /* \"contracts/1_BasicMath.sol\":367:372  false */\n      0x00\n        /* \"contracts/1_BasicMath.sol\":351:373  return (result, false) */\n      swap3\n      pop\n      swap3\n      pop\n      pop\n        /* \"contracts/1_BasicMath.sol\":87:392  function adder(uint _a, uint _b) public pure returns (uint, bool) {... */\n    tag_15:\n      swap3\n      pop\n      swap3\n      swap1\n      pop\n      jump\t// out\n        /* \"contracts/1_BasicMath.sol\":400:612  function subtractor(uint _a, uint _b) public pure returns (uint, bool) {... */\n    tag_13:\n        /* \"contracts/1_BasicMath.sol\":459:463  uint */\n      0x00\n        /* \"contracts/1_BasicMath.sol\":465:469  bool */\n      0x00\n        /* \"contracts/1_BasicMath.sol\":491:493  _a */\n      dup4\n        /* \"contracts/1_BasicMath.sol\":486:488  _b */\n      dup4\n        /* \"contracts/1_BasicMath.sol\":486:493  _b > _a */\n      gt\n        /* \"contracts/1_BasicMath.sol\":482:538  if (_b > _a) {... */\n      iszero\n      tag_18\n      jumpi\n        /* \"contracts/1_BasicMath.sol\":518:519  0 */\n      0x00\n        /* \"contracts/1_BasicMath.sol\":521:525  true */\n      0x01\n        /* \"contracts/1_BasicMath.sol\":510:526  return (0, true) */\n      swap2\n      pop\n      swap2\n      pop\n      jump(tag_17)\n        /* \"contracts/1_BasicMath.sol\":482:538  if (_b > _a) {... */\n    tag_18:\n        /* \"contracts/1_BasicMath.sol\":550:561  uint result */\n      0x00\n        /* \"contracts/1_BasicMath.sol\":569:571  _b */\n      dup4\n        /* \"contracts/1_BasicMath.sol\":564:566  _a */\n      dup6\n        /* \"contracts/1_BasicMath.sol\":564:571  _a - _b */\n      tag_19\n      swap2\n      swap1\n      tag_20\n      jump\t// in\n    tag_19:\n        /* \"contracts/1_BasicMath.sol\":550:571  uint result = _a - _b */\n      swap1\n      pop\n        /* \"contracts/1_BasicMath.sol\":590:596  result */\n      dup1\n        /* \"contracts/1_BasicMath.sol\":598:603  false */\n      0x00\n        /* \"contracts/1_BasicMath.sol\":582:604  return (result, false) */\n      swap3\n      pop\n      swap3\n      pop\n      pop\n        /* \"contracts/1_BasicMath.sol\":400:612  function subtractor(uint _a, uint _b) public pure returns (uint, bool) {... */\n    tag_17:\n      swap3\n      pop\n      swap3\n      swap1\n      pop\n      jump\t// out\n        /* \"#utility.yul\":88:205   */\n    tag_22:\n        /* \"#utility.yul\":197:198   */\n      0x00\n        /* \"#utility.yul\":194:195   */\n      0x00\n        /* \"#utility.yul\":187:199   */\n      revert\n        /* \"#utility.yul\":334:411   */\n    tag_24:\n        /* \"#utility.yul\":371:378   */\n      0x00\n        /* \"#utility.yul\":400:405   */\n      dup2\n        /* \"#utility.yul\":389:405   */\n      swap1\n      pop\n        /* \"#utility.yul\":334:411   */\n      swap2\n      swap1\n      pop\n      jump\t// out\n        /* \"#utility.yul\":417:539   */\n    tag_25:\n        /* \"#utility.yul\":490:514   */\n      tag_37\n        /* \"#utility.yul\":508:513   */\n      dup2\n        /* \"#utility.yul\":490:514   */\n      tag_24\n      jump\t// in\n    tag_37:\n        /* \"#utility.yul\":483:488   */\n      dup2\n        /* \"#utility.yul\":480:515   */\n      eq\n        /* \"#utility.yul\":470:533   */\n      tag_38\n      jumpi\n        /* \"#utility.yul\":529:530   */\n      0x00\n        /* \"#utility.yul\":526:527   */\n      0x00\n        /* \"#utility.yul\":519:531   */\n      revert\n        /* \"#utility.yul\":470:533   */\n    tag_38:\n        /* \"#utility.yul\":417:539   */\n      pop\n      jump\t// out\n        /* \"#utility.yul\":545:684   */\n    tag_26:\n        /* \"#utility.yul\":591:596   */\n      0x00\n        /* \"#utility.yul\":629:635   */\n      dup2\n        /* \"#utility.yul\":616:636   */\n      calldataload\n        /* \"#utility.yul\":607:636   */\n      swap1\n      pop\n        /* \"#utility.yul\":645:678   */\n      tag_40\n        /* \"#utility.yul\":672:677   */\n      dup2\n        /* \"#utility.yul\":645:678   */\n      tag_25\n      jump\t// in\n    tag_40:\n        /* \"#utility.yul\":545:684   */\n      swap3\n      swap2\n      pop\n      pop\n      jump\t// out\n        /* \"#utility.yul\":690:1164   */\n    tag_7:\n        /* \"#utility.yul\":758:764   */\n      0x00\n        /* \"#utility.yul\":766:772   */\n      0x00\n        /* \"#utility.yul\":815:817   */\n      0x40\n        /* \"#utility.yul\":803:812   */\n      dup4\n        /* \"#utility.yul\":794:801   */\n      dup6\n        /* \"#utility.yul\":790:813   */\n      sub\n        /* \"#utility.yul\":786:818   */\n      slt\n        /* \"#utility.yul\":783:902   */\n      iszero\n      tag_42\n      jumpi\n        /* \"#utility.yul\":821:900   */\n      tag_43\n      tag_22\n      jump\t// in\n    tag_43:\n        /* \"#utility.yul\":783:902   */\n    tag_42:\n        /* \"#utility.yul\":941:942   */\n      0x00\n        /* \"#utility.yul\":966:1019   */\n      tag_44\n        /* \"#utility.yul\":1011:1018   */\n      dup6\n        /* \"#utility.yul\":1002:1008   */\n      dup3\n        /* \"#utility.yul\":991:1000   */\n      dup7\n        /* \"#utility.yul\":987:1009   */\n      add\n        /* \"#utility.yul\":966:1019   */\n      tag_26\n      jump\t// in\n    tag_44:\n        /* \"#utility.yul\":956:1019   */\n      swap3\n      pop\n        /* \"#utility.yul\":912:1029   */\n      pop\n        /* \"#utility.yul\":1068:1070   */\n      0x20\n        /* \"#utility.yul\":1094:1147   */\n      tag_45\n        /* \"#utility.yul\":1139:1146   */\n      dup6\n        /* \"#utility.yul\":1130:1136   */\n      dup3\n        /* \"#utility.yul\":1119:1128   */\n      dup7\n        /* \"#utility.yul\":1115:1137   */\n      add\n        /* \"#utility.yul\":1094:1147   */\n      tag_26\n      jump\t// in\n    tag_45:\n        /* \"#utility.yul\":1084:1147   */\n      swap2\n      pop\n        /* \"#utility.yul\":1039:1157   */\n      pop\n        /* \"#utility.yul\":690:1164   */\n      swap3\n      pop\n      swap3\n      swap1\n      pop\n      jump\t// out\n        /* \"#utility.yul\":1170:1288   */\n    tag_27:\n        /* \"#utility.yul\":1257:1281   */\n      tag_47\n        /* \"#utility.yul\":1275:1280   */\n      dup2\n        /* \"#utility.yul\":1257:1281   */\n      tag_24\n      jump\t// in\n    tag_47:\n        /* \"#utility.yul\":1252:1255   */\n      dup3\n        /* \"#utility.yul\":1245:1282   */\n      mstore\n        /* \"#utility.yul\":1170:1288   */\n      pop\n      pop\n      jump\t// out\n        /* \"#utility.yul\":1294:1384   */\n    tag_28:\n        /* \"#utility.yul\":1328:1335   */\n      0x00\n        /* \"#utility.yul\":1371:1376   */\n      dup2\n        /* \"#utility.yul\":1364:1377   */\n      iszero\n        /* \"#utility.yul\":1357:1378   */\n      iszero\n        /* \"#utility.yul\":1346:1378   */\n      swap1\n      pop\n        /* \"#utility.yul\":1294:1384   */\n      swap2\n      swap1\n      pop\n      jump\t// out\n        /* \"#utility.yul\":1390:1499   */\n    tag_29:\n        /* \"#utility.yul\":1471:1492   */\n      tag_50\n        /* \"#utility.yul\":1486:1491   */\n      dup2\n        /* \"#utility.yul\":1471:1492   */\n      tag_28\n      jump\t// in\n    tag_50:\n        /* \"#utility.yul\":1466:1469   */\n      dup3\n        /* \"#utility.yul\":1459:1493   */\n      mstore\n        /* \"#utility.yul\":1390:1499   */\n      pop\n      pop\n      jump\t// out\n        /* \"#utility.yul\":1505:1825   */\n    tag_10:\n        /* \"#utility.yul\":1620:1624   */\n      0x00\n        /* \"#utility.yul\":1658:1660   */\n      0x40\n        /* \"#utility.yul\":1647:1656   */\n      dup3\n        /* \"#utility.yul\":1643:1661   */\n      add\n        /* \"#utility.yul\":1635:1661   */\n      swap1\n      pop\n        /* \"#utility.yul\":1671:1742   */\n      tag_52\n        /* \"#utility.yul\":1739:1740   */\n      0x00\n        /* \"#utility.yul\":1728:1737   */\n      dup4\n        /* \"#utility.yul\":1724:1741   */\n      add\n        /* \"#utility.yul\":1715:1721   */\n      dup6\n        /* \"#utility.yul\":1671:1742   */\n      tag_27\n      jump\t// in\n    tag_52:\n        /* \"#utility.yul\":1752:1818   */\n      tag_53\n        /* \"#utility.yul\":1814:1816   */\n      0x20\n        /* \"#utility.yul\":1803:1812   */\n      dup4\n        /* \"#utility.yul\":1799:1817   */\n      add\n        /* \"#utility.yul\":1790:1796   */\n      dup5\n        /* \"#utility.yul\":1752:1818   */\n      tag_29\n      jump\t// in\n    tag_53:\n        /* \"#utility.yul\":1505:1825   */\n      swap4\n      swap3\n      pop\n      pop\n      pop\n      jump\t// out\n        /* \"#utility.yul\":1831:2011   */\n    tag_30:\n        /* \"#utility.yul\":1879:1956   */\n      0x4e487b7100000000000000000000000000000000000000000000000000000000\n        /* \"#utility.yul\":1876:1877   */\n      0x00\n        /* \"#utility.yul\":1869:1957   */\n      mstore\n        /* \"#utility.yul\":1976:1980   */\n      0x11\n        /* \"#utility.yul\":1973:1974   */\n      0x04\n        /* \"#utility.yul\":1966:1981   */\n      mstore\n        /* \"#utility.yul\":2000:2004   */\n      0x24\n        /* \"#utility.yul\":1997:1998   */\n      0x00\n        /* \"#utility.yul\":1990:2005   */\n      revert\n        /* \"#utility.yul\":2017:2211   */\n    tag_20:\n        /* \"#utility.yul\":2057:2061   */\n      0x00\n        /* \"#utility.yul\":2077:2097   */\n      tag_56\n        /* \"#utility.yul\":2095:2096   */\n      dup3\n        /* \"#utility.yul\":2077:2097   */\n      tag_24\n      jump\t// in\n    tag_56:\n        /* \"#utility.yul\":2072:2097   */\n      swap2\n      pop\n        /* \"#utility.yul\":2111:2131   */\n      tag_57\n        /* \"#utility.yul\":2129:2130   */\n      dup4\n        /* \"#utility.yul\":2111:2131   */\n      tag_24\n      jump\t// in\n    tag_57:\n        /* \"#utility.yul\":2106:2131   */\n      swap3\n      pop\n        /* \"#utility.yul\":2155:2156   */\n      dup3\n        /* \"#utility.yul\":2152:2153   */\n      dup3\n        /* \"#utility.yul\":2148:2157   */\n      sub\n        /* \"#utility.yul\":2140:2157   */\n      swap1\n      pop\n        /* \"#utility.yul\":2179:2180   */\n      dup2\n        /* \"#utility.yul\":2173:2177   */\n      dup2\n        /* \"#utility.yul\":2170:2181   */\n      gt\n        /* \"#utility.yul\":2167:2204   */\n      iszero\n      tag_58\n      jumpi\n        /* \"#utility.yul\":2184:2202   */\n      tag_59\n      tag_30\n      jump\t// in\n    tag_59:\n        /* \"#utility.yul\":2167:2204   */\n    tag_58:\n        /* \"#utility.yul\":2017:2211   */\n      swap3\n      swap2\n      pop\n      pop\n      jump\t// out\n\n    auxdata: 0xa26469706673582212201d275e2371143690eb924942faae89a5aa62d0cbf9613a3680f454398dc5289164736f6c634300081e0033\n}\n",
				"bytecode": {
					"linkReferences": {},
					"object": "6080604052348015600e575f5ffd5b506102768061001c5f395ff3fe608060405234801561000f575f5ffd5b5060043610610034575f3560e01c806306b034e9146100385780635270312a14610069575b5f5ffd5b610052600480360381019061004d9190610152565b61009a565b6040516100609291906101b9565b60405180910390f35b610083600480360381019061007e9190610152565b6100e7565b6040516100919291906101b9565b60405180910390f35b5f5f827fffffffffffffffffffffffffffffffffffffffffffffffffffffffffffffffff038411156100d2575f6001915091506100e0565b5f8385019050805f92509250505b9250929050565b5f5f838311156100fd575f600191509150610114565b5f838561010a919061020d565b9050805f92509250505b9250929050565b5f5ffd5b5f819050919050565b6101318161011f565b811461013b575f5ffd5b50565b5f8135905061014c81610128565b92915050565b5f5f604083850312156101685761016761011b565b5b5f6101758582860161013e565b92505060206101868582860161013e565b9150509250929050565b6101998161011f565b82525050565b5f8115159050919050565b6101b38161019f565b82525050565b5f6040820190506101cc5f830185610190565b6101d960208301846101aa565b9392505050565b7f4e487b71000000000000000000000000000000000000000000000000000000005f52601160045260245ffd5b5f6102178261011f565b91506102228361011f565b925082820390508181111561023a576102396101e0565b5b9291505056fea26469706673582212201d275e2371143690eb924942faae89a5aa62d0cbf9613a3680f454398dc5289164736f6c634300081e0033",
					"opcodes": "PUSH1 0x80 PUSH1 0x40 MSTORE CALLVALUE DUP1 ISZERO PUSH1 0xE JUMPI PUSH0 PUSH0 REVERT JUMPDEST POP PUSH2 0x276 DUP1 PUSH2 0x1C PUSH0 CODECOPY PUSH0 RETURN INVALID PUSH1 0x80 PUSH1 0x40 MSTORE CALLVALUE DUP1 ISZERO PUSH2 0xF JUMPI PUSH0 PUSH0 REVERT JUMPDEST POP PUSH1 0x4 CALLDATASIZE LT PUSH2 0x34 JUMPI PUSH0 CALLDATALOAD PUSH1 0xE0 SHR DUP1 PUSH4 0x6B034E9 EQ PUSH2 0x38 JUMPI DUP1 PUSH4 0x5270312A EQ PUSH2 0x69 JUMPI JUMPDEST PUSH0 PUSH0 REVERT JUMPDEST PUSH2 0x52 PUSH1 0x4 DUP1 CALLDATASIZE SUB DUP2 ADD SWAP1 PUSH2 0x4D SWAP2 SWAP1 PUSH2 0x152 JUMP JUMPDEST PUSH2 0x9A JUMP JUMPDEST PUSH1 0x40 MLOAD PUSH2 0x60 SWAP3 SWAP2 SWAP1 PUSH2 0x1B9 JUMP JUMPDEST PUSH1 0x40 MLOAD DUP1 SWAP2 SUB SWAP1 RETURN JUMPDEST PUSH2 0x83 PUSH1 0x4 DUP1 CALLDATASIZE SUB DUP2 ADD SWAP1 PUSH2 0x7E SWAP2 SWAP1 PUSH2 0x152 JUMP JUMPDEST PUSH2 0xE7 JUMP JUMPDEST PUSH1 0x40 MLOAD PUSH2 0x91 SWAP3 SWAP2 SWAP1 PUSH2 0x1B9 JUMP JUMPDEST PUSH1 0x40 MLOAD DUP1 SWAP2 SUB SWAP1 RETURN JUMPDEST PUSH0 PUSH0 DUP3 PUSH32 0xFFFFFFFFFFFFFFFFFFFFFFFFFFFFFFFFFFFFFFFFFFFFFFFFFFFFFFFFFFFFFFFF SUB DUP5 GT ISZERO PUSH2 0xD2 JUMPI PUSH0 PUSH1 0x1 SWAP2 POP SWAP2 POP PUSH2 0xE0 JUMP JUMPDEST PUSH0 DUP4 DUP6 ADD SWAP1 POP DUP1 PUSH0 SWAP3 POP SWAP3 POP POP JUMPDEST SWAP3 POP SWAP3 SWAP1 POP JUMP JUMPDEST PUSH0 PUSH0 DUP4 DUP4 GT ISZERO PUSH2 0xFD JUMPI PUSH0 PUSH1 0x1 SWAP2 POP SWAP2 POP PUSH2 0x114 JUMP JUMPDEST PUSH0 DUP4 DUP6 PUSH2 0x10A SWAP2 SWAP1 PUSH2 0x20D JUMP JUMPDEST SWAP1 POP DUP1 PUSH0 SWAP3 POP SWAP3 POP POP JUMPDEST SWAP3 POP SWAP3 SWAP1 POP JUMP JUMPDEST PUSH0 PUSH0 REVERT JUMPDEST PUSH0 DUP2 SWAP1 POP SWAP2 SWAP1 POP JUMP JUMPDEST PUSH2 0x131 DUP2 PUSH2 0x11F JUMP JUMPDEST DUP2 EQ PUSH2 0x13B JUMPI PUSH0 PUSH0 REVERT JUMPDEST POP JUMP JUMPDEST PUSH0 DUP2 CALLDATALOAD SWAP1 POP PUSH2 0x14C DUP2 PUSH2 0x128 JUMP JUMPDEST SWAP3 SWAP2 POP POP JUMP JUMPDEST PUSH0 PUSH0 PUSH1 0x40 DUP4 DUP6 SUB SLT ISZERO PUSH2 0x168 JUMPI PUSH2 0x167 PUSH2 0x11B JUMP JUMPDEST JUMPDEST PUSH0 PUSH2 0x175 DUP6 DUP3 DUP7 ADD PUSH2 0x13E JUMP JUMPDEST SWAP3 POP POP PUSH1 0x20 PUSH2 0x186 DUP6 DUP3 DUP7 ADD PUSH2 0x13E JUMP JUMPDEST SWAP2 POP POP SWAP3 POP SWAP3 SWAP1 POP JUMP JUMPDEST PUSH2 0x199 DUP2 PUSH2 0x11F JUMP JUMPDEST DUP3 MSTORE POP POP JUMP JUMPDEST PUSH0 DUP2 ISZERO ISZERO SWAP1 POP SWAP2 SWAP1 POP JUMP JUMPDEST PUSH2 0x1B3 DUP2 PUSH2 0x19F JUMP JUMPDEST DUP3 MSTORE POP POP JUMP JUMPDEST PUSH0 PUSH1 0x40 DUP3 ADD SWAP1 POP PUSH2 0x1CC PUSH0 DUP4 ADD DUP6 PUSH2 0x190 JUMP JUMPDEST PUSH2 0x1D9 PUSH1 0x20 DUP4 ADD DUP5 PUSH2 0x1AA JUMP JUMPDEST SWAP4 SWAP3 POP POP POP JUMP JUMPDEST PUSH32 0x4E487B7100000000000000000000000000000000000000000000000000000000 PUSH0 MSTORE PUSH1 0x11 PUSH1 0x4 MSTORE PUSH1 0x24 PUSH0 REVERT JUMPDEST PUSH0 PUSH2 0x217 DUP3 PUSH2 0x11F JUMP JUMPDEST SWAP2 POP PUSH2 0x222 DUP4 PUSH2 0x11F JUMP JUMPDEST SWAP3 POP DUP3 DUP3 SUB SWAP1 POP DUP2 DUP2 GT ISZERO PUSH2 0x23A JUMPI PUSH2 0x239 PUSH2 0x1E0 JUMP JUMPDEST JUMPDEST SWAP3 SWAP2 POP POP JUMP INVALID LOG2 PUSH5 0x6970667358 0x22 SLT KECCAK256 SAR 0x27 MCOPY 0x23 PUSH18 0x143690EB924942FAAE89A5AA62D0CBF9613A CALLDATASIZE DUP1 DELEGATECALL SLOAD CODECOPY DUP14 0xC5 0x28 SWAP2 PUSH5 0x736F6C6343 STOP ADDMOD 0x1E STOP CALLER "
				},
				"gasEstimates": {
					"creation": {
						"codeDepositCost": "126000",
						"executionCost": "169",
						"totalCost": "126169"
					},
					"external": {
						"adder(uint256,uint256)": "infinite",
						"subtractor(uint256,uint256)": "infinite"
					}
				},
				"methodIdentifiers": {
					"adder(uint256,uint256)": "06b034e9",
					"subtractor(uint256,uint256)": "5270312a"
				}
			},
			"storageLayout": {
				"storage": [],
				"types": null
			},
			"userdoc": {
				"kind": "user",
				"methods": {},
				"version": 1
			}
		}
	}
}